:020000040800F2
:10000000F84C00209D01000865280008D11B00085D
:10001000AD260008AD0800084941000800000000B6
:1000200000000000000000000000000005010008C2
:10003000D90D00080000000049010008CD36000875
:10004000B7010008B7010008B7010008B7010008B0
:10005000B7010008B7010008B7010008B7010008A0
:10006000B7010008B7010008B7010008B701000890
:10007000B7010008B7010008B7010008B701000880
:10008000B7010008B7010008B7010008B701000870
:10009000B7010008B7010008B701000819100008EF
:1000A000B7010008A9370008B70100083D3700086C
:1000B000193800085938000895380008B7010008B9
:1000C000B7010008B7010008B7010008B701000830
:1000D000B7010008B7010008C13D0008B7010008DA
:1000E000B7010008B7010008B7010008DFF810D019
:1000F00000F0A0F80048004769470008AFF300800F
:10010000F84C0020224B19680868B0E8F00F80F323
:100110000988BFF36F8F4FF0000080F311884EF015
:100120000D0E70470000000006480068006880F36C
:10013000088862B661B6BFF34F8FBFF36F8F00DFE1
:1001400000BF00BF08ED00E0EFF30980BFF36F8F41
:100150000F4B1A6820E9F00F106008B54FF0BF0090
:1001600080F31188BFF34F8FBFF36F8F05F0B0F8A6
:100170004FF0000080F31188BDE808401968086856
:10018000B0E8F00F80F30988BFF36F8F704700BFAE
:1001900070000020EFF3058070470000064880479C
:1001A00006480047FEE7FEE7FEE7FEE7FEE7FEE75C
:1001B000FEE7FEE7FEE7FEE7DD360008ED0000089B
:1001C00040EA01039B0703D009E008C9121F08C0D9
:1001D000042AFAD203E011F8013B00F8013B521E59
:1001E000F9D27047D2B201E000F8012B491EFBD2D0
:1001F00070470022F6E710B513460A460446194632
:10020000FFF7F0FF204610BD30B50B460146002039
:100210002022012409E021FA02F59D4205D303FAC8
:1002200002F5491B04FA02F52844151EA2F1010249
:10023000F1DC30BD064C074D06E0E06840F00103FC
:1002400094E8070098471034AC42F6D3FFF752FF0A
:10025000D85A0008F85A000808B50121092002F010
:10026000C7FD01210B4801F0F1FB0820ADF80000AB
:1002700010208DF8030003208DF80200694606481F
:1002800001F058FB1020ADF800006946024801F06B
:1002900051FB08BD00023000000C014010B5FFF713
:1002A000DBFF0821034801F022FC1021014801F086
:1002B0001EFC10BD000C01400146202909DB7E29EF
:1002C00007DCA1F1200000EB4000034A02EB001024
:1002D00070474FF0FF30FBE700FF1D00014620296B
:1002E00007DB7E2905DCA1F12000034A02EB801028
:1002F00070474FF0FF30FBE7505A1E00014620299F
:1003000009DB7E2907DCA1F1200000EB4000034A55
:1003100002EB800070474FF0FF30FBE700BE1D008E
:100320000146202907DB7E2905DCA1F12000034AD4
:1003300002EB001070474FF0FF30FBE780D71D0045
:1003400030B504460B464FF0FF35062B06D0072B81
:1003500009D0082B0CD0092B14D10EE02046FFF752
:10036000CDFF054611E02046FFF7DAFF05460CE019
:100370002046FFF7A1FF054607E02046FFF7AEFF46
:10038000054602E04FF0FF3500BF00BF284630BDF4
:100390003EB5012404F05CFE03220021012004F09C
:1003A000FBFF4A49086003220021012004F0F4FF0A
:1003B0004749086003220021012004F0EDFF454970
:1003C00008604248006810B143A003F0B5FF404800
:1003D000006810B14BA003F0AFFF3E48006810B1B9
:1003E00053A003F0A9FF5D485D4908220023CDE931
:1003F0000021029040225BA15E4805F0F3F95E49BE
:1004000008600846006818B15CA003F095FF02E0A0
:1004100061A003F091FF6748092100234FF40072A7
:10042000CDE9001064A1684805F0AAF90446012C42
:1004300003D166A003F080FF02E06CA003F07CFF14
:1004400072480A2100234FF40072CDE9001070A118
:10045000734805F095F90446012C03D171A003F00F
:100460006BFF02E077A003F067FF68480A210023D2
:100470004FF40072CDE9001065A1694805F080F9DC
:100480000446012C03D167A003F056FF02E06DA0E3
:1004900003F052FF73480B2100234FF40072CDE9A3
:1004A000001071A1744805F06BF90446012C03D1CA
:1004B00072A003F041FF02E078A003F03DFF7F4807
:1004C000006804F02FFE04F0D5FD3EBD14000020AE
:1004D000180000201C00002042696E61727953658B
:1004E0006D315F48616E646C6520B6FED6B5D0C5CF
:1004F000BAC5C1BFB4B4BDA8B3C9B9A6A3A10D0AFA
:100500000000000042696E61727953656D325F4888
:10051000616E646C6520B6FED6B5D0C5BAC5C1BFE4
:10052000B4B4BDA8B3C9B9A6A3A10D0A00000000C8
:1005300042696E61727953656D335F48616E646CB8
:100540006520B6FED6B5D0C5BAC5C1BFB4B4BDA886
:10055000B3C9B9A6A3A10D0A00000000E00A00205B
:10056000CC0800204B65795363616E5F5461736BF7
:1005700000000000A9230008240000204B657953E7
:1005800063616E5F5461736BC8CECEF1B4B4BDA825
:10059000B3C9B9A6210A00004B65795363616E5F48
:1005A0005461736BC8CECEF1B4B4BDA8CAA7B0DC99
:1005B000210A00002800002045585449585F44652E
:1005C000616C5461736B00008110000845585449F8
:1005D000585F4465616C5461736BC8CECEF1B4B49E
:1005E000BDA8B3C9B9A6210D0A0000004558544959
:1005F000585F4465616C5461736BC8CECEF1B4B47E
:10060000BDA8CAA7B0DC210D0A0000002C00002004
:100610005553415254325F4465616C5461736B00B1
:10062000BD3B00085553415254325F4465616C54E0
:1006300061736BC8CECEF1B4B4BDA8B3C9B9A6215D
:100640000D0A00005553415254325F4465616C54A9
:1006500061736BC8CECEF1B4B4BDA8CAA7B0DC211B
:100660000D0A000030000020466163655F53776922
:100670007463685461736B006515000846616365B7
:100680005F5377697463685461736BC8CECEF1B4FD
:10069000B4BDA8B3C9B9A6210D0A000046616365BF
:1006A0005F5377697463685461736BC8CECEF1B4DD
:1006B000B4BDA8CAA7B0DC210D0A000020000020AC
:1006C00008B50121052002F093FB0121084801F043
:1006D000BDF94FF40040ADF8000010208DF8030084
:1006E00003208DF802006946024801F023F908BD95
:1006F000000230000008014010B5FFF7E1FF0022C2
:100700004FF40041014801F0F6F910BD0008014026
:100710001FB54FF4A06002F0DFF8482000F05EFB48
:1007200001F052FE00F0FAF9FFF7B8FDFFF7E4FF21
:1007300000F0D0FE41F61F4142F20F7003F0B8F80E
:10074000472142F20F7003F02BF941F61F4142F2AC
:100750000F7003F0F1F802F07FFC01F007FD4FF499
:10076000FA7003F0E7FF01F0CBF9642003F0E2FF39
:1007700007214120FFF7E4FD044607226946204691
:1007800001F0D0F94FF4E13004F072FB4FF4E130A6
:1007900004F0AAFB032305A2C821322001F0EEFBDE
:1007A0004FF4FA7003F0C6FF1FBD0000B7C9D2EDC9
:1007B000B3B5B6D3B5E7C6F8D7E9000010B5002049
:1007C0000449087000231A4619460348006804F0DB
:1007D000E1FE10BD5D0000201C00002010B503F0FC
:1007E000D5F92F48007802280CDC00202C4908702D
:1007F00000F062FE00231A4619462A48006804F0F9
:10080000C9FE4CE02648007803280DD10220244977
:10081000087096202449088000231A46194621486A
:10082000006804F0B7FE3AE01D48007804280AD1B9
:1008300001201B49087000231A4619461948006810
:1008400004F0A8FE2BE01648007805280AD1032002
:100850001349087000231A4619461248006804F02C
:1008600099FE1CE00E48007806280AD104200C49A5
:10087000087000231A4619460A48006804F08AFEE8
:100880000DE007480078072809D1052004490870C1
:1008900000231A4619460348006804F07BFE10BD89
:1008A0005D0000201C0000203800002000BFFEE793
:1008B00010B5044660480078A0B9012C04D0022C81
:1008C00006D0032C0CD107E05C49086E804708E095
:1008D0005A49C86C804704E058490869804700E0DD
:1008E00000BFA8E054480078012814D1012C04D09E
:1008F000022C06D0032C0CD107E05049886B8047AE
:1009000008E04E49486F804704E04C49486A8047F8
:1009100000E000BF8FE04848007802280ED114B1F3
:10092000032C09D104E04549D1F89C00804704E03C
:1009300042490869804700E000BF7CE03E480078FB
:10094000032814D1012C04D0022C06D0032C0CD186
:1009500007E03A49886B804708E03849486F80478C
:1009600004E03649486A804700E000BF63E032484F
:10097000007804281AD134B1012C09D0022C0BD0F4
:10098000032C11D10CE02D49D1F8880080470CE0F0
:100990002A49086E804708E02849C86C804704E06F
:1009A0002649486A804700E000BF44E022480078BA
:1009B00005281AD134B1012C09D0022C0BD0032CFC
:1009C00011D10CE01D49D1F8880080470CE01B498B
:1009D000086E804708E01949C86C804704E0174951
:1009E000486A804700E000BF25E0134800780628E9
:1009F0000ED1022C02D0032C08D103E00F49086964
:100A0000804704E00D49486A804700E000BF12E0DB
:100A10000948007807280ED1022C02D0032C08D1F7
:100A200003E006490869804704E00449486A8047B2
:100A300000E000BF00BF10BD5D000020601B002073
:100A40003EB505462C46002001900290207A0828E9
:100A500035D2DFE800F0040A10161C22282E22A24C
:100A600023A101A803F078FC2AE022A220A101A87A
:100A700003F072FC24E021A21DA101A803F06CFC8C
:100A80001EE020A21AA101A803F066FC18E01EA235
:100A900017A101A803F060FC12E01CA214A101A898
:100AA00003F05AFC0CE01BA211A101A803F054FCB6
:100AB00006E010A20EA101A803F04EFC00E000BF6A
:100AC00000BFFF200090618820881E23322201F0A1
:100AD000FFF86288D21C91B22288521C90B2022385
:100AE00001AA01F04BFA3EBDC8B7B6A8000000004D
:100AF00025730000B7B5BBD800000000B2E9BFB451
:100B000000000000A1FC0000A1FD0000D7BCB1B8AE
:100B100000000000C7E5BFD500000000774800884E
:100B2000323877490880774800881E3848807348F3
:100B30000088888073480088C88000200872724846
:100B4000C860724808616D480088323888826D48F4
:100B500000881E3881B26A48C182684801886848A6
:100B6000018368480188664841830121017766490D
:100B700001626749416261480088E638604908853A
:100B8000604800881E3881B25D4841855B48008816
:100B9000B43881B25A4881855A4801885848C1857D
:100BA000022180F83010584941635A498163534803
:100BB00000888C3852498887524800881E3881B294
:100BC0004F48C1874D4800885A3881B24C48A0F838
:100BD00040104C4801884A48A0F84210032180F890
:100BE0004410494981644C49C16444480088E6384E
:100BF0004349A1F85000434800881E3881B240485C
:100C0000A0F852103D480088B43881B23C48A0F8A2
:100C100054103C4801883A48A0F85610042180F846
:100C200058103949C1653D490166344800888C38FF
:100C30003349A1F86400334800881E3881B2304837
:100C4000A0F866102D4800885A3881B22C48A0F8C8
:100C500068102C4801882A48A0F86A10052180F8FD
:100C60006C10294901672E49416724480088A0F586
:100C7000A0702349A1F87800224800881E3881B26C
:100C80001F48A0F87A101D480088A0F5877081B22F
:100C90001B48A0F87C101B4801881948A0F87E105A
:100CA000062180F880101849C0F884101D49C0F84A
:100CB000881012480088A0F5A0701149A1F88C0096
:100CC000104800881E3881B20D48A0F88E100B48DD
:100CD0000088A0F5877081B20948A0F890100948F3
:100CE00001880748A0F89210072180F8941006495F
:100CF000C0F898100C49C0F89C10704760000020A4
:100D0000601B002062000020410A0008210E00083C
:100D1000DD070008ED42000885400008550F000877
:100D2000052F0008C1130008BD07000838B52C23A3
:100D300064220A21962000F05BFF02231EA21421E8
:100D4000084601F01BF91F48007830B30024FF204B
:100D500000901C48007800EB80001E2101EB80020F
:100D60002C230A21912000F0B3FF00BF10E01648A9
:100D700010F814003030C0B20090C4EB041101F13F
:100D8000A00008236A46142101F05AF9601CC4B27D
:100D90000C4800788442EADB0DE0FF202C238C22F3
:100DA0000A210090962000F093FF022307A214214D
:100DB000A02001F0E3F838BDB4AEBFDACDA8D1B6BB
:100DC000A3BA0000350000203C1B0020CEDEB4D3C7
:100DD000BBFAC1ACBDD300007047000070B504463B
:100DE000042002F05FFC0C48047025464FF47A7032
:100DF00045430120094908804FF0E020006940F098
:100E000002004FF0E021086108464561006940F0AA
:100E10000100086170BD0000500000205200002059
:100E200010B544480078E0B943480078012809D15A
:100E30004049087000231A4619464048006804F0EB
:100E4000A9FB75E03C480078022809D139490870AF
:100E500000231A4619463948006804F09BFB67E0F6
:100E600066E034480078022819D135480078012816
:100E70000ADB03202F49087000231A4619462F4821
:100E8000006804F087FB53E000202A490870002323
:100E90001A4619462948006804F07CFB48E02548BA
:100EA0000078062820D12748008800280EDD05E0BC
:100EB00000202549234A128821F812002148018880
:100EC0000088401E1F4A10800029F1D104201949D2
:100ED000087000201B49088000231A46194617484D
:100EE000006804F057FB23E01248007807281FD160
:100EF0001648008800280EDD05E000201449134A3A
:100F0000128821F81200114801880088401E0F4AFB
:100F100010800029F1D105200649087000200B49F6
:100F2000088000231A4619460448006804F032FB82
:100F300010BD00005D0000205C0000201C000020AF
:100F4000350000203A0000203C0B00203C0000202F
:100F50003C13002010B529480078002839D12848D2
:100F60000078401C2649087008460078032801DDF7
:100F7000012008702248007801280CD11E231A464F
:100F8000DC21462000F034FE02231EA28C214620E4
:100F900000F0F4FF30E01A48007802280CD11E233C
:100FA0001A468C21462000F023FE022315A2B4210C
:100FB000462000F0E3FF1FE01E231A46B42146201E
:100FC00000F016FE02230FA2DC21462000F0D6FF1F
:100FD00012E00A480078042805D10B4801880B4824
:100FE00001F084FC08E005480078052804D1084891
:100FF0000188084801F07AFC10BD00005D00002067
:101000005C000020A1F400003A0000203C0B00200E
:101010003C0000203C13002038B54FF4807000F0F5
:1010200071F920B34FF4807000F066F900F044FAD3
:101030000121880702F0EBFC0D480078401C0C49A8
:1010400008700020009069460A48006804F02EFBF2
:1010500004464CB1009838B14FF080500649086002
:10106000BFF34F8FBFF36F8F01200449087038BD65
:101070004D0000201400002004ED00E04B00002093
:1010800086B00025142101A8FFF7B3F80AE1002378
:101090005A1E19468448006804F09EF900208349CE
:1010A00008700CE04FF48071814800F017FD08B91A
:1010B000601CC4B2012004F01BF8681CC5B20A2DE4
:1010C000F0DB052C7EDD7B48007801287BD17A4857
:1010D000007820BB00207949087002F063FD0120F0
:1010E0007549087000207649086076A277A101A8AA
:1010F00003F032F91E2396228921822000F078FD28
:10110000FF201E23962289210090822000F0E0FD1E
:10111000022301AA8C218D2000F030FFC2E0674835
:101120000078012803D16A4800686949486064482A
:101130000068674908600021664802F08EFC0020C4
:101140005F49086064A261A101A803F005F91E23AC
:1011500096228921822000F04BFD28235A22C821A3
:10116000084600F045FDFF201E23962289210090AD
:10117000822000F0ADFD022301AA8C218D2000F019
:10118000FDFE5349098888B2C82102F033F9554859
:101190000088B0F57A7F04DC4D49098888B202F0F6
:1011A000B1FC4FF47A7003F0A3FF424800780128A5
:1011B00078D144A245A101A803F0CEF81E239622BF
:1011C000892101E051E02AE0822000F011FDFF209A
:1011D0001E23962289210090822000F079FD0223AF
:1011E00001AA8C218D2000F0C9FE34480078012826
:1011F0000BD128235A22F021C82000F0F9FC3449F1
:10120000898888B2F02102F0F5F82C48007800288F
:1012100048D12A480078401C2849087042E02548F7
:10122000007803283ED100F047F902F0BBFC012111
:101230002D4802F007FE23A224A101A803F08CF898
:101240001E2396228921822000F0D2FCFF201E233B
:10125000962289210090822000F03AFD022301AA03
:101260008C218D2000F08AFE1CE020A217A101A88D
:1012700003F072F81E2396228921822000F0B8FC28
:10128000FF201E23962289210090822000F020FD5D
:10129000022301AA8C218D2000F070FE4FF47A7099
:1012A00003F026FFF3E60000140000204B000020AE
:1012B000000801405D000020340000203F000020B5
:1012C00044000020BCC6CAB1D6D00000257300007F
:1012D000541B002000040040BCC6CAB1BDE1CAF8DE
:1012E000000000003A00002000440040BCC6CAB123
:1012F000B4EDCEF300000000014908607047000023
:1013000014040140014600200022074B1B6803EA39
:101310000102054B14331B680B4013B10AB10120C5
:1013200000E0002070470000000401400021234934
:101330008279002A3AD00A46126803689A430B461B
:101340001A600A1D126803689A430B1D1A6002791D
:1013500011440A6803681A430A60184A083212687E
:1013600003689A43154B08331A601A1D1268036804
:101370009A43124B0C331A604279102A0ED11A1F6D
:10138000126803681A430D4B08331A601A1D12685D
:1013900003681A43094B0C331A600DE00749427980
:1013A00011440A6803681A430A6005E0027911448F
:1013B0000A6803689A430A6070470000000401400D
:1013C00010B504480078801C0249087000F004F849
:1013D00010BD00005D00002008B54FF4DC734FF431
:1013E000A0725021002000F003FCFF205023C822EF
:1013F000114600903C2000F06BFC22480078062843
:101400000CD1022320A2D221582000F0B7FD0223E4
:1014100021A2FA21622000F0B1FD0FE01948007806
:1014200007280BD102231FA2D221582000F0A6FDCD
:10143000022319A2FA21622000F0A0FD1D48808F2E
:101440001C4908800846C08F48800846B0F8400014
:1014500088800846B0F84200C8800846C1688847BE
:101460001448016A143088471248808A114908805C
:101470000846C08A48800846008B88800846408B12
:10148000C88008BD5D000020C8B7B6A8C7E5BFD5B5
:10149000B5A5C8A600000000B2E2CAD4CAFDBEDDF0
:1014A000A3BF0000C8B7B6A8C7E5BFD5BCD3CBD98A
:1014B00000000000601B002010B54FF48070FFF7A3
:1014C0001BFF0348006820F480700149086010BDCC
:1014D000000401401FB50121052001F089FC4820CE
:1014E0008DF80F004FF48070ADF80C0003A915487B
:1014F00000F020FA0821002000F0FCF94FF4807081
:10150000FFF7FAFE00208DF808000C208DF8090086
:1015100001208DF80A000002019001A8FFF706FFE4
:10152000FFF7CAFF17208DF8000003208DF8010097
:1015300002208DF8020001208DF80300684601F0BA
:1015400093F91FBD0008014010B54FF48070FFF7FC
:10155000D3FE0348006840F480700149086010BD64
:10156000000401404EE02848007848B9002127488F
:1015700002F068FC01F020F89620254908803AE046
:1015800021480078012807D122A002F0D5FE00F002
:10159000ABFFFFF7CBFB2EE01B480078022806D1FB
:1015A00001211A4802F04EFC02F04AF823E01648E6
:1015B0000078032808D10021144802F043FC01F010
:1015C00077F8FFF7B3FB16E00F480078042807D13F
:1015D000FFF772FF13480188134801F053FF0AE038
:1015E00009480078052806D1FFF766FF0F480188F3
:1015F0000F4801F025FE00235A1E19460D480068C9
:1016000003F0EAFEAFE700005D0000200044004068
:1016100038000020B5A5C8A6BCC6CAB1BDE7C3E660
:101620000A0D00003A0000203C0B00203C00002086
:101630003C1300201C00002001460878A12813DB81
:101640000878A92810DC4878A1280DDB4878A13853
:101650000A78A13AC2EB021303EB421200EB4200FC
:1016600000EB4000C00070470878B02815DB087810
:10167000F72812DC4878A1280FDB4878A1380A78CF
:10168000B03AC2EB021303EB421200EB420000F24D
:101690004E3000EB4000C000E5E74FF0FF30E2E7DE
:1016A00001460878A12813DB0878A92810DC4878BF
:1016B000A1280DDB4878A1380A78A13AC2EB0213C1
:1016C00003EB421200EB42000F4A02EB401070475E
:1016D0000878B02815DB0878F72812DC4878A128AC
:1016E0000FDB4878A1380A78B03AC2EB021303EB5B
:1016F000421200EB420000F24E30034A02EB40106F
:10170000E5E74FF0FF30E2E7D0C902000146087874
:10171000A12815DB0878A92812DC4878A1280FDB5E
:101720004878A1380A78A13AC2EB021303EB4212BF
:1017300000EB420000EBC000104A02EBC000704713
:101740000878B02817DB0878F72814DC4878A12837
:1017500011DB4878A1380A78B03AC2EB021303EBE8
:10176000421200EB420000F24E3000EBC000034A90
:1017700002EBC000E3E74FF0FF30E0E790810600A6
:1017800001460878A12813DB0878A92810DC4878DE
:10179000A1280DDB4878A1380A78A13AC2EB0213E0
:1017A00003EB421200EB42000F4A02EBC0107047FD
:1017B0000878B02815DB0878F72812DC4878A128CB
:1017C0000FDB4878A1380A78B03AC2EB021303EB7A
:1017D000421200EB420000F24E30034A02EBC0100E
:1017E000E5E74FF0FF30E2E700DF0E0002465078F9
:1017F000137840EA03214AF6A12081420CDB4AF625
:10180000FE20814208DCA1F52A40A13800EB40000F
:101810000B4B03EB800070474AF6A13081420CDB92
:101820004AF6C030814208DCA1F52B40423800EB7B
:101830004000034B03EB8000EDE74FF0FF30EAE799
:1018400090D71D0002465078137840EA03214AF6EB
:10185000A12081420ADB4AF6FE20814206DCA1F586
:101860002A40A1380A4B03EB001070474AF6A1301A
:1018700081420ADB4AF6C030814206DCA1F52B40EA
:101880004238034B03EB0010EFE74FF0FF30ECE77B
:1018900090D71D0070B505460C464FF0FF36062C5C
:1018A00022D2DFE804F003080D12171C2846FFF7C8
:1018B000C3FE06461BE02846FFF7F2FE064616E08A
:1018C0002846FFF723FF064611E02846FFF758FF9A
:1018D00006460CE02846FFF7B5FF064607E0284617
:1018E000FFF784FF064602E04FF0FF3600BF00BF5F
:1018F000304670BD30B500228B071C0F0F2303FA52
:1019000004F20B4B8C1053F824309343084C8D1089
:1019100044F8253023468C1053F824308C07240FCC
:1019200000FA04F42343024C8D1044F8253030BDF6
:10193000080001402DE9F041024600250026002064
:1019400000230024002791F803C00CF00F0591F844
:1019500003C00CF0100CBCF1000F03D091F802C0D2
:101960004CEA050591F800C0BCF1000F31D01468B5
:1019700000202BE04FF0010C0CFA00F3B1F800C08E
:101980000CEA03069E4220D183004FF00F0C0CFAA4
:1019900003F7BC4305FA03FC4CEA040491F803C0C6
:1019A000BCF1280F06D14FF0010C0CFA00FCC2F874
:1019B00014C00AE091F803C0BCF1480F05D14FF004
:1019C000010C0CFA00FCC2F810C0401C0828D1D34E
:1019D0001460B1F800C0BCF1FF0F34DD5468002082
:1019E0002EE000F1080C4FF0010808FA0CF3B1F8F2
:1019F00000C00CEA03069E4221D183004FF00F0C79
:101A00000CFA03F7BC4305FA03FC4CEA040491F812
:101A100003C0BCF1280F05D100F1080C08FA0CF83E
:101A2000C2F8148091F803C0BCF1480F07D100F14F
:101A3000080C4FF0010808FA0CF8C2F81080401C9E
:101A40000828CED35460BDE8F0810000F0B50A4606
:101A5000002300240021002500F00046B6F1004FCD
:101A600002D11D4EF16901E01B4E7168C0F30345C0
:101A700083B200F44016B6F5401F08D121F0706122
:101A8000154E766826F07066134F7E6012E000F403
:101A90008016B6F5801F06D1032606FA05F4A14389
:101AA00041F0706106E0460D360103FA06F6B143D7
:101AB00041F0706122B1460D360103FA06F631435A
:101AC00000F00046B6F1004F02D1034EF16101E093
:101AD000014E7160F0BD0000000001400246002090
:101AE00093680B400BB1012000E00020704741617A
:101AF0007047016170470AB1016100E041617047C0
:101B000008B510208DF8030003208DF80200402056
:101B1000ADF8000069460248FFF70CFF08BD000061
:101B2000000C01402DE9F04104460E4615464FF0E9
:101B3000000800270A2D24D2DFE805F005080B0E67
:101B40001114171A1D204FF018081BE04FF0200841
:101B500018E04FF0480815E04FF0800812E04FF011
:101B600010080FE04FF00C080CE04FF00C0809E0F3
:101B70004FF0100806E04FF0300803E04FF0400847
:101B800000E000BF00BF40211048FFF7B0FF032076
:101B900001F086FAC4F3074001F082FAC4F307208B
:101BA00001F07EFAE0B201F07BFA06E0002001F0DD
:101BB00077FA39467A1CD7B270544745F6DB402194
:101BC0000248FFF796FFBDE8F0810000000C0140DD
:101BD00002A002F0B1FB00BFFEE7000048617264A2
:101BE0004661756C74206572726F720D0A00000098
:101BF0002DE9F0410746884614461D4600262B462F
:101C000022464146384600F08DF82C2000F088FB33
:101C100000BF04E00548006800F0AAFB761C04FB46
:101C200005F0B042F6D8BDE8F08100006800002061
:101C30002DE9F84F04460D4616461F464FF0000AA0
:101C4000D046C346A1460095301B00F4004010B1B9
:101C50004FF0FF3801E04FF00108781B00F400401E
:101C600010B14FF0FF3B01E04FF0010BB4420AD13D
:101C700006E02946204600F089F805EB0B0085B206
:101C8000BD42F6D122E0BD420AD106E029462046F7
:101C900000F07CF804EB080084B2B442F6D115E001
:101CA000781B311B90FBF1F00FFA80FA0CE029460B
:101CB000204600F06BF804EB080084B2A4EB0901A5
:101CC00000980AFB010085B2B442F0D1BDE8F88F5C
:101CD0002DE9F04104460D4616461F46DDF81880F2
:101CE000A01982B22B4629462046FFF7A1FFE91929
:101CF0008BB2A1198AB2A11988B22946FFF798FFC1
:101D0000EA1993B2EA1991B2A21990B22246FFF7EA
:101D10008FFFE81981B22B4622462046FFF788FF45
:101D2000BDE8F0812DE9F04704460D4616461F46F2
:101D30004FF00008C146A0191FFA80F8E8191FFAF1
:101D400080F92A2000F0ECFA200A00F0FDFAE0B257
:101D500000F0FAFA4FEA182000F0F6FA08F0FF0057
:101D600000F0F2FA2B2000F0DBFA280A00F0ECFA7F
:101D7000E8B200F0E9FA4FEA192000F0E5FA09F0BC
:101D8000FF0000F0E1FABDE8F087000070B50446FE
:101D90000D462A2000F0C4FA200A00F0D5FAE0B27D
:101DA00000F0D2FA200A00F0CFFAE0B200F0CCFA4C
:101DB0002B2000F0B5FA280A00F0C6FAE8B200F0CD
:101DC000C3FA280A00F0C0FAE8B200F0BDFA2C20ED
:101DD00000F0A6FA0248006800F0CAFA70BD0000E0
:101DE000640000202DE9F04FA3B08046894692465A
:101DF0001C460020229000260025002783462190C3
:101E0000802101A8FEF7F5F921465046FFF742FD73
:101E10002290224601A92298FFF784FE062C22D2A6
:101E2000DFE804F003080D12171C0C2021904FF07E
:101E3000020B18E0102021904FF0020B13E0182045
:101E400021904FF0030B0EE0202021904FF0040B67
:101E500009E0102021904FF0010B04E00C202190AC
:101E60004FF0010B00BF00BF00261EE0002518E068
:101E7000002712E006FB0B5001A9085CB84000F0F7
:101E8000800040B109EB060291B208EBC5023A446A
:101E900090B2FFF77BFF781CC7B2082FEADB681C03
:101EA000C5B25D45E4DB701CC6B221988642DDDB1D
:101EB00023B0BDE8F08F2DE9F04F93B080468946FE
:101EC00092461D46002012900026002400278346DB
:101ED0001190402101A8FEF78CF929465046FEF7E3
:101EE0002FFA12902A4601A91298FFF71BFE062D21
:101EF00006D0072D09D0082D0CD0092D14D10EE0E5
:101F00000C2011904FF0010B0FE0102011904FF0BA
:101F1000010B0AE0182011904FF0020B05E0202081
:101F200011904FF0020B00E000BF00BF00261EE042
:101F3000002418E0002712E006FB0B4001A9085C12
:101F4000B84000F0800040B109EB060291B208EB06
:101F5000C4023A4490B2FFF719FF781CC7B2082FA9
:101F6000EADB601CC4B25C45E4DB701CC6B21198AD
:101F70008642DDDB13B0BDE8F08F00002DE9FC5F89
:101F800081468A4614461D460026B346002001902D
:101F900000904F46D046062D22D2DFE805F0030818
:101FA0000D12171C4FF00C0B0C20019018E04FF095
:101FB000100B1020019013E04FF0180B1820019027
:101FC0000EE04FF0200B2020019009E04FF0080BAD
:101FD0001020019004E04FF0060B0C20019000BF90
:101FE00000BF22E03046711C8EB2205C8DF80000EC
:101FF0003046711C8EB2205C8DF801002B466A467B
:1020000041463846FFF7EEFE07EB0B0087B20A4861
:102010000088874204DB0027019840441FFA80F8BB
:1020200006480088804500DB02E0A05D0028D9D189
:1020300000BFBDE8FC9F000060000020620000209F
:102040002DE9F84F07468846144699464FF0000A96
:10205000D346002000903D464646B9F1060F09D010
:10206000B9F1070F0BD0B9F1080F0DD0B9F1090F75
:1020700014D10EE00C2000904FF0060B0FE0102062
:1020800000904FF0080B0AE0182000904FF00C0B66
:1020900005E0202000904FF0100B00E000BF00BFD3
:1020A00019E05046411C1FFA81FA225C4B4631462A
:1020B0002846FFF700FF05EB0B0085B209480088B2
:1020C000854203DB00250098304486B2064800882C
:1020D000864200DB03E014F80A000028E1D100BFCB
:1020E000BDE8F88F600000206200002008B50121E3
:1020F000042000F07DFE10208DF8030003208DF8F1
:1021000002000820ADF8000069461748FFF712FCEE
:102110000220ADF8000069461348FFF70BFC1020C1
:10212000ADF8000069461048FFF704FC0120ADF847
:10213000000069460C48FFF7FDFB08210A48FFF73D
:10214000D8FC01210848FFF7D4FC322002F0F2FA53
:1021500001210548FFF7CBFC322002F0EBFA012108
:102160000148FFF7C6FC08BD0008014010B5FFF7A5
:10217000BDFF112000F0D4F83C2002F0DBFAF22081
:1021800000F0CEF8182000F0DFF8A32000F0DCF813
:10219000122000F0D9F8022000F0D6F8B22000F0AA
:1021A000D3F8122000F0D0F8FF2000F0CDF8102076
:1021B00000F0CAF8002000F0C7F8F82000F0C4F8DA
:1021C000212000F0C1F8042000F0BEF8132000F038
:1021D000A7F8362000F0A4F8082000F0B5F8B420E5
:1021E00000F09EF8022000F0AFF8B62000F098F85A
:1021F000022000F0A9F8222000F0A6F8C12000F08B
:102200008FF8412000F0A0F8C52000F089F80020E8
:1022100000F09AF8182000F097F83A2000F080F8C3
:10222000662000F091F8322002F084FAE02000F0FD
:1022300077F80F2000F088F81F2000F085F81C20A8
:1022400000F082F80C2000F07FF80F2000F07CF8FE
:10225000082000F079F8482000F076F8982000F087
:1022600073F8372000F070F80A2000F06DF81320A2
:1022700000F06AF8042000F067F8112000F064F81C
:102280000D2000F061F8002000F05EF8E12000F081
:1022900047F80F2000F058F8322000F055F82E20B3
:1022A00000F052F80B2000F04FF80D2000F04CF831
:1022B000052000F049F8472000F046F8752000F0AE
:1022C00043F8372000F040F8062000F03DF81020D9
:1022D00000F03AF8032000F037F8242000F034F83A
:1022E000202000F031F8002000F02EF8112000F03E
:1022F00017F8782002F01EFA292000F011F82C209F
:1023000000F00EF8044803880448028800210846BB
:10231000FFF76EFC10BD000062000020600000208E
:1023200010B5044602210748FFF7E1FB10210548DC
:10233000FFF7DDFB204600F0B3FE02210148FFF766
:10234000D8FB10BD0008014010B504460221074823
:10235000FFF7CDFB10210548FFF7CBFB204600F02F
:102360009FFE02210148FFF7C4FB10BD0008014099
:1023700010B5044602210B48FFF7B9FB10210948AC
:10238000FFF7B7FBC4F3074000F08AFEC4F3072051
:1023900000F086FEE0B200F083FE02210148FFF764
:1023A000A8FB10BD000801400CE0FF24002000F055
:1023B00035F80446FF2C02D02046FEF779FA322089
:1023C00002F096FEF1E7000008B50121082000F0B8
:1023D0000FFD48208DF803000120ADF8000069468C
:1023E0000D48FFF7A7FA0220ADF8000069460A4839
:1023F000FFF7A0FA4FF48070ADF800006946064878
:10240000FFF798FA4FF40070ADF8000069460248F3
:10241000FFF790FA08BD0000000C014010B504461B
:10242000012C01D12E4908702D48007801283AD19D
:1024300001212C48FFF752FB88B102212948FFF700
:102440004DFB60B14FF480712648FFF747FB30B178
:102450004FF400712348FFF741FB00283DD10A20CB
:1024600002F046FE00201E49087001211D48FFF7BA
:1024700035FB08B9002010BD02211A48FFF72EFBDA
:1024800008B90120F7E74FF480711648FFF726FBE3
:1024900008B90220EFE74FF400711248FFF71EFB66
:1024A000D8B90320E7E701210E48FFF717FB012801
:1024B00013D102210B48FFF711FB01280DD10102B6
:1024C0000848FFF70BFB012807D141020548FFF739
:1024D00005FB012801D102490870FF20CBE700006D
:1024E00054000020000C014008B54FF4F0734FF485
:1024F000A07250210020FFF77BFB03231DA2502177
:102500006420FFF73BFD02231DA28C211420FFF75E
:1025100035FD02231DA28C218D20FFF72FFDFF200A
:102520001E239622892100908220FFF7D1FBFF20F5
:1025300064234FF48C72B42100901420FFF7C8FB81
:10254000022314A2C8211E20FFF718FD022315A2A2
:10255000F0211E20FFF712FD1648416B28308847F6
:102560001448016F643088471248016A1430884764
:1025700008BD0000B5A5C8A6B2E2CAD4000000009C
:10258000D7B4CCACBFF2A3BA00000000BFD5CFD007
:1025900000000000B1BEB4CEB2E2CAD4CAFDBEDDB6
:1025A000A3BA0000C9CFB4CEB2E2CAD4CAFDBEDD20
:1025B000A3BA0000601B002010B54FF4EB734FF47A
:1025C000A0720A210020FFF713FB642002F090FDA7
:1025D000032324A250215820FFF7D0FC092323A273
:1025E0005021B820FFF72CFD022321A28C2164206A
:1025F000FFF7C4FC022322A2B4216420FFF7BEFC33
:10260000022323A2DC216420FFF7B8FC24480078D1
:10261000012806D1022323A28C214620FFF7AEFC1D
:1026200014E01F480078022806D102231DA2B4211D
:102630004620FFF7A3FC09E019480078032805D1DC
:10264000022318A2DC214620FFF798FC1648816C73
:102650003C3088471448C16D503088471248C168E3
:10266000884710BDBCC6CAB1C6F70000362E300080
:10267000A2F1A1A2B5A5C8A6B2E2CAD4000000008A
:10268000A2F2A1A2B6E0B4D3BBFAB2E2CAD400006F
:10269000A2F3A1A2C8C8C3F4B4F2D3A10000000001
:1026A0005C000020A1F40000601B002000BFFEE7DA
:1026B00038B5BE25FEF700FF01F068FA4FF4F0735D
:1026C0004FF4A07250210020FFF792FAFF201E2342
:1026D0009622892100908220FFF7FAFA03233FA275
:1026E00050216420FFF74AFC02233FA28C211420D2
:1026F000FFF744FC02233FA28C218D20FFF73EFC14
:10270000FF2000903D48007800EB8000C3004FF4AC
:102710008C72B4211420FFF7DBFA00244DE054B989
:1027200004EB840005EBC00081B2022334A219201F
:10273000FFF724FC3FE0012C0AD104EB840005EBF9
:10274000C00081B2022332A21920FFF717FC32E049
:10275000022C0AD104EB840005EBC00081B20223F5
:102760002FA21920FFF70AFC25E0032C0AD104EB65
:10277000840005EBC00081B202232DA21920FFF7CF
:10278000FDFB18E0042C0AD104EB840005EBC0002B
:1027900081B202232AA21920FFF7F0FB0BE0052CDF
:1027A00009D104EB840005EBC00081B2022328A20A
:1027B0001920FFF7E3FB601CC4B210480078844284
:1027C000ADDB2748416B283088472548016F6430CE
:1027D00088472348016A1430884738BDB6E0B4D32F
:1027E000BBFAB2E2CAD40000D7B4CCACBFF2A3BAF1
:1027F00000000000BFD5CFD0000000003500002051
:10280000B2E2CAD4CAFDBEDDD2BBA3BA000000004A
:10281000B2E2CAD4CAFDBEDDB6FEA3BA0000000013
:10282000B2E2CAD4CAFDBEDDC8FDA3BA00000000F2
:10283000B2E2CAD4CAFDBEDDCBC4A3BA0000000018
:10284000B2E2CAD4CAFDBEDDCEE5A3BA00000000E4
:10285000B2E2CAD4CAFDBEDDC1F9A3BA00000000CD
:10286000601B00207047000070B5002100230F227C
:10287000C47804B3154C246804F4E064C4F5E0643F
:10288000210AC1F10403CA40447804FA03F18478B0
:102890001440214309010E4C0678A155047804F038
:1028A0001F050124AC4005786D11AD0005F1E02550
:1028B000C5F8004109E0047804F01F050124AC408C
:1028C000044D0678761145F8264070BD0CED00E009
:1028D00000E400E080E100E002490143024A1160A7
:1028E000704700000000FA050CED00E02DE9FF47FD
:1028F0000746884687480088404503DA86480088AE
:10290000404501DBBDE8FF874FF4A0731A467821EC
:102910000020FFF76DF94FF0000900244FF0780A0E
:10292000C825002002900390009001907B48007819
:10293000052875D1774800887949088067E0022327
:1029400078A251461420FFF74DFA72480288521CB3
:1029500075A1684601F000FD08236A4651462C2007
:10296000FFF76EFB022372A251465020FFF706FBD1
:102970006848008837F8106000240FE00A2096FBB2
:10298000F0F100FB11603030C2B22046611CCCB2C5
:1029900002A90A540A2096FBF0F086B2002EEDD16F
:1029A000D2255C48008837F81000642808DA08232C
:1029B000302251462846FFF77EFA05F10C0085B219
:1029C00016E0601EC4B2012C08D108232E22514605
:1029D0002846FFF770FA05F10C0085B202A8025DE7
:1029E000082351462846FFF766FA05F10C0085B228
:1029F000002CE6D147480088401C4649088009F170
:102A0000010000F0FF090AF11E001FFA80FAB9F177
:102A1000080F7DDA3F480088404590DB78E0FFE70B
:102A20003E480078042873D13B4800883C49088020
:102A300067E002233BA251461420FFF7D3F9364842
:102A40000288521C38A1684601F086FC08236A46B9
:102A500051462C20FFF7F4FA022335A251465020AC
:102A6000FFF78CFA2C48008837F8106000240FE03C
:102A70000A2096FBF0F100FB11603030C2B2204614
:102A8000611CCCB202A90A540A2096FBF0F086B26F
:102A9000002EEDD1D2252048008837F81000642898
:102AA00008DA0823302251462846FFF704FA05F1D8
:102AB0000C0085B216E0601EC4B2012C08D10823B8
:102AC0002E2251462846FFF7F6F905F10C0085B293
:102AD00002A8025D082351462846FFF7ECF905F1EC
:102AE0000C0085B2002CE6D10B480088401C0A4936
:102AF000088009F1010000F0FF090AF11E001FFA29
:102B000080FAB9F1080F03DA03480088404590DBEA
:102B100000BFF7E6580000205A0000205D000020AA
:102B200056000020B5DA0000252D336400000000B7
:102B3000D7E9B2E2CAD4CAFDBEDDA3BA00000000E4
:102B40002DE9FF4707468A464FF0000800244FF062
:102B50007809C825002002900390009001908948D0
:102B6000008808B9BDE8FF874FF4A0731A467821A2
:102B70000020FFF73DF88448007805287ED1814881
:102B80000088082805DD7F48008809387D490880CD
:102B900002E000207B4908807A4800887B49088051
:102BA00067E002237AA249461420FFF71BF9774811
:102BB0000288521C77A1684601F0CEFB08236A46C2
:102BC00049462C20FFF73CFA022374A249465020C4
:102BD000FFF7D4F96D48008837F8106000240FE043
:102BE0000A2096FBF0F100FB11603030C2B22046A3
:102BF000611CCCB202A90A540A2096FBF0F086B2FE
:102C0000002EEDD1D2256148008837F810006428E5
:102C100008DA0823302249462846FFF74CF905F127
:102C20000C0085B216E0601EC4B2012C08D1082346
:102C30002E2249462846FFF73EF905F10C0085B2E1
:102C400002A8025D082349462846FFF734F905F13A
:102C50000C0085B2002CE6D14C480088401C4B4942
:102C6000088008F1010000F0FF0809F11E001FFABA
:102C700080F9B8F1080F94DB81E0FFE74248007863
:102C800004287CD13F480088082805DD3D4800889D
:102C900009383C49088002E000203A490880394858
:102CA00000884249088067E0022339A2494614207F
:102CB000FFF798F83D480288521C36A1684601F09B
:102CC0004BFB08236A4649462C20FFF7B9F902233B
:102CD00032A249465020FFF751F93448008837F8AE
:102CE000106000240FE00A2096FBF0F100FB116059
:102CF0003030C2B22046611CCCB202A90A540A206C
:102D000096FBF0F086B2002EEDD1D2252748008840
:102D100037F81000642808DA08233022494628468C
:102D2000FFF7C9F805F10C0085B216E0601EC4B2C9
:102D3000012C08D108232E2249462846FFF7BBF86C
:102D400005F10C0085B202A8025D08234946284619
:102D5000FFF7B1F805F10C0085B2002CE6D113485D
:102D60000088401C1149088008F1010000F0FF08AC
:102D700009F11E001FFA80F9B8F1080F94DB00BFBB
:102D8000F0E60000560000205D0000205800002002
:102D9000B5DA0000252D336400000000D7E9B2E267
:102DA000CAD4CAFDBEDDA3BA000000005A0000204C
:102DB00029B1064AD2690243044BDA6104E0034AAE
:102DC000D2698243014BDA61704700000010024073
:102DD00029B1064A12690243044B1A6104E0034A0E
:102DE00012698243014B1A617047000000100240D3
:102DF00029B1064A92690243044B9A6104E0034AEE
:102E000092698243014B9A617047000000100240B2
:102E100029B1064AD2680243044BDA6004E0034A4F
:102E2000D2688243014BDA60704700000010024014
:102E300030B500210022002400232D4D6D6805F0DF
:102E40000C0121B1042905D0082923D105E0294D21
:102E5000056022E0274D05601FE0254D6D6805F4F3
:102E60007012234D6D6805F48034022505EB924203
:102E70001CB9214D554305600BE01D4D6D6805F4EF
:102E800000351DB11C4D5543056002E0194D5543F9
:102E9000056002E0174D056000BF00BF144D6D686E
:102EA00005F0F0010909154D6B5C0568DD404560D2
:102EB0000F4D6D6805F4E061090A104D6B5C4568C3
:102EC000DD4085600A4D6D6805F46051C90A0B4DFF
:102ED0006B5C4568DD40C560054D6D6805F440419B
:102EE000890B074D6B5CC568B5FBF3F5056130BD1B
:102EF0000010024000127A0000093D00000000208E
:102F00001000002000B587B0142102A8FDF771F968
:102F100000F03CFE00200F4908700FA211A102A88A
:102F200001F01AFA1E23962289218220FEF760FE04
:102F3000FF201E239622892100908220FEF7C8FEE2
:102F4000022302AA8C218D20FFF718F8FEF7FCFA65
:102F500007B000BD34000020D7BCB1B8BCC6CAB1B0
:102F6000000000002573000021B1028842F04002F9
:102F7000028004E002884FF6BF731A400280704757
:102F800000B585B00020ADF80C000120ADF80800B8
:102F90000220ADF806000020ADF81000ADF80400E6
:102FA000ADF80000ADF80E004FF48270ADF80200ED
:102FB0004FF40070ADF80A006946044800F052F87A
:102FC00001210248FFF7D0FF05B000BD00300140ED
:102FD00008B501211420FFF70BFF01210803FFF7BB
:102FE00007FF18208DF803002020ADF80000032013
:102FF0008DF8020069461048FEF79CFC8020ADF871
:10300000000069460C48FEF795FC04208DF803008B
:103010004020ADF8000069460748FEF78BFC102001
:10302000ADF800008DF8030003208DF8020069461A
:103030000148FEF77FFC08BD000801400246002061
:1030400013890B400BB1012000E0002070470146BE
:10305000888970478181704710B5FFF7B9FFFFF786
:103060008FFF10BD10B50022028802F441520B8878
:103070004C8823438C882343CC8823430C892343E7
:103080004C8923438C892343CC8923431A430280F0
:10309000838B4FF2FF74234083830B8A038210BD1E
:1030A00010B504464FF48050194908600AE01849E9
:1030B0000868411E164A116020B9002000F02CF863
:1030C000C0B210BD02211348FFF7B8FF0028EED0B0
:1030D00021461048FFF7BEFF4FF480500C490860AE
:1030E0000AE00B490868411E094A116020B9012015
:1030F00000F012F8C0B2E4E701210648FFF79EFF96
:103100000028EED00348FFF7A2FFC0B2D9E70000C5
:103110006C0000200030014010B50446214602A09A
:1031200001F00AF9002010BD3C3C2D464C415348AB
:103130002D4552524F522D3E3E2053504920B5C886
:10314000B4FDB3ACCAB121206572726F72436F6473
:1031500065203D2025640A0010B500F001F810BD7F
:103160000CB50020019000903348006840F4803096
:103170003149086000BF3048006800F4003000901A
:103180000198401C0190009818B90198B0F5A06F03
:10319000F1D12948006800F4003010B101200090FE
:1031A00001E0002000900098012843D123480068E6
:1031B00040F01000214908600846006820F0030034
:1031C00008600846006840F0020008601A4840683D
:1031D000194948600846406848600846406840F41D
:1031E000806048600846406820F47C1048600846CB
:1031F000406840F4E81048600846006840F080707D
:10320000086000BF0C48006800F000700028F9D08A
:103210000948406820F003000749486008464068B4
:1032200040F00200486000BF0348406800F00C0016
:103230000828F9D10CBD0000001002400020024017
:103240002DE9F04385B006460F464FF4F0734FF476
:10325000A07250210020FEF7CBFC00244FF078092B
:10326000C825002003900490019002904E490880E8
:103270004E49088002234EA250216E20FEF77EFEAA
:1032800077B9FF203223F022C82100903C20FEF7BE
:103290001FFD02234AA2D2214C20FEF76FFE6EE0F2
:1032A00065E002234BA249461420FEF79BFD3E48F1
:1032B0000288521C48A101A801F04EF8082301AA77
:1032C00049462C20FEF7BCFE022345A24946502069
:1032D000FEF754FE3448008836F81080002410E0D1
:1032E0000A2098FBF0F100FB11803030C2B220467A
:1032F000611CCCB203A90A540A2098FBF0F01FFA13
:1033000080F8B8F1000FEBD1D2252748008836F8B5
:103310001000642808DA0823302249462846FEF7C0
:10332000CAFD05F10C0085B216E0601EC4B2012C86
:1033300008D108232E2249462846FEF7BCFD05F198
:103340000C0085B203A8025D082349462846FEF713
:10335000B2FD05F10C0085B2002CE6D112480088C0
:10336000401C1149088009F11E001FFA80F90E481F
:103370000088082803DA0C480088B84291DB1C4812
:10338000816C3C3088471A48C16D503088471848D6
:10339000D0F88410783088471548016A143088477F
:1033A00005B0BDE8F0830000580000205600002062
:1033B000BCD3CBD9B2E2CAD4CAFDBEDD0000000046
:1033C000BCD3CBD9B2E2CAD4CAFDBEDDCEAABFD52A
:1033D000A3A10000B5DA0000252D33640000000031
:1033E000D7E9B2E2CAD4CAFDBEDDA3BA000000002C
:1033F000601B00202DE9F04186B00646884637461E
:10340000142101A8FCF7F5FE00240FE00A2097FB29
:10341000F0F100FB11703030C2B22046611CCCB21A
:1034200001A90A540A2097FBF0F087B2002FEDD1D2
:10343000D225642E08DA0823302241462846FEF7BA
:103440003AFD05F10C0085B216E0601EC4B2012CF5
:1034500008D108232E2241462846FEF72CFD05F10F
:103460000C0085B201A8025D082341462846FEF7FC
:1034700022FD05F10C0085B2002CE6D106B0BDE8B6
:10348000F08100002DE9F04786B006460F464FF068
:10349000000900244FF0780AC82500200490059008
:1034A000029003904FF4F0734FF4A0725021FEF796
:1034B0009FFB00204F4908804F49088002234FA2FC
:1034C00050216E20FEF75AFD77B9FF203223F022FB
:1034D000C82100903C20FEF7FBFB02234BA2D22127
:1034E0004C20FEF74BFD71E069E002234CA25146EF
:1034F0001420FEF777FC3F480288521C49A102A81D
:1035000000F02AFF082302AA51462C20FEF798FD5E
:10351000022346A251465020FEF730FD3548008870
:1035200036F81080002410E00A2098FBF0F100FB30
:1035300011803030C2B22046611CCCB204A90A54BA
:103540000A2098FBF0F01FFA80F8B8F1000FEBD1D9
:10355000D2252848008836F81000642808DA0823A5
:10356000302251462846FEF7A6FC05F10C0085B234
:1035700016E0601EC4B2012C08D108232E22514649
:103580002846FEF798FC05F10C0085B204A8025D00
:10359000082351462846FEF78EFC05F10C0085B243
:1035A000002CE6D113480088401C1249088009F11C
:1035B000010000F0FF090AF11E001FFA80FAB9F1BC
:1035C000080F03DA0B480088B8428EDB1B48816C79
:1035D0003C3088471948C16D503088471748D0F8AB
:1035E0008410783088471548016A1430884706B03F
:1035F000BDE8F0875A00002056000020B5A5C8A6F7
:10360000B2E2CAD4CAFDBEDD00000000B5A5C8A65E
:10361000B2E2CAD4CAFDBEDDCEAABFD5A3A10000C6
:10362000B5DA0000252D336400000000D7E9B2E2CE
:10363000CAD4CAFDBEDDA3BA00000000601B002092
:1036400010B500200F4908704FF4F0734FF4A072CA
:1036500000210846FEF7CCFA02230BA264211420B5
:10366000FEF78CFC08230CA26421BE20FEF7E8FCC8
:103670000B48C16888470A48D0F898108C308847B2
:1036800010BD000035000020B4AEBFDACDA8D1B621
:10369000BCECB2E2D6D000002E2E2E2E2E2E2E0006
:1036A000601B0020042808D14FF0E021096941F097
:1036B00004014FF0E022116107E04FF0E0210969B9
:1036C00021F004014FF0E0221161704710B502F0C3
:1036D000B1F8012801D001F045FE10BD10B5134826
:1036E000006840F001001149086008464068104930
:1036F00008400E494860084600680E4908400B49DA
:1037000008600846006820F4802008600846406889
:1037100020F4FE0048604FF41F008860FFF71CFD96
:103720004FF000600449086010BD00000010024026
:103730000000FFF8FFFFF6FE08ED00E038B50221BB
:10374000144800F070F920B30221124800F05CF92F
:1037500011480078401C104908700020009008466D
:103760000078022815D10020087069460B480068CF
:1037700001F09CFF04464CB1009838B14FF08050E6
:1037800007490860BFF34F8FBFF36F8F01200549D2
:10379000087038BD002C01404E00002014000020AD
:1037A00004ED00E04B00002038B50121154800F081
:1037B0003AF928B30121134800F026F9124800888D
:1037C000401C11490880084600880A2818DB0020A0
:1037D000009069460D48006801F068FF04464CB14E
:1037E000009838B14FF0805009490860BFF34F8FFF
:1037F000BFF36F8F0120074908700020024908803D
:1038000038BD0000002C01404800002018000020B6
:1038100004ED00E04A00002010B50121880700F007
:1038200002F9B0B10121880700F0EEF809480078EC
:10383000401C0849087008460078052809DBFDF798
:1038400083FE00214FF0804000F0E1F800200149A4
:10385000087010BD4F00002010B501210B4800F08A
:10386000E2F888B10121094800F0CEF80848006864
:10387000401C07490860084600684CF250318842F5
:1038800002D300200249086010BD0000000400407F
:103890004400002010B50121044800F0C4F818B11C
:1038A0000121024800F0B0F810BD000000080040FF
:1038B00030B585B005460C460121C802FFF798FADD
:1038C0004FF48070ADF8000004208DF80300032051
:1038D0008DF8020069461648FEF72CF80020ADF876
:1038E0000A00ADF80E00ADF80C50ADF808408DF8A8
:1038F000100002A90F4800F0B3F819208DF8040059
:1039000003208DF8050000208DF8060001208DF8B9
:10391000070001A8FEF7A8FF01221146054800F0A4
:1039200093F80021034800F072F805B030BD0000A4
:1039300000080140002C01407FB505460C460121DE
:103940000846FFF735FA0020ADF80600ADF80A008A
:10395000ADF80850ADF8044001A94FF0804000F0E8
:103960007FF81C208DF8000003208DF80100002056
:103970008DF8020001208DF803006846FEF774FF01
:103980000121880700F040F801221146900700F05D
:103990005BF800214FF0804000F039F87FBD000057
:1039A0007FB505460C4601210220FFF701FA0020F1
:1039B000ADF80600ADF80A00ADF80850ADF80440C7
:1039C00001A9104800F04CF801210E4800F01CF845
:1039D000012211460B4800F037F80021094800F099
:1039E00016F81D208DF8000002208DF8010000203F
:1039F0008DF8020001208DF803006846FEF734FFC1
:103A00007FBD000000040040CA430282704721B11C
:103A1000028842F00102028004E002884FF6FE7341
:103A20001A400280704730B502460020002300246F
:103A3000158A05EA0103958905EA010413B10CB161
:103A4000012000E0002030BD1AB183890B4383813F
:103A500002E083898B438381704781847047000033
:103A6000002202881D4B98420ED01D4B98420BD06D
:103A7000B0F1804F08D01B4B984205D01A4B9842AA
:103A800002D01A4B984204D14FF68F731A404B88DC
:103A90001A43174B984207D0164B984204D04FF662
:103AA000FF431A40CB881A4302808B8883850B889A
:103AB00003850A4B98420BD0094B984208D00E4B15
:103AC000984205D00D4B984202D00D4B984201D13F
:103AD0000B7A03860123838270470000002C01408B
:103AE000003401400004004000080040000C004089
:103AF000001000400014004000400140004401401C
:103B0000004801400D490978012909D10C490A886A
:103B10000988491C0A4B19800A4921F812000CE057
:103B200006490978032908D107490A880988491CE8
:103B3000054B1980054921F8120070475D000020EF
:103B40003A0000203C0B00203C0000203C130020E9
:103B500010B501210348FFF757FF00210148FFF787
:103B600056FF10BD002C014010B50020054908800B
:103B700000210548FFF771FF01210348FFF747FFC8
:103B800010BD000048000020002C014010B50121AC
:103B90000348FFF739FF00210148FFF738FF10BD48
:103BA0000004004010B500210348FFF756FF012133
:103BB0000148FFF72CFF10BD0004004008B50024A9
:103BC000C8E000235A1E19466348006801F004FC4F
:103BD000624800F04DFAC4B261480078032803D16E
:103BE000204600F0B3FAB1E05D48007802286ED1BB
:103BF0005C48007806286ADC5B480078012828D1F8
:103C00000020009059A000F097FB04F00F005B49E2
:103C10000870FFF79DFF022359A25D480188142018
:103C2000FEF7ACF9554800783030C0B20090082358
:103C30006A4657480188B420FEF702FA54480088C3
:103C400028305349088000204749087051490870BE
:103C50007CE050480078E8B904F0F000A02875D165
:103C600004F00F004549087000250BE04348007838
:103C700000F1B001394800F000FA322001F038FAC2
:103C8000681CC5B20A2DF1DB012042490870FFF71C
:103C90006BFF5BE03F480078012857D13748007838
:103CA000C030A04252D1002600200090FFF750FF04
:103CB0002C480078002812DD00250BE0364830F84B
:103CC00015002E490978884202D1012606E032E02B
:103CD000681CC5B2234800788542EFDB00BF36BBC5
:103CE000204807780078401C1E4908702348027855
:103CF0003846791ECFB2284921F81020022327A286
:103D0000234801881420FEF739F91C480078303028
:103D1000C0B2009008236A461D480188A020FEF723
:103D20008FF91B48008828301949088000BF0020FF
:103D3000184908700AE00B480078062806DD0223BF
:103D40001AA2134801881420FEF718F9012103482C
:103D500000F078F835E7000018000020004400402B
:103D60005D000020350000204A000020B4D3BBFADB
:103D7000C1ACBDD3B3ACCAB10D0A00003E000020F7
:103D8000B4D3BBFAC1ACBDD3CAA7B0DC00000000FD
:103D900038000020360000203C1B0020D2D1C1ACEE
:103DA000BDD3B4D3BBFAA3BA00000000B4D3BBFAAE
:103DB000C1ACBDD3CAFDC1BFD2D1C2FA0000000060
:103DC00038B540F22551104800F096F8D8B140F2CD
:103DD00025510D4800F027F800210B4800F032F87B
:103DE0000020009069460948006801F05FFC044625
:103DF0004CB1009838B14FF0805005490860BFF3CE
:103E00004F8FBFF36F8F38BD004400401800002073
:103E100004ED00E001F40072B2F5007F00D100BFB4
:103E2000CA430280704710B50022002340F66A148E
:103E3000A14200D100BF0A1201249440A3B2DC4386
:103E4000048010BD21B1828942F40052828104E0D5
:103E500082894DF6FF731A408281704710B504467F
:103E60002048844209D101218803FEF7D1FF0021B7
:103E70004FF48040FEF7CCFF32E01B48844209D16A
:103E800001214804FEF7A4FF00214FF40030FEF7A3
:103E90009FFF25E01548844209D101218804FEF7DF
:103EA00097FF00214FF48020FEF792FF18E01048A2
:103EB000844209D10121C804FEF78AFF00214FF492
:103EC0000020FEF785FF0BE00A48844208D101215B
:103ED0000805FEF77DFF00214FF48010FEF778FF04
:103EE00010BD000000380140004400400048004080
:103EF000004C00400050004070B5024600240023F2
:103F00000025002040F66A16B14200D100BFC1F37F
:103F1000421501F01F03012606FA03F3012D02D119
:103F20009689334006E0022D02D1168A334001E023
:103F3000968A33400C12012606FA04F4168834409F
:103F400013B10CB1012000E0002070BDF0B50346B4
:103F5000002400260025002040F66A17B94200D14F
:103F600000BF1846C1F3421401F01F06012707FAEB
:103F700006F5012C01D10C3004E0022C01D11030E7
:103F800000E014301AB107682F43076002E00768A9
:103F9000AF430760F0BD00002DE9F04786B005464D
:103FA0000E460024A24600BFA1460027B08900B1FA
:103FB00000BF2F462C8A4CF6FF700440F088044363
:103FC0002C82AC894EF6F3100440B0883189084346
:103FD000718908430443AC81AC8A4FF6FF4004402A
:103FE000B0890443AC8201A8FEF722FF1F48874234
:103FF00002D1DDF810A001E0DDF80CA0A88900F4E2
:10400000004040B10AEBCA0000EB0A1031684900D9
:10401000B0FBF1F807E00AEBCA0000EB0A103168C8
:104020008900B0FBF1F86420B8FBF0F0040120092E
:10403000642101FB1089A88900F4004040B13220BE
:1040400000EBC900B0FBF1F000F00700044308E00A
:10405000322000EB09106421B0FBF1F000F00F00FA
:1040600004432C8106B0BDE8F08700000038014011
:1040700001468888C0F308007047C1F308028280B7
:104080007047000010B529480078002839D1284829
:104090000078401E2649087008460078012801DA99
:1040A000032008702248007801280CD11E231A46EC
:1040B000B4214620FDF79CFD02231EA28C21462040
:1040C000FDF75CFF30E01A48007802280CD11E236F
:1040D0001A46DC214620FDF78BFD022315A2B421F0
:1040E0004620FDF74BFF1FE01E231A468C21462079
:1040F000FDF77EFD02230FA2DC214620FDF73EFFE7
:1041000012E00A480078042805D10B4801880B48C2
:10411000FEF716FD08E005480078052804D1084898
:1041200001880848FEF70CFD10BD00005D0000206E
:104130005C000020A1F400003A0000203C0B0020AD
:104140003C0000203C13002000BFFEE7F8B5044609
:1041500000250026002704F00F00002851DD04F0A0
:104160000F0006284DDC00BF0CE004F00F0053499F
:10417000534A127831F81210884201D1012705E024
:10418000701CC6B24E4800788642EEDB00BF97BB7B
:1041900004F0F00000EB80004A49096845184848DF
:1041A000007800EB8000C00000F1BE011E235A22FF
:1041B000C820FDF71DFD424A127802EB8202D200B0
:1041C00002F1BE01A8B2FFF715F93F480088B0F52B
:1041D0007A7F02DCA8B2FFF795FC04F00F003749A4
:1041E000374A127821F8120004F00F0000F1F001B4
:1041F0003648FFF742FF32480078401C30490870CB
:1042000010E040F256452E4A127802EB8202D200AC
:1042100002F1BE012846FFF7EDF829480078401C5E
:10422000274908702648007829490978884243DBE5
:10423000FDF78AF9FFF7AAFC0020224908601E2337
:10424000962289218220FDF7D3FCFF201E2396228F
:10425000892100908220FDF73BFD02231DA28C21C5
:104260008D20FDF78BFE4FF4FA6000F041FF1E2316
:10427000962289218220FDF7BBFCFF201E23962277
:10428000892100908220FDF723FD022314A28C21B6
:104290008D20FDF773FE002607E000200749084A3D
:1042A000127821F81200701CC6B2054800788642C8
:1042B000F3DB002002490870F8BD0000481B002015
:1042C00040000020440000203C000020004400404A
:1042D00035000020BCC6CAB1BDE1CAF8000000002C
:1042E000D7BCB1B8BCC6CAB10000000010B51048B8
:1042F000007801280BD104200D490870FDF7DCF887
:1043000000231A4619460B48006801F043F9084893
:10431000007803280BD1052005490870FDF7CCF87B
:1043200000231A4619460348006801F033F910BD0E
:104330005D0000201C0000200FB4054B10B503A940
:10434000044A029800F02CF810BC5DF814FB000041
:104350004D470008C80000200FB4084B10B504A951
:1043600002AA039800F01CF8044602A9002000F0FD
:10437000B8F9204610BC5DF814FB0000E3460008C5
:1043800002E008C8121F08C1002AFAD1704770471E
:10439000002001E001C1121F002AFBD1704700007C
:1043A0002DE9FF4F8BB088460546002606E02528FC
:1043B0000BD0DDE90D1290476D1C761C2878002883
:1043C000F5D10FB03046BDE8F08F0024A146A246DB
:1043D0000122AE4900E0044315F8013F203B02FAF8
:1043E00003F00842F7D128782A2810D06FF02F0266
:1043F0002878A0F13001092915D809EB890102EBD1
:10440000410144F0020400EB01096D1CF0E758F88B
:10441000041B5FEA010903D544F40054C9F1000903
:1044200044F002046D1C28782E2817D115F8010FCE
:1044300044F004042A280ED06FF02F022878A0F14F
:10444000300109290AD80AEB8A0102EB410100EB8D
:10445000010A6D1CF2E758F804AB6D1C28786C2833
:104460000FD006DC4C2817D068280DD06A2814D14C
:1044700004E0742810D07A280FD10DE044F4001421
:104480000AE044F4801401E044F440146978814265
:1044900002D104F580146D1C6D1C2878692865D044
:1044A00006DC00288DD0632827D0642806D15DE083
:1044B0006E2808D073282AD0752877D0DDE90D1230
:1044C0009047761CE0E0C4F30250022809D003288C
:1044D0000DD0D8F8001004280DD00E6008F10408A3
:1044E000D2E0D8F80010F217C1E90062F6E7D8F878
:1044F00000100E80F2E70E70F0E718F8041B8DF83C
:10450000001000208DF80100EB46012003E058F870
:1045100004BB4FF0FF3061074FF0000701D40AE001
:104520007F1C57450DDA8742FADB1BF8071000297C
:10453000F6D106E07F1C8742FCDB1BF80710002940
:10454000F8D1DDE90D23A9EB07008146214600F0F3
:10455000B1F83044C61904E0DDE90D121BF8010B77
:1045600090477F1EF8D22146484688E058F8040B51
:10457000C4F302514FF00A0B032900D100B2042901
:1045800000D140B2002802DA40422D2102E021058C
:1045900005D52B218DF82410012104E006E0E10768
:1045A00010D02021F6E708AF089113E058F8040B6B
:1045B000C4F302514FF00A0B032900D180B2042941
:1045C00000D1C0B20021EEE75946FBF71DFE3031A5
:1045D00007F8011D0028F7D1ADEB070000F1200B13
:1045E000600702D524F4803401E04FF0010ADA4577
:1045F00002DDAAEB0B0000E00020824600EB0B017D
:1046000008980144A9EB01000A90E00306D4DDE913
:104610000D2321460A9800F04DF806444FF000099A
:1046200008E009A911F80900DDE90D12904709F128
:104630000109761C08998945F3DBE0030CD5DDE917
:104640000D2321460A9800F035F8064404E0DDE920
:104650000D1230209047761CBAF10001AAF1010A30
:10466000F5DC05E0DDE90D1217F8010B9047761C2B
:10467000BBF10001ABF1010BF4DC0A982146DDE946
:104680000D2300F005F806446D1C97E6092801008B
:104690002DE9F041044600251E461746880404D43F
:1046A00005E039462020B0476D1C641EF9D5284628
:1046B000BDE8F0812DE9F041044600251E469046F4
:1046C000C80301D5302700E02027880404D505E081
:1046D00041463846B0476D1C641EF9D52846BDE8F2
:1046E000F0810A68531C0B601070704770B5034668
:1046F00000224FF0E02675690D4E367803FB06F474
:104700004FF0E026B16910E04FF0E026B069884232
:104710000BD0884202D20E1A324402E02E1A0E4406
:1047200032440146A24200D300E0EDE700BF70BD75
:104730005000002030B50446002504E04FF47A70A4
:10474000FFF7D4FF6D1CA542F8D330BD00BF054A6A
:10475000128802F04002002AF9D0C2B2014B1B1DA0
:104760001A807047003801400EB5FBF7D1FF0EA04C
:10477000FFF7E2FD1448154903220023CDE900218B
:104780000290802212A1164801F02CF81549086009
:104790000846006810B100F04DFD02E012A0FFF7DE
:1047A000CBFD00BFFEE70000B7C9D2EDB3B5B6D36D
:1047B000B5E7C6F8D7E9B6A8CAB1C6F7BAAFCAFD19
:1047C000B5F7CAD4210D0A00840A0020CC060020C7
:1047D0004170705461736B437265617465000000D1
:1047E0009103000820000020B4B4BDA8CAA7B0DC23
:1047F000000000002DE9F04105460E461C48076800
:104800001C480068001D00F0CDFB50B91948006835
:1048100090F82C10012088401749096881431648F8
:104820000160681C38B936B112480168091D134887
:1048300000F002FC1AE07C190E4800684460BC429B
:1048400007D20C480168091D0D48006800F0DAFB2A
:104850000CE008480168091D0A48006800F0D2FB16
:1048600009480068844201D207480460BDE8F0812D
:10487000840000207000002088000020E41E00203A
:104880007800002074000020A000002010B504462D
:1048900000F0DEFB23480068401C224908602248E3
:1048A000006840B9204804600846006801280DD11E
:1048B00000F07CF90AE01D48006838B91A48006821
:1048C000C06AE16A884201D8174804601848006845
:1048D000401C1749086094F82C10012088401549A5
:1048E0000968084313490860E16A01EB8101124A33
:1048F00002EB8100211D00F09FFB00F0BBFB0B4889
:10490000006868B108480068C06AE16A884207D256
:104910004FF0805009490860BFF34F8FBFF36F8F8E
:1049200010BD000080000020700000208C000020DE
:104930009C00002088000020141C002004ED00E0F2
:1049400070B523E000F0BCFC1348006808B90120F2
:1049500000E00020054601F04BF8BDB900F078FBFF
:104960000D48C068C468201D00F01CFB0B4800689F
:10497000401E0A4908600A480068401E084908604D
:1049800000F078FB204600F057F800BF04480068AC
:104990000028D7D170BD0000D01E0020800000206C
:1049A0007C00002070B504460D46206C70B1216C6F
:1049B000E0680844E0606168E068884201D32068EC
:1049C000E0602846226CE168FBF7FAFB70BD2DE938
:1049D000F04104460F4615464FF00008A66B206CC8
:1049E00028B37DB93946226CA068FBF7E9FB216C3E
:1049F000A0680844A060D4E90110884217D3206859
:104A0000A06014E03946226CE068FBF7D9FB216C0A
:104A1000E068401AE0602168E068884203D2216CB7
:104A20006068401AE060022D01D106B1761E701C4C
:104A3000A0634046BDE8F08110B5044694F85900E3
:104A400030B9206B00F026FB204600F023FB06E087
:104A500094F85900012802D1204600F01BFB10BD3C
:104A600030B54FF42053174800F007042CB1C01D97
:104A700020F00700134C041B1B1B0246124C226043
:104A80000024114D6C60D018083820F007000F4C3E
:104A9000206000240D4D2D686C600C4D2D682C603D
:104AA0001146441A4C60094C24680C60084D4C684F
:104AB0002C60084D4C682C604FF00044064D2C6073
:104AC00030BD0000F81E0020B0000020B80000201B
:104AD000C0000020BC000020C400002000BFFFF781
:104AE0002FFF064800680128F9D94FF0805004498B
:104AF0000860BFF34F8FBFF36F8FF0E7141C0020E7
:104B000004ED00E02DE9F04106460D4617469846B3
:104B1000069C0DB9246000E02760E663256401214E
:104B2000204600F0F7FCBDE8F0812DE9FF5F8046EC
:104B30000E469146DDE90E7A109CA9F10100216B29
:104B400001EB800B2BF0070B002507E0715D04F1F2
:104B500034004155705D00B902E06D1C202DF5D385
:104B600000BF002153200155202F00D31F27E762EB
:104B7000201D00F044FA04F1180000F040FA24610E
:104B8000C7F12000A06164620020606584F85800CD
:104B900041465846039A00F059F92060BAF1000FD7
:104BA00001D0CAF80040BDE8FF9F000010B5002406
:104BB00007E004EB84010F4A02EB810000F012FAD7
:104BC000641C202CF5D30C4800F00CFA0B4800F0C4
:104BD00009FA0B4800F006FA0A4800F003FA0A48FE
:104BE00000F000FA044809490860044808490860D0
:104BF00010BD0000141C0020941E0020A81E0020E0
:104C0000BC1E0020D01E0020E41E002074000020E6
:104C10007800002010B50146164800E000680368DF
:104C20008B42FBD30246436813448B4204D1436852
:104C30004C682344436001460A464B6813440468A9
:104C4000A34211D10C4C03682468A34208D04B68DE
:104C50000468646823444B6003681B680B6005E0CC
:104C6000054B1B680B6001E003680B60884200D0B5
:104C7000016010BDB0000020B800002070B50546EE
:104C800000F0E6F9A86B08B9012400E0002400F068
:104C9000F1F9204670BD70B5054600F0D9F9A86B52
:104CA000E96B884201D1012400E0002400F0E2F920
:104CB000204670BD0A490968096809B9012100E068
:104CC000002121B14FF0FF31064A116006E004498E
:104CD0000968C968C868034A4168116070470000E4
:104CE00074000020A000002000BFBF2080F31188C6
:104CF000BFF34F8FBFF36F8F00BF00BFFEE770B5EC
:104D0000044600F0A5F994F9455010E0606A08B92E
:104D1000012000E0002038B904F1240000F028FE52
:104D200018B100F065FA00E003E0681E45B2002DFE
:104D3000ECDC00BFFF2084F8450000F09BF900F098
:104D400087F994F9445010E0206908B9012000E087
:104D5000002048B904F1100000F00AFE08B100F08C
:104D600047FA681E45B200E001E0002DECDC00BF10
:104D7000FF2084F8440000F07DF970BD2DE9F0417A
:104D800005464FF0000800F09BFA2B48006808B970
:104D9000FFF766FE294800682840002847D145B142
:104DA000083505F0070020B105F00700C0F1080044
:104DB0000544002D3BD022480068854237D8214E5B
:104DC0003046046801E0264624686068A84202D2A2
:104DD00020680028F7D118480068844227D030683E
:104DE00000F10808206830606068401B102807D96F
:104DF00067196068401B786065603846FFF70AFFF6
:104E00000F4960680968081A0D490860084600687B
:104E10000D490968884203D2094800680A490860B8
:104E2000064960680968084360600020206000F05F
:104E3000DFFD4046BDE8F081B8000020C40000203E
:104E4000BC000020B0000020C0000020001F4FF078
:104E500080730360001F21F001030360001F034BF8
:104E6000036014380260203870470000E94C0008E5
:104E700010B586B00446012144F20400FDF7B8FFE6
:104E80004FF40070ADF8140003208DF816001820C0
:104E90008DF8170005A91248FCF74CFD4FF480600F
:104EA000ADF8140004208DF8170005A90C48FCF794
:104EB00041FD01940020ADF80800ADF80A00ADF8FE
:104EC0000C00ADF810000820ADF80E0001A905484F
:104ED000FFF762F801210348FEF7B4FF06B010BDEA
:104EE000000801400038014010B586B004462B4848
:104EF000FEF7B4FF01214804FDF75AFF0121042009
:104F0000FDF776FF0820ADF8140004208DF8170097
:104F100005A92348FCF70EFD0420ADF8140003207A
:104F20008DF8160018208DF8170005A91C48FCF70D
:104F300001FD26208DF8000002208DF801000020E0
:104F40008DF8020001208DF803006846FDF78CFC07
:104F500001940020ADF80800ADF80A00ADF80C008F
:104F6000ADF810000C20ADF80E0001A90B48FFF7BA
:104F700013F840F225510948FEF755FF2021074854
:104F8000FEF748FF012240F225510448FEF7DEFFFC
:104F900000210248FEF756FF06B010BD0044004055
:104FA0000008014001460A69D1E901309860D1E961
:104FB000010358605068884201D188685060002021
:104FC00008611068401E106010687047034B036052
:104FD000034B0B608023136070470000CC09002056
:104FE000CC00002000F1080141604FF0FF318160EA
:104FF00000F10801C16001610021016070470021DA
:105000000161704710B502460B685C1C0CB9106951
:1050100007E002F1080000E04068446824689C4210
:10502000FAD944684C604C68A160886041600A61AC
:105030001468641C146010BD42684A6093688B60F9
:10504000936859609160086103685B1C0360704756
:1050500000BFBF2080F31188BFF34F8FBFF36F8F66
:1050600000BF03480068401C014908607047000009
:10507000AC00002006480068401E0549086008464C
:10508000006820B9002080F3118800BF00BF70477E
:10509000AC00002070B506463546D6B1083D2C461A
:1050A0000C4960680968084098B1206888B90949C6
:1050B000606809688843606000F002F9064960682A
:1050C00009680844044908602046FFF7A3FD00F082
:1050D0008FFC70BDC4000020BC00002003484FF0CE
:1050E000E021486107200861704700003F19010076
:1050F00070B50446002544B100F0E2F800212046D6
:10510000FFF778FB00F074FC05463DB94FF0805086
:1051100003490860BFF34F8FBFF36F8F70BD00006E
:1051200004ED00E070B50546FFF792FF15B927487A
:10513000006800E028460446201DFFF733FF78B9D9
:10514000E06A00EB8000224951F8200040B994F851
:105150002C10012088401F49096881431D480160C7
:10516000A06A18B104F11800FFF71CFF1A48006884
:10517000401C1949086015480068844209D1211D66
:105180001648FFF759FF16480068401C144908608C
:1051900009E014480068401E124908602046FFF7E5
:1051A0004BFCFFF787FDFFF765FF0F48006858B11C
:1051B00006480068844207D14FF080500B490860D0
:1051C000BFF34F8FBFF36F8F70BD000070000020E2
:1051D000141C0020880000209C000020D01E00200D
:1051E0007C000020800000208C00002004ED00E006
:1051F00001200149086070479400002070B5054601
:105200000C460548016818312846FFF7FBFE0121CE
:105210002046FFF7EFFA70BD7000002003490968CF
:105220000160034909684160704700009800002050
:105230008400002010B586B000200590049003AAD9
:1052400004A905A8FFF7C2FE0022DDE904101346F9
:10525000CDE90021029013A11448039A00F0C2FA8C
:10526000134908600846006808B1012400E00024E2
:10527000012C14D100BFBF2080F31188BFF34F8FE2
:10528000BFF36F8F00BF4FF0FF300A490860012065
:105290000949086000200949086000F049F806B093
:1052A00010BD000049444C4500000000DD4A0008E4
:1052B000A4000020A00000208C000020840000201A
:1052C00002480068401C014908607047A80000209F
:1052D0001248006818B10120114908601DE0002043
:1052E0000F4908600F480068B0FA80F0C0F11F0154
:1052F00001EB81020C4B03EB820042685268426072
:1053000000F108024368934202D142685268426049
:105310004268D268054B1A6000BF7047A8000020A1
:105320009400002088000020141C00207000002041
:1053300010B50A48006840F47F0008490860084634
:10534000006840F07F400860FFF7C8FE0020044975
:105350000860FAF7E9FE002010BD000020ED00E033
:10536000AC00002010B500BFBF2080F31188BFF350
:105370004F8FBFF36F8F00BF00F06CFA18B14FF082
:1053800080500449086000BF002080F3118800BFEE
:1053900010BD000004ED00E02DE9F84307460D467E
:1053A00090460DB9002601E007FB05F606F148001E
:1053B000FFF7E4FC04465CB104F14809002084F8DE
:1053C000460043464A46294638460094FFF79AFB72
:1053D0002046BDE8F88300002DE9FF4782B005466E
:1053E00089461E464FF0000A2C4600BFFFF730FEEC
:1053F000D4F83880B8F1000F36D0E7684946204627
:10540000FFF7D0FAB6B9A8F10100A063206908B986
:10541000012000E0002008BB04F1100000F0A8FA11
:10542000E0B14FF080503A490860BFF34F8FBFF3AF
:105430006F8F13E0E760606A08B9012000E0002088
:1054400060B904F1240000F093FA38B14FF08050B5
:105450002F490860BFF34F8FBFF36F8FFFF70AFE2E
:10546000012006B0BDE8F087049818B9FFF702FEE6
:105470000020F6E7BAF1000F04D16846FFF7CEFE30
:105480004FF0010AFFF7F6FDFFF71AFFFFF7E0FD07
:1054900094F94400401C10B9002084F8440094F9A9
:1054A0004500401C10B9002084F84500FFF7E2FDDC
:1054B00004A9684600F036F9F0B92046FFF7DEFB94
:1054C000A0B104F124000499FFF798FE2046FFF7ED
:1054D00016FC00F08DFA002888D14FF080500C495E
:1054E0000860BFF34F8FBFF36F8F7FE72046FFF752
:1054F00006FC00F07DFA79E72046FFF700FC00F09B
:1055000077FA2046FFF7BAFB0028EED00020A8E784
:1055100004ED00E070B505460E462C46FFF798FDF9
:10552000D4E90F12206801FB020060600020A06334
:105530002068A060E06B401E226C216800FB021016
:10554000E060FF2084F8440084F845009EB920699B
:1055500008B9012000E00020A8B904F1100000F013
:1055600007FA80B14FF0805009490860BFF34F8FB0
:10557000BFF36F8F07E004F11000FFF733FD04F174
:105580002400FFF72FFDFFF775FD012070BD00001F
:1055900004ED00E02DE9FF4383B0074688461D4631
:1055A0004FF000093C4600BFFFF752FDA06BE16BD6
:1055B000884201D3022D28D12A4641462046FFF7D2
:1055C00006FA0646606A08B9012000E0002068B9C2
:1055D00004F1240000F0CCF988B14FF0805032493A
:1055E0000860BFF34F8FBFF36F8F08E03EB14FF0FD
:1055F00080502D490860BFF34F8FBFF36F8FFFF7C7
:1056000039FD012007B0BDE8F083059818B9FFF710
:1056100031FD0020F6E7B9F1000F04D101A8FFF732
:10562000FDFD4FF00109FFF725FDFFF749FEFFF7EC
:105630000FFD94F94400401C10B9002084F8440088
:1056400094F94500401C10B9002084F84500FFF78C
:1056500011FD05A901A800F065F8F0B92046FFF793
:105660001AFBA0B104F110000599FFF7C7FD204611
:10567000FFF745FB00F0BCF9002895D14FF08050B2
:1056800009490860BFF34F8FBFF36F8F8CE7204647
:10569000FFF735FB00F0ACF986E72046FFF72FFB5C
:1056A00000F0A6F90020ADE704ED00E02DE9F04799
:1056B00005460E462C4600BFBF21EFF3118081F353
:1056C0001188BFF34F8FBFF36F8F00BF8046D4F8B0
:1056D0003890E06B48451DD994F945A009F10100C7
:1056E000A0630AF1010070B9606A08B9012000E006
:1056F000002068B904F1240000F03AF940B13EB14D
:105700000120306004E00AF1010040B284F8450055
:10571000012700E0002700BF88F3118800BF38464A
:10572000BDE8F08770B504460D46FFF791FC1248BE
:1057300002682868401C08B9002619E00F49206853
:105740000968884204D06068904201D801260FE0C1
:105750006068101A2968884209D228686168511A5D
:10576000401A28602046FFF759FD002600E0012678
:10577000FFF780FC304670BD8400002098000020B8
:105780002DE9FF4F85B0804689461746DDE912AB0B
:10579000B800FFF7F3FA064656B15C20FFF7EEFAC1
:1057A00004460CB1266304E03046FFF773FC00E0CA
:1057B00000248CB1002084F85900CDE900ABCDE97C
:1057C00002403A4649464046089BFFF7AEF920465C
:1057D000FFF75CF8012501E04FF0FF35284609B0DE
:1057E000BDE8F08F2DE9F04F85B007468846914619
:1057F0009A46DDE90EB6109CACB1A6B125462E63E3
:10580000022085F85900002004A953464A46CDE9F4
:1058100000B1CDE9025041463846FFF786F92846E7
:10582000FFF734F801E000200490049805B0BDE8CB
:10583000F08F00000549096809B9012005E0044915
:10584000096809B9022000E0002070478C000020A0
:10585000A80000202DE9F04100273A480068002800
:1058600063D139480068451C374805608DB9374811
:10587000D0F8008036480068344908603448C0F8E1
:10588000008034480068401C32490860FFF712FA73
:1058900000BF3148006885423BD300BF2B480068F9
:1058A000006808B9012000E0002020B14FF0FF306F
:1058B000294908602CE025480068C068C46866680B
:1058C000B54202D22448066022E0201DFFF76AFBA1
:1058D000A06A18B104F11800FFF764FB94F82C10CB
:1058E000012088401D49096808431C490860E16A95
:1058F00001EB81011A4A02EB8100211DFFF79CFB9D
:105900001849E06A0968C96A8842C7D30127C5E710
:1059100000BF14480068C06A00EB8000104951F8CD
:105920002000012800D9012704E00F480068401C2E
:105930000D4908600D48006800B101273846BDE8F0
:10594000F0810000A80000208400002074000020E6
:105950007800002098000020A0000020880000208F
:10596000141C0020700000209000002094000020F3
:1059700070B50646F068C46804F11800FFF712FB22
:1059800015480068A8B9201DFFF70CFB94F82C10EF
:105990000120884011490968084310490860E16AFC
:1059A00001EB81010E4A02EB8100211DFFF744FB50
:1059B00004E004F118010B48FFF73EFB0A49E06AD6
:1059C0000968C96A884204D901250120074908608D
:1059D00000E00025284670BDA800002088000020B7
:1059E000141C0020BC1E0020700000209400002029
:1059F00070B500240026FFF72BFB2E480068401EE0
:105A00002C4908600846006800284FD12A480068E1
:105A100000284BD024E02948C068C46804F118006D
:105A2000FFF7C0FA201DFFF7BDFA94F82C100120F3
:105A3000884023490968084321490860E16A01EB6D
:105A40008101204A02EB8100211DFFF7F5FA1E4972
:105A5000E06A0968C96A884202D301201B490860CC
:105A60001648006808B9012000E000200028D2D0C4
:105A70000CB1FFF71FF91648056865B100BFFFF7C5
:105A8000E9FE10B10120114908606D1E002DF6D10C
:105A900000200F4908600D48006838B10126300722
:105AA0000C490860BFF34F8FBFF36F8FFFF7E2FA27
:105AB000304670BDA800002080000020BC1E0020E1
:105AC00088000020141C002070000020940000209A
:105AD0009000002004ED00E0F85A000800000020CB
