:020000040800F2
:10000000E04A00209D010008A1240008F91800081A
:10001000952300081D080008E93F000800000000C3
:1000200000000000000000000000000005010008C2
:10003000190D00080000000049010008ED32000819
:10004000B7010008B7010008B7010008B7010008B0
:10005000B7010008B7010008B7010008B7010008A0
:10006000B7010008B7010008B7010008B701000890
:10007000B7010008B7010008B7010008B701000880
:10008000B7010008B7010008B7010008B701000870
:10009000B7010008B7010008B7010008310F0008D8
:1000A000B7010008B7010008B70100089D35000836
:1000B000B70100080936000845360008B7010008F6
:1000C000B7010008B7010008B7010008B701000830
:1000D000B7010008CD3A0008B7010008B7010008D1
:1000E000B7010008B7010008B7010008DFF810D019
:1000F00000F0A0F80048004769440008AFF3008012
:10010000E04A0020224B19680868B0E8F00F80F33D
:100110000988BFF36F8F4FF0000080F311884EF015
:100120000D0E70470000000006480068006880F36C
:10013000088862B661B6BFF34F8FBFF36F8F00DFE1
:1001400000BF00BF08ED00E0EFF30980BFF36F8F41
:100150000F4B1A6820E9F00F106008B54FF0BF0090
:1001600080F31188BFF34F8FBFF36F8F04F03AFF16
:100170004FF0000080F31188BDE808401968086856
:10018000B0E8F00F80F30988BFF36F8F704700BFAE
:100190006C000020EFF305807047000006488047A0
:1001A00006480047FEE7FEE7FEE7FEE7FEE7FEE75C
:1001B000FEE7FEE7FEE7FEE7FD320008ED0000087F
:1001C00040EA01039B0703D009E008C9121F08C0D9
:1001D000042AFAD203E011F8013B00F8013B521E59
:1001E000F9D27047D2B201E000F8012B491EFBD2D0
:1001F00070470022F6E710B513460A460446194632
:10020000FFF7F0FF204610BD30B50B460146002039
:100210002022012409E021FA02F59D4205D303FAC8
:1002200002F5491B04FA02F52844151EA2F1010249
:10023000F1DC30BD064C074D06E0E06840F00103FC
:1002400094E8070098471034AC42F6D3FFF752FF0A
:10025000EC5700080C5800080146202909DB7E29CC
:1002600007DCA1F1200000EB4000034A02EB001084
:1002700070474FF0FF30FBE700FF1D0001462029CB
:1002800007DB7E2905DCA1F12000034A02EB801088
:1002900070474FF0FF30FBE7505A1E0001462029FF
:1002A00009DB7E2907DCA1F1200000EB4000034AB6
:1002B00002EB800070474FF0FF30FBE700BE1D00EF
:1002C0000146202907DB7E2905DCA1F12000034A35
:1002D00002EB001070474FF0FF30FBE780D71D00A6
:1002E00030B504460B464FF0FF35062B06D0072BE2
:1002F00009D0082B0CD0092B14D10EE02046FFF7B3
:10030000CDFF054611E02046FFF7DAFF05460CE079
:100310002046FFF7A1FF054607E02046FFF7AEFFA6
:10032000054602E04FF0FF3500BF00BF284630BD54
:100330003EB5012404F016FD03220021012004F043
:10034000B5FE4A49086003220021012004F0AEFEF8
:100350004749086003220021012004F0A7FE454917
:1003600008604248006810B143A003F065FE4048B1
:10037000006810B14AA003F05FFE3E48006810B16B
:1003800051A003F059FE5A485A4908220023CDE9EA
:1003900000210290402258A15B4805F0ADF85B496E
:1003A00008600846006818B159A003F045FE02E055
:1003B0005EA003F041FE6448092100234FF400725F
:1003C000CDE9001061A1654805F064F80446012CF0
:1003D00003D163A003F030FE02E069A003F02CFE1D
:1003E0006F480A2100234FF40072CDE900106DA17F
:1003F000704805F04FF80446012C03D16EA003F0BD
:100400001BFE02E074A003F017FE65480A210023DA
:100410004FF40072CDE9001062A1664805F03AF889
:100420000446012C03D164A003F006FE02E06AA09A
:1004300003F002FE70480B2100234FF40072CDE957
:1004400000106EA1714805F025F80446012C03D177
:100450006FA003F0F1FD02E075A003F0EDFD7C4814
:10046000006804F0E9FC04F08FFC3EBD140000209D
:10047000180000201C00002042696E6172795365EB
:100480006D315F48616E646C6520B6FED6B5D0C52F
:10049000BAC5C1BFB4B4BDA8B3C9B9A6A3A1000071
:1004A00042696E61727953656D325F48616E646C4A
:1004B0006520B6FED6B5D0C5BAC5C1BFB4B4BDA817
:1004C000B3C9B9A6A3A1000042696E6172795365F0
:1004D0006D335F48616E646C6520B6FED6B5D0C5DD
:1004E000BAC5C1BFB4B4BDA8B3C9B9A6A3A1000021
:1004F000DC0A0020C80800204B65795363616E5FF9
:100500005461736B00000000B52000082400002037
:100510004B65795363616E5F5461736BC8CECEF1E6
:10052000B4B4BDA8B3C9B9A6210A00004B6579537C
:1005300063616E5F5461736BC8CECEF1B4B4BDA875
:10054000CAA7B0DC210A0000280000204558544901
:10055000585F4465616C5461736B0000990F00082B
:1005600045585449585F4465616C5461736BC8CEFB
:10057000CEF1B4B4BDA8B3C9B9A6210D0A000000DC
:1005800045585449585F4465616C5461736BC8CEDB
:10059000CEF1B4B4BDA8CAA7B0DC210D0A0000009A
:1005A0002C0000205553415254325F4465616C5415
:1005B00061736B00193B00085553415254325F443C
:1005C00065616C5461736BC8CECEF1B4B4BDA8B391
:1005D000C9B9A6210D0A00005553415254325F4457
:1005E00065616C5461736BC8CECEF1B4B4BDA8CA5A
:1005F000A7B0DC210D0A00003000002046616365D1
:100600005F5377697463685461736B0075130008F6
:10061000466163655F5377697463685461736BC83F
:10062000CECEF1B4B4BDA8B3C9B9A6210D0A00005D
:10063000466163655F5377697463685461736BC81F
:10064000CECEF1B4B4BDA8CAA7B0DC210D0A00001B
:100650002000002008B50121102002F0E9F9012056
:10066000ADF8000010208DF8030003208DF8020083
:100670006946044801F040F80121024801F0D0F831
:1006800008BD0000001001401FB54FF4A06001F04C
:1006900041FF482000F042FB4FF4E13004F068FADB
:1006A0004FF4E13004F0B6FAFFF7D4FF01F012FD89
:1006B00000F0ECF941F61F4142F20F7002F0FAFF30
:1006C00041F61F4142F20F7003F070F8472142F2E9
:1006D0000F7003F037F802F0CFFA01F0CDFB4FF4C2
:1006E000FA7003F0A7FE01F09FF8642003F0A2FE69
:1006F00007214120FFF7F4FD044607226946204602
:1007000001F0A4F8032305A2C821322001F0BCFAAD
:100710004FF4FA7003F08EFE1FBD0000B7C9D2ED92
:10072000B3B5B6D3B5E7C6F8D7E9000010B50020D9
:10073000054908700549087000231A4619460448FF
:10074000006804F0B1FD10BD590000203500002004
:100750001C00002010B503F0A1F92E4800780228F3
:100760000CDC00202B49087000F0F0FD00231A4635
:1007700019462948006804F097FD49E025480078AB
:1007800003280AD102202349087000231A4619467B
:100790002148006804F088FD3AE01E4800780428EB
:1007A0000AD101201B49087000231A4619461A482D
:1007B000006804F079FD2BE01648007805280AD17E
:1007C00003201449087000231A461946124800688D
:1007D00004F06AFD1CE00F48007806280AD10420C6
:1007E0000C49087000231A4619460B48006804F0AB
:1007F0005BFD0DE007480078072809D10520054971
:10080000087000231A4619460348006804F04CFD9E
:1008100010BD0000590000201C00002000BFFEE7B2
:1008200010B5044660480078A0B9012C04D0022C11
:1008300006D0032C0CD107E05C49086E804708E025
:100840005A49C86C804704E058490869804700E06D
:1008500000BFA8E054480078012814D1012C04D02E
:10086000022C06D0032C0CD107E05049886B80473E
:1008700008E04E49486F804704E04C49486A804789
:1008800000E000BF8FE04848007802280ED114B184
:10089000032C09D104E04549D1F89C00804704E0CD
:1008A00042490869804700E000BF7CE03E4800788C
:1008B000032814D1012C04D0022C06D0032C0CD117
:1008C00007E03A49886B804708E03849486F80471D
:1008D00004E03649486A804700E000BF63E03248E0
:1008E000007804281AD134B1012C09D0022C0BD085
:1008F000032C11D10CE02D49D1F8880080470CE081
:100900002A49086E804708E02849C86C804704E0FF
:100910002649486A804700E000BF44E0224800784A
:1009200005281AD134B1012C09D0022C0BD0032C8C
:1009300011D10CE01D49D1F8880080470CE01B491B
:10094000086E804708E01949C86C804704E01749E1
:10095000486A804700E000BF25E013480078062879
:100960000ED1022C02D0032C08D103E00F490869F4
:10097000804704E00D49486A804700E000BF12E06C
:100980000948007807280ED1022C02D0032C08D188
:1009900003E006490869804704E00449486A804743
:1009A00000E000BF00BF10BD59000020441B002024
:1009B0003EB505462C46002001900290207A08287A
:1009C00035D2DFE800F0040A10161C22282E22A2DD
:1009D00023A101A803F040FB2AE022A220A101A844
:1009E00003F03AFB24E021A21DA101A803F034FB8F
:1009F0001EE020A21AA101A803F02EFB18E01EA2FF
:100A000017A101A803F028FB12E01CA214A101A861
:100A100003F022FB0CE01BA211A101A803F01CFBB8
:100A200006E010A20EA101A803F016FB00E000BF33
:100A300000BFFF200090618820881E23322200F032
:100A4000CDFF6288D21C91B22288521C90B2022340
:100A500001AA01F019F93EBDC8B7B6A80000000010
:100A600025730000B7B5BBD800000000B2E9BFB4E1
:100A700000000000A1FC0000A1FD0000D7BCB1B83F
:100A800000000000C7E5BFD50000000077480088DF
:100A9000323877490880774800881E384880734884
:100AA0000088888073480088C880002008727248D7
:100AB000C860724808616D480088323888826D4885
:100AC00000881E3881B26A48C18268480188684837
:100AD000018368480188664841830121017766499E
:100AE00001626749416261480088E63860490885CB
:100AF000604800881E3881B25D4841855B480088A7
:100B0000B43881B25A4881855A4801885848C1850D
:100B1000022180F83010584941635A498163534893
:100B200000888C3852498887524800881E3881B224
:100B30004F48C1874D4800885A3881B24C48A0F8C8
:100B400040104C4801884A48A0F84210032180F820
:100B50004410494981644C49C16444480088E638DE
:100B60004349A1F85000434800881E3881B24048EC
:100B7000A0F852103D480088B43881B23C48A0F833
:100B800054103C4801883A48A0F85610042180F8D7
:100B900058103949C1653D490166344800888C3890
:100BA0003349A1F86400334800881E3881B23048C8
:100BB000A0F866102D4800885A3881B22C48A0F859
:100BC00068102C4801882A48A0F86A10052180F88E
:100BD0006C10294901672E49416724480088A0F517
:100BE000A0702349A1F87800224800881E3881B2FD
:100BF0001F48A0F87A101D480088A0F5877081B2C0
:100C00001B48A0F87C101B4801881948A0F87E10EA
:100C1000062180F880101849C0F884101D49C0F8DA
:100C2000881012480088A0F5A0701149A1F88C0026
:100C3000104800881E3881B20D48A0F88E100B486D
:100C40000088A0F5877081B20948A0F89010094883
:100C500001880748A0F89210072180F894100649EF
:100C6000C0F898100C49C0F89C1070475C00002038
:100C7000441B00205E000020B1090008610D00083F
:100C800055070008ED3F0008493F0008910E000895
:100C9000252B0008551200082D07000808B52C2345
:100CA00064220A21962000F029FE022313A21421B7
:100CB000084600F0E9FF1448007878B1FF202C23A3
:100CC00032220A210090962000F088FE08230E4868
:100CD00002781421A02001F039F80DE0FF202C2328
:100CE0008C220A210090962000F078FE022307A2B1
:100CF0001421A02000F0C8FF08BD0000B4AEBFDA88
:100D0000CDA8D1B6A3BA000035000020CEDEB4D302
:100D1000BBFAC1ACBDD300007047000070B50446FB
:100D2000042002F0CFFA0C48047025464FF47A7084
:100D300045430120094908804FF0E020006940F058
:100D400002004FF0E021086108464561006940F06B
:100D50000100086170BD00004C0000204E00002022
:100D600010B543480078D8B942480078012809D125
:100D70003F49087000231A4619463F48006804F0AE
:100D800093FA74E03B480078022870D13849087023
:100D900000231A4619463848006804F085FA66E0D0
:100DA00033480078022819D13448007801280ADB3A
:100DB00003202F49087000231A4619462E48006860
:100DC00004F072FA53E000202949087000231A4603
:100DD00019462948006804F067FA48E0244800787A
:100DE000062820D12648008800280EDD05E00020D6
:100DF0002449234A128821F81200214801880088DA
:100E0000401E1F4A10800029F1D1042018490870A3
:100E100000201B49088000231A461946164800681E
:100E200004F042FA23E01248007807281FD1164840
:100E3000008800280EDD05E000201449124A1288BF
:100E400021F81200104801880088401E0E4A1080C8
:100E50000029F1D105200649087000231A461946D9
:100E60000548006804F020FA00200749088010BDFA
:100E700059000020580000201C00002035000020F0
:100E80003A000020380B00203C00002038130020DE
:100E900010B52048007840BB1F480078401C1E4910
:100EA000087008460078022801DD012008701A4801
:100EB000007801280CD11E231A46B421462000F0E8
:100EC0001DFD022315A28C21462000F0DDFE1FE04F
:100ED0001E231A468C21462000F010FD02230FA28B
:100EE000B421462000F0D0FE12E00A480078042821
:100EF00005D10B4801880B4801F028FB08E00548A4
:100F00000078052804D108480188084801F01EFB34
:100F100010BD00005900002058000020A1F400007E
:100F20003A000020380B00203C000020381300203D
:100F300038B54FF4807000F079F920B34FF4807029
:100F400000F06EF910480078401C0F49087000202E
:100F50000090084600780A2815D1002008706946DC
:100F60000A48006804F02CFA04464CB1009838B1E5
:100F70004FF0805006490860BFF34F8FBFF36F8F6B
:100F800001200449087038BD4900002014000020E9
:100F900004ED00E04700002086B00025142101A8E0
:100FA000FFF727F910E100235A1E19468748006809
:100FB00004F09CF80020864908700121854800F063
:100FC00031FC0CE04FF48071834800F020FC08B93C
:100FD000601CC4B2012003F015FF681CC5B20A2DC5
:100FE000F0DB01217B4800F01BFC052C7EDD7B48FB
:100FF000007801287BD17A48007820BB002079490D
:10100000087002F057FD01207549087000207649EC
:10101000086076A277A101A803F01EF81E2396228D
:101020008921822000F06AFCFF201E23962289215C
:101030000090822000F0D2FC022301AA8C218D2096
:1010400000F022FEC0E067480078012803D16A481A
:101050000068694948606448006867490860002181
:10106000664802F056FC00205F49086064A261A156
:1010700001A802F0F1FF1E2396228921822000F0B0
:101080003DFC28235A22C821084600F037FCFF20E7
:101090001E23962289210090822000F09FFC0223CB
:1010A00001AA8C218D2000F0EFFD5349098888B2F8
:1010B000C82101F0AFFF55480088B0F57A7F04DC05
:1010C0004D49098888B202F0A5FC4FF47A7003F00C
:1010D00099FE42480078012876D144A245A101A892
:1010E00002F0BAFF1E239622892101E04FE02AE098
:1010F000822000F003FCFF201E239622892100900D
:10110000822000F06BFC022301AA8C218D2000F0CC
:10111000BBFD3448007801280BD128235A22F02146
:10112000C82000F0EBFB3449898888B2F02101F037
:1011300071FF2C480078002846D12A480078401CCE
:101140002849087040E02548007803283CD100F089
:10115000FDF801212E4802F026FE24A225A101A8B7
:1011600002F07AFF1E2396228921822000F0C6FB1E
:10117000FF201E23962289210090822000F02EFC61
:10118000022301AA8C218D2000F07EFD1CE021A20B
:1011900018A101A802F060FF1E2396228921822057
:1011A00000F0ACFBFF201E239622892100908220B4
:1011B00000F014FC022301AA8C218D2000F064FDB4
:1011C0004FF47A7003F01EFEEDE6000014000020DC
:1011D0004700002000100140000801405900002095
:1011E000340000203E00002040000020BCC6CAB1F0
:1011F000D6D0000025730000381B002000040040FA
:10120000BCC6CAB1BDE1CAF8000000003A00002027
:1012100000440040BCC6CAB1B4EDCEF300000000EB
:101220000149086070470000140401400146002095
:101230000022074B1B6803EA0102054B14331B68AD
:101240000B4013B10AB1012000E0002070470000FC
:101250000004014010B504480078801C0249087061
:1012600000F004F810BD00005900002008B54FF44C
:10127000DC734FF4A0725021002000F03FFBFF20F0
:101280005023C822114600903C2000F0A7FB2248C2
:10129000007806280CD1022320A2D221582000F089
:1012A000F3FC022321A2FA21622000F0EDFC0FE002
:1012B0001948007807280BD102231FA2D2215820F9
:1012C00000F0E2FC022319A2FA21622000F0DCFC0B
:1012D0001D48808F1C4908800846C08F48800846FA
:1012E000B0F8400088800846B0F84200C880084640
:1012F000C16888471448016A143088471248808AB8
:10130000114908800846C08A48800846008B8880BA
:101310000846408BC88008BD59000020C8B7B6A851
:10132000C7E5BFD5B5A5C8A600000000B2E2CAD483
:10133000CAFDBEDDA3BF0000C8B7B6A8C7E5BFD5CC
:10134000BCD3CBD900000000441B002010B5012203
:101350000221024802F0D4FA10BD0000002C014026
:1013600010B501220221024802F0CAFA10BD0000A5
:10137000002C01404BE02648007830B90021254878
:1013800002F011FD00F0A4FF3AE0214800780128A6
:1013900007D121A002F050FE00F032FFFFF77EFCE3
:1013A0002EE01B480078022806D101F059FF0121E8
:1013B000184802F0F8FC23E015480078032808D10B
:1013C0000021144802F0EFFC00F0E6FFFFF766FC96
:1013D00016E00F480078042807D1FFF7B7FF12483E
:1013E0000188124801F05EFE0AE0094800780528ED
:1013F00006D1FFF7ABFF0E4801880E4801F030FD23
:1014000000235A1E19460C48006803F06FFEB2E72D
:101410005900002000440040B5A5C8A6BCC6CAB10A
:10142000BDE7C3E60A0D00003A000020380B00209B
:101430003C000020381300201C00002001460878E2
:10144000A12813DB0878A92810DC4878A1280DDB37
:101450004878A1380A78A13AC2EB021303EB421292
:1014600000EB420000EB4000C00070470878B02855
:1014700015DB0878F72812DC4878A1280FDB4878BC
:10148000A1380A78B03AC2EB021303EB421200EB28
:10149000420000F24E3000EB4000C000E5E74FF0A4
:1014A000FF30E2E701460878A12813DB0878A92875
:1014B00010DC4878A1280DDB4878A1380A78A13AD9
:1014C000C2EB021303EB421200EB42000F4A02EBA5
:1014D000401070470878B02815DB0878F72812DC30
:1014E0004878A1280FDB4878A1380A78B03AC2EBD7
:1014F000021303EB421200EB420000F24E30034AAB
:1015000002EB4010E5E74FF0FF30E2E7D0C9020000
:1015100001460878A12815DB0878A92812DC48784C
:10152000A1280FDB4878A1380A78A13AC2EB021350
:1015300003EB421200EB420000EBC000104A02EB4A
:10154000C00070470878B02817DB0878F72814DC4B
:101550004878A12811DB4878A1380A78B03AC2EB64
:10156000021303EB421200EB420000F24E3000EB9C
:10157000C000034A02EBC000E3E74FF0FF30E0E7B2
:101580009081060001460878A12813DB0878A92875
:1015900010DC4878A1280DDB4878A1380A78A13AF8
:1015A000C2EB021303EB421200EB42000F4A02EBC4
:1015B000C01070470878B02815DB0878F72812DCCF
:1015C0004878A1280FDB4878A1380A78B03AC2EBF6
:1015D000021303EB421200EB420000F24E30034ACA
:1015E00002EBC010E5E74FF0FF30E2E700DF0E004E
:1015F00002465078137840EA03214AF6A12081423E
:101600000CDB4AF6FE20814208DCA1F52A40A13815
:1016100000EB40000B4B03EB800070474AF6A13013
:1016200081420CDB4AF6C030814208DCA1F52B4038
:10163000423800EB4000034B03EB8000EDE74FF036
:10164000FF30EAE790D71D0002465078137840EA51
:1016500003214AF6A12081420ADB4AF6FE2081429C
:1016600006DCA1F52A40A1380A4B03EB00107047B5
:101670004AF6A13081420ADB4AF6C030814206DCDC
:10168000A1F52B404238034B03EB0010EFE74FF07E
:10169000FF30ECE790D71D0070B505460C464FF0C3
:1016A000FF36062C22D2DFE804F003080D12171CC7
:1016B0002846FFF7C3FE06461BE02846FFF7F2FE6A
:1016C000064616E02846FFF723FF064611E02846A7
:1016D000FFF758FF06460CE02846FFF7B5FF064621
:1016E00007E02846FFF784FF064602E04FF0FF368A
:1016F00000BF00BF304670BD2DE9F0410246002515
:101700000026002000230024002791F803C00CF0DD
:101710000F0591F803C00CF0100CBCF1000F03D0C2
:1017200091F802C04CEA050591F800C0BCF1000F29
:1017300031D0146800202BE04FF0010C0CFA00F3BC
:10174000B1F800C00CEA03069E4220D183004FF09E
:101750000F0C0CFA03F7BC4305FA03FC4CEA040433
:1017600091F803C0BCF1280F06D14FF0010C0CFA20
:1017700000FCC2F814C00AE091F803C0BCF1480FA5
:1017800005D14FF0010C0CFA00FCC2F810C0401C4F
:101790000828D1D31460B1F800C0BCF1FF0F34DDCC
:1017A000546800202EE000F1080C4FF0010808FA00
:1017B0000CF3B1F800C00CEA03069E4221D183006D
:1017C0004FF00F0C0CFA03F7BC4305FA03FC4CEA8C
:1017D000040491F803C0BCF1280F05D100F1080CF6
:1017E00008FA0CF8C2F8148091F803C0BCF1480F55
:1017F00007D100F1080C4FF0010808FA0CF8C2F804
:101800001080401C0828CED35460BDE8F081024609
:10181000002093680B400BB1012000E000207047CE
:10182000416170470161704708B510208DF80300D1
:1018300003208DF802000420ADF80000694602483C
:10184000FFF75AFF08BD0000000801402DE9F041F4
:1018500004460E4615464FF0000800270A2D24D2F4
:10186000DFE805F005080B0E1114171A1D204FF0C4
:1018700018081BE04FF0200818E04FF0480815E06A
:101880004FF0800812E04FF010080FE04FF00C0806
:101890000CE04FF00C0809E04FF0100806E04FF0A4
:1018A000300803E04FF0400800E000BF00BF042113
:1018B0001048FFF7B5FF032001F002FAC4F3074018
:1018C00001F0FEF9C4F3072001F0FAF9E0B201F0EB
:1018D000F7F906E0002001F0F3F939467A1CD7B297
:1018E00070544745F6DB04210248FFF79BFFBDE833
:1018F000F08100000008014000BFFEE72DE9F04143
:101900000746884614461D4600262B462246414679
:10191000384600F08DF82C2000F088FB00BF04E072
:101920000548006800F0AAFB761C04FB05F0B042F5
:10193000F6D8BDE8F0810000640000202DE9F84FE2
:1019400004460D4616461F464FF0000AD046C346D1
:10195000A1460095301B00F4004010B14FF0FF3855
:1019600001E04FF00108781B00F4004010B14FF087
:10197000FF3B01E04FF0010BB4420AD106E02946DB
:10198000204600F089F805EB0B0085B2BD42F6D188
:1019900022E0BD420AD106E02946204600F07CF84C
:1019A00004EB080084B2B442F6D115E0781B311B79
:1019B00090FBF1F00FFA80FA0CE02946204600F087
:1019C0006BF804EB080084B2A4EB090100980AFB51
:1019D000010085B2B442F0D1BDE8F88F2DE9F041A5
:1019E00004460D4616461F46DDF81880A01982B23F
:1019F0002B4629462046FFF7A1FFE9198BB2A11912
:101A00008AB2A11988B22946FFF798FFEA1993B262
:101A1000EA1991B2A21990B22246FFF78FFFE81996
:101A200081B22B4622462046FFF788FFBDE8F081B1
:101A30002DE9F04704460D4616461F464FF00008B4
:101A4000C146A0191FFA80F8E8191FFA80F92A2068
:101A500000F0ECFA200A00F0FDFAE0B200F0FAFA29
:101A60004FEA182000F0F6FA08F0FF0000F0F2FA52
:101A70002B2000F0DBFA280A00F0ECFAE8B200F0C4
:101A8000E9FA4FEA192000F0E5FA09F0FF0000F04A
:101A9000E1FABDE8F087000070B504460D462A2043
:101AA00000F0C4FA200A00F0D5FAE0B200F0D2FA51
:101AB000200A00F0CFFAE0B200F0CCFA2B2000F0C0
:101AC000B5FA280A00F0C6FAE8B200F0C3FA280A0C
:101AD00000F0C0FAE8B200F0BDFA2C2000F0A6FA3F
:101AE0000248006800F0CAFA70BD000060000020E3
:101AF0002DE9F04FA3B08046894692461C4600204F
:101B0000229000260025002783462190802101A8ED
:101B1000FEF76FFB21465046FFF7BEFD229022469E
:101B200001A92298FFF792FE062C22D2DFE804F0EA
:101B300003080D12171C0C2021904FF0020B18E027
:101B4000102021904FF0020B13E0182021904FF04D
:101B5000030B0EE0202021904FF0040B09E0102031
:101B600021904FF0010B04E00C2021904FF0010B6D
:101B700000BF00BF00261EE0002518E0002712E08D
:101B800006FB0B5001A9085CB84000F0800040B192
:101B900009EB060291B208EBC5023A4490B2FFF796
:101BA0007BFF781CC7B2082FEADB681CC5B25D4515
:101BB000E4DB701CC6B221988642DDDB23B0BDE8B1
:101BC000F08F2DE9F04F93B08046894692461D462E
:101BD0000020129000260024002783461190402107
:101BE00001A8FEF706FB29465046FEF779FB129046
:101BF0002A4601A91298FFF729FE062D06D0072DC7
:101C000009D0082D0CD0092D14D10EE00C20119014
:101C10004FF0010B0FE0102011904FF0010B0AE084
:101C2000182011904FF0020B05E0202011904FF08A
:101C3000020B00E000BF00BF00261EE0002418E0F9
:101C4000002712E006FB0B4001A9085CB84000F039
:101C5000800040B109EB060291B208EBC4023A449D
:101C600090B2FFF719FF781CC7B2082FEADB601C9F
:101C7000C4B25C45E4DB701CC6B211988642DDDB61
:101C800013B0BDE8F08F00002DE9FC5F81468A4665
:101C900014461D460026B3460020019000904F4692
:101CA000D046062D22D2DFE805F003080D12171CDE
:101CB0004FF00C0B0C20019018E04FF0100B10208F
:101CC000019013E04FF0180B182001900EE04FF038
:101CD000200B2020019009E04FF0080B102001900C
:101CE00004E04FF0060B0C20019000BF00BF22E083
:101CF0003046711C8EB2205C8DF800003046711C9D
:101D00008EB2205C8DF801002B466A46414638466B
:101D1000FFF7EEFE07EB0B0087B20A480088874208
:101D200004DB0027019840441FFA80F80648008829
:101D3000804500DB02E0A05D0028D9D100BFBDE8EE
:101D4000FC9F00005C0000205E0000202DE9F84FA1
:101D500007468846144699464FF0000AD3460020AD
:101D600000903D464646B9F1060F09D0B9F1070F7C
:101D70000BD0B9F1080F0DD0B9F1090F14D10EE055
:101D80000C2000904FF0060B0FE0102000904FF059
:101D9000080B0AE0182000904FF00C0B05E0202003
:101DA00000904FF0100B00E000BF00BF19E050465C
:101DB000411C1FFA81FA225C4B4631462846FFF748
:101DC00000FF05EB0B0085B209480088854203DB64
:101DD00000250098304486B206480088864200DB21
:101DE00003E014F80A000028E1D100BFBDE8F88F35
:101DF0005C0000205E00002008B50121042000F0F6
:101E000017FE10208DF8030003208DF80200082033
:101E1000ADF8000069461748FFF76EFC0220ADF8E8
:101E2000000069461348FFF767FC1020ADF800007A
:101E300069461048FFF760FC0120ADF800006946D4
:101E40000C48FFF759FC08210A48FFF7EBFC012179
:101E50000848FFF7E7FC322002F0ECFA01210548C0
:101E6000FFF7DEFC322002F0E5FA01210148FFF71E
:101E7000D9FC08BD0008014010B5FFF7BDFF1120D7
:101E800000F0D4F83C2002F0D5FAF22000F0CEF8B1
:101E9000182000F0DFF8A32000F0DCF8122000F09A
:101EA000D9F8022000F0D6F8B22000F0D3F81220C2
:101EB00000F0D0F8FF2000F0CDF8102000F0CAF8B4
:101EC000002000F0C7F8F82000F0C4F8212000F04E
:101ED000C1F8042000F0BEF8132000F0A7F8362067
:101EE00000F0A4F8082000F0B5F8B42000F09EF847
:101EF000022000F0AFF8B62000F098F8022000F0C1
:101F0000A9F8222000F0A6F8C12000F08FF84120A7
:101F100000F0A0F8C52000F089F8002000F09AF841
:101F2000182000F097F83A2000F080F8662000F0C2
:101F300091F8322002F07EFAE02000F077F80F20CE
:101F400000F088F81F2000F085F81C2000F082F8CF
:101F50000C2000F07FF80F2000F07CF8082000F043
:101F600079F8482000F076F8982000F073F83720D0
:101F700000F070F80A2000F06DF8132000F06AF805
:101F8000042000F067F8112000F064F80D2000F044
:101F900061F8002000F05EF8E12000F047F80F2023
:101FA00000F058F8322000F055F82E2000F052F8DA
:101FB0000B2000F04FF80D2000F04CF8052000F049
:101FC00049F8472000F046F8752000F043F8372024
:101FD00000F040F8062000F03DF8102000F03AF83C
:101FE000032000F037F8242000F034F8202000F01F
:101FF00031F8002000F02EF8112000F017F87820BA
:1020000002F018FA292000F011F82C2000F00EF848
:10201000044803880448028800210846FFF76EFC44
:1020200010BD00005E0000205C00002010B50446DA
:1020300002210748FFF7F4FB10210548FFF7F0FBEA
:10204000204600F03DFE02210148FFF7EBFB10BDEA
:102050000008014010B5044602210748FFF7E0FBE5
:1020600010210548FFF7DEFB204600F029FE022183
:102070000148FFF7D7FB10BD0008014010B504462A
:1020800002210B48FFF7CCFB10210948FFF7CAFBE0
:10209000C4F3074000F014FEC4F3072000F010FE64
:1020A000E0B200F00DFE02210148FFF7BBFB10BDBE
:1020B000000801400CE0FF24002000F037F804463F
:1020C000FF2C02D02046FEF7ABFB322002F09AFE36
:1020D000F1E7000008B50121082000F0A9FC482024
:1020E0008DF803004FF48060ADF8000069460E489B
:1020F000FFF702FB4FF40060ADF8000069460A48A4
:10210000FFF7FAFA4FF48050ADF800006946064830
:10211000FFF7F2FA4FF40050ADF8000069460248AC
:10212000FFF7EAFA08BD0000000C014010B50446B4
:10213000012C01D1304908702F48007801283DD189
:1021400081022E48FFF763FB90B14FF400612B48EA
:10215000FFF75DFB60B14FF480512848FFF757FB54
:1021600030B14FF400512548FFF751FB002840D112
:102170000A2002F047FE00201F4908704FF48061DA
:102180001E48FFF744FB08B9002010BD4FF4006162
:102190001A48FFF73CFB08B90120F6E74FF48051DD
:1021A0001648FFF734FB08B90220EEE74FF4005160
:1021B0001248FFF72CFBE0B90320E6E74FF48061FB
:1021C0000E48FFF724FB012813D1C1020B48FFF78B
:1021D0001EFB01280DD101030848FFF718FB012859
:1021E00007D141030548FFF712FB012801D102493D
:1021F0000870FF20C9E7000050000020000C0140DB
:1022000008B54FF4F0734FF4A07250210020FFF78F
:1022100075FB03231DA250216420FFF735FD022327
:102220001DA28C211420FFF72FFD02231DA28C215B
:102230008D20FFF729FDFF201E2396228921009083
:102240008220FFF7CBFBFF2064234FF48C72B42174
:1022500000901420FFF7C2FB022314A2C8211E2005
:10226000FFF712FD022315A2F0211E20FFF70CFD3F
:102270001648416B283088471448016F64308847FE
:102280001248016A1430884708BD0000B5A5C8A6E9
:10229000B2E2CAD400000000D7B4CCACBFF2A3BAFB
:1022A00000000000BFD5CFD000000000B1BEB4CE0A
:1022B000B2E2CAD4CAFDBEDDA3BA0000C9CFB4CE13
:1022C000B2E2CAD4CAFDBEDDA3BA0000441B00209E
:1022D00010B54FF4EB734FF4A0720A210020FFF702
:1022E0000DFB642002F08EFD03231CA25021582018
:1022F000FFF7CAFC09231BA25021B820FFF726FDD7
:10230000022319A28C216420FFF7BEFC02231AA22B
:10231000B4216420FFF7B8FC1B480078012806D1DF
:1023200002231AA28C214620FFF7AEFC09E01648D2
:102330000078022805D1022314A2B4214620FFF719
:10234000A3FC1348816C3C3088471148C16D503064
:1023500088470F48C168884710BD0000BCC6CAB195
:10236000C6F70000362E3000A2F1A1A2B5A5C8A67E
:10237000B2E2CAD400000000A2F2A1A2B6E0B4D337
:10238000BBFAB2E2CAD4000058000020A1F4000059
:10239000441B002000BFFEE710B586B000241421C6
:1023A00001A8FDF726FFFEF7D1FF01F077FB4FF400
:1023B000F0734FF4A07250210020FFF79FFAFF2026
:1023C0001E239622892100908220FFF707FB03231A
:1023D00023A250216420FFF757FC022323A28C2163
:1023E0001420FFF751FC022323A28C218D20FFF73C
:1023F0004BFC1EE0FF20009021480078322100FBBA
:1024000001F34FF48C72B4211420FFF7E7FA631C38
:102410001CA220A101A801F01FFE04EB8400C82229
:1024200002EBC001022301AA1E20FFF72DFC601C55
:10243000C4B2134801780078401E114A1070002978
:10244000D8D11648416B283088471448016F643052
:1024500088471248016A1430884706B010BD000052
:10246000B6E0B4D3BBFAB2E2CAD40000D7B4CCAC65
:10247000BFF2A3BA00000000BFD5CFD0000000001B
:1024800035000020B1BEB4CEB2E2CAD4CAFDBEDD72
:10249000000000002573A3BA25640000441B00203F
:1024A0007047000070B5002100230F22C47804B3E8
:1024B000154C246804F4E064C4F5E064210AC1F119
:1024C0000403CA40447804FA03F184781440214399
:1024D00009010E4C0678A155047804F01F0501246B
:1024E000AC4005786D11AD0005F1E025C5F800415F
:1024F00009E0047804F01F050124AC40044D06787F
:10250000761145F8264070BD0CED00E000E400E0D7
:1025100080E100E002490143024A11607047000077
:102520000000FA050CED00E008B51B208DF8000056
:1025300001208DF8010002208DF8020001208DF8A5
:1025400003006846FFF7AEFF08BD00002DE9FF4716
:102550000746884687480088404503DA8648008851
:10256000404501DBBDE8FF874FF4A0731A46782190
:102570000020FFF7C3F94FF0000900244FF0780A5C
:10258000C825002002900390009001907B480078BD
:10259000052875D1774800887949088067E00223CB
:1025A00078A251461420FFF7A3FA72480288521C01
:1025B00075A1684601F050FD08236A4651462C205B
:1025C000FFF7C4FB022372A251465020FFF75CFBC9
:1025D0006848008837F8106000240FE00A2096FB56
:1025E000F0F100FB11603030C2B22046611CCCB269
:1025F00002A90A540A2096FBF0F086B2002EEDD113
:10260000D2255C48008837F81000642808DA0823CF
:10261000302251462846FFF7D4FA05F10C0085B266
:1026200016E0601EC4B2012C08D108232E225146A8
:102630002846FFF7C6FA05F10C0085B202A8025D34
:10264000082351462846FFF7BCFA05F10C0085B275
:10265000002CE6D147480088401C4649088009F113
:10266000010000F0FF090AF11E001FFA80FAB9F11B
:10267000080F7DDA3F480088404590DB78E0FFE7AF
:102680003E480078042873D13B4800883C490880C4
:1026900067E002233BA251461420FFF729FA36488F
:1026A0000288521C38A1684601F0D6FC08236A460D
:1026B00051462C20FFF74AFB022335A251465020F9
:1026C000FFF7E2FA2C48008837F8106000240FE08A
:1026D0000A2096FBF0F100FB11603030C2B22046B8
:1026E000611CCCB202A90A540A2096FBF0F086B213
:1026F000002EEDD1D2252048008837F8100064283C
:1027000008DA0823302251462846FFF75AFA05F125
:102710000C0085B216E0601EC4B2012C08D108235B
:102720002E2251462846FFF74CFA05F10C0085B2DF
:1027300002A8025D082351462846FFF742FA05F138
:102740000C0085B2002CE6D10B480088401C0A49D9
:10275000088009F1010000F0FF090AF11E001FFACC
:1027600080FAB9F1080F03DA03480088404590DB8E
:1027700000BFF7E65400002056000020590000205A
:1027800052000020B5DA0000252D3364000000005F
:10279000D7E9B2E2CAD4CAFDBEDDA3BA0000000088
:1027A0002DE9FF4707468A464FF0000800244FF006
:1027B0007809C82500200290039000900190894874
:1027C000008808B9BDE8FF874FF4A0731A46782146
:1027D0000020FFF793F88448007805287ED18148CF
:1027E0000088082805DD7F48008809387D49088071
:1027F00002E000207B4908807A4800887B490880F5
:1028000067E002237AA249461420FFF771F977485E
:102810000288521C77A1684601F01EFC08236A4614
:1028200049462C20FFF792FA022374A24946502011
:10283000FFF72AFA6D48008837F8106000240FE08F
:102840000A2096FBF0F100FB11603030C2B2204646
:10285000611CCCB202A90A540A2096FBF0F086B2A1
:10286000002EEDD1D2256148008837F81000642889
:1028700008DA0823302249462846FFF7A2F905F175
:102880000C0085B216E0601EC4B2012C08D10823EA
:102890002E2249462846FFF794F905F10C0085B22F
:1028A00002A8025D082349462846FFF78AF905F188
:1028B0000C0085B2002CE6D14C480088401C4B49E6
:1028C000088008F1010000F0FF0809F11E001FFA5E
:1028D00080F9B8F1080F94DB81E0FFE74248007807
:1028E00004287CD13F480088082805DD3D48008841
:1028F00009383C49088002E000203A4908803948FC
:1029000000884249088067E0022339A24946142022
:10291000FFF7EEF83D480288521C36A1684601F0E8
:102920009BFB08236A4649462C20FFF70FFA022337
:1029300032A249465020FFF7A7F93448008837F8FB
:10294000106000240FE00A2096FBF0F100FB1160FC
:102950003030C2B22046611CCCB202A90A540A200F
:1029600096FBF0F086B2002EEDD1D22527480088E4
:1029700037F81000642808DA082330224946284630
:10298000FFF71FF905F10C0085B216E0601EC4B216
:10299000012C08D108232E2249462846FFF711F9B9
:1029A00005F10C0085B202A8025D082349462846BD
:1029B000FFF707F905F10C0085B2002CE6D11348AA
:1029C0000088401C1149088008F1010000F0FF0850
:1029D00009F11E001FFA80F9B8F1080F94DB00BF5F
:1029E000F0E60000520000205900002054000020B2
:1029F000B5DA0000252D336400000000D7E9B2E20B
:102A0000CAD4CAFDBEDDA3BA0000000056000020F3
:102A100029B1064AD2690243044BDA6104E0034A51
:102A2000D2698243014BDA61704700000010024016
:102A300029B1064A92690243044B9A6104E0034AB1
:102A400092698243014B9A61704700000010024076
:102A500030B500210022002400232D4D6D6805F0C3
:102A60000C0121B1042905D0082923D105E0294D05
:102A7000056022E0274D05601FE0254D6D6805F4D7
:102A80007012234D6D6805F48034022505EB9242E7
:102A90001CB9214D554305600BE01D4D6D6805F4D3
:102AA00000351DB11C4D5543056002E0194D5543DD
:102AB000056002E0174D056000BF00BF144D6D6852
:102AC00005F0F0010909154D6B5C0568DD404560B6
:102AD0000F4D6D6805F4E061090A104D6B5C4568A7
:102AE000DD4085600A4D6D6805F46051C90A0B4DE3
:102AF0006B5C4568DD40C560054D6D6805F440417F
:102B0000890B074D6B5CC568B5FBF3F5056130BDFE
:102B10000010024000127A0000093D000000002071
:102B20001000002000B587B0142102A8FDF761FB5A
:102B300000F0B4FF00200F4908700FA211A102A8F5
:102B400001F08AFA1E23962289218220FEF7D6FE02
:102B5000FF201E239622892100908220FEF73EFF4F
:102B6000022302AA8C218D20FFF78EF8FEF7F8FBD6
:102B700007B000BD34000020D7BCB1B8BCC6CAB194
:102B8000000000002573000021B1028842F04002DD
:102B9000028004E002884FF6BF731A40028070473B
:102BA00000B585B00020ADF80C000120ADF808009C
:102BB0000220ADF806000020ADF81000ADF80400CA
:102BC000ADF80000ADF80E004FF48270ADF80200D1
:102BD0004FF40070ADF80A006946044800F052F85E
:102BE00001210248FFF7D0FF05B000BD00300140D1
:102BF00008B501211420FFF71BFF01210803FFF78F
:102C000017FF18208DF803002020ADF800000320E6
:102C10008DF8020069461048FEF76EFD8020ADF881
:102C2000000069460C48FEF767FD04208DF803009C
:102C30004020ADF8000069460748FEF75DFD102012
:102C4000ADF800008DF8030003208DF802006946FE
:102C50000148FEF751FD08BD000801400246002072
:102C600013890B400BB1012000E0002070470146A2
:102C7000888970478181704710B5FFF7B9FFFFF76A
:102C80008FFF10BD10B50022028802F441520B885C
:102C90004C8823438C882343CC8823430C892343CB
:102CA0004C8923438C892343CC8923431A430280D4
:102CB000838B4FF2FF74234083830B8A038210BD02
:102CC00010B504464FF48050194908600AE01849CD
:102CD0000868411E164A116020B9002000F02CF847
:102CE000C0B210BD02211348FFF7B8FF0028EED094
:102CF00021461048FFF7BEFF4FF480500C49086092
:102D00000AE00B490868411E094A116020B90120F8
:102D100000F012F8C0B2E4E701210648FFF79EFF79
:102D20000028EED00348FFF7A2FFC0B2D9E70000A9
:102D3000680000200030014010B50446214602A082
:102D400001F07AF9002010BD3C3C2D464C4153481F
:102D50002D4552524F522D3E3E2053504920B5C86A
:102D6000B4FDB3ACCAB121206572726F72436F6457
:102D700065203D2025640A0010B500F001F810BD63
:102D80000CB50020019000903348006840F480307A
:102D90003149086000BF3048006800F400300090FE
:102DA0000198401C0190009818B90198B0F5A06FE7
:102DB000F1D12948006800F4003010B101200090E2
:102DC00001E0002000900098012843D123480068CA
:102DD00040F01000214908600846006820F0030018
:102DE00008600846006840F0020008601A48406821
:102DF000194948600846406848600846406840F401
:102E0000806048600846406820F47C1048600846AE
:102E1000406840F4E81048600846006840F0807060
:102E2000086000BF0C48006800F000700028F9D06E
:102E30000948406820F00300074948600846406898
:102E400040F00200486000BF0348406800F00C00FA
:102E50000828F9D10CBD00000010024000200240FB
:102E60002DE9F04385B006460F464FF4F0734FF45A
:102E7000A07250210020FEF741FD00244FF0780998
:102E8000C825002003900490019002904E490880CC
:102E90004E49088002234EA250216E20FEF7F4FE18
:102EA00077B9FF203223F022C82100903C20FEF7A2
:102EB00095FD02234AA2D2214C20FEF7E5FE6EE0EA
:102EC00065E002234BA249461420FEF711FE3E485E
:102ED0000288521C48A101A801F0BEF8082301AAEB
:102EE00049462C20FEF732FF022345A249465020D6
:102EF000FEF7CAFE3448008836F81080002410E03F
:102F00000A2098FBF0F100FB11803030C2B220465D
:102F1000611CCCB203A90A540A2098FBF0F01FFAF6
:102F200080F8B8F1000FEBD1D2252748008836F899
:102F30001000642808DA0823302249462846FEF7A4
:102F400040FE05F10C0085B216E0601EC4B2012CF3
:102F500008D108232E2249462846FEF732FE05F105
:102F60000C0085B203A8025D082349462846FEF7F7
:102F700028FE05F10C0085B2002CE6D1124800882D
:102F8000401C1149088009F11E001FFA80F90E4803
:102F90000088082803DA0C480088B84291DB1C48F6
:102FA000816C3C3088471A48C16D503088471848BA
:102FB000D0F88410783088471548016A1430884763
:102FC00005B0BDE8F083000054000020520000204E
:102FD000BCD3CBD9B2E2CAD4CAFDBEDD000000002A
:102FE000BCD3CBD9B2E2CAD4CAFDBEDDCEAABFD50E
:102FF000A3A10000B5DA0000252D33640000000015
:10300000D7E9B2E2CAD4CAFDBEDDA3BA000000000F
:10301000441B00202DE9F04186B00646884637461D
:10302000142101A8FDF7E5F800240FE00A2097FB22
:10303000F0F100FB11703030C2B22046611CCCB2FE
:1030400001A90A540A2097FBF0F087B2002FEDD1B6
:10305000D225642E08DA0823302241462846FEF79E
:10306000B0FD05F10C0085B216E0601EC4B2012C63
:1030700008D108232E2241462846FEF7A2FD05F17D
:103080000C0085B201A8025D082341462846FEF7E0
:1030900098FD05F10C0085B2002CE6D106B0BDE824
:1030A000F08100002DE9F04786B006460F464FF04C
:1030B000000900244FF0780AC825002004900590EC
:1030C000029003904FF4F0734FF4A0725021FEF77A
:1030D00015FC00204F4908804F49088002234FA269
:1030E00050216E20FEF7D0FD77B9FF203223F02269
:1030F000C82100903C20FEF771FC02234BA2D22194
:103100004C20FEF7C1FD71E069E002234CA251465C
:103110001420FEF7EDFC3F480288521C49A102A88A
:1031200000F09AFF082302AA51462C20FEF70EFE5B
:10313000022346A251465020FEF7A6FD35480088DE
:1031400036F81080002410E00A2098FBF0F100FB14
:1031500011803030C2B22046611CCCB204A90A549E
:103160000A2098FBF0F01FFA80F8B8F1000FEBD1BD
:10317000D2252848008836F81000642808DA082389
:10318000302251462846FEF71CFD05F10C0085B2A1
:1031900016E0601EC4B2012C08D108232E2251462D
:1031A0002846FEF70EFD05F10C0085B204A8025D6D
:1031B000082351462846FEF704FD05F10C0085B2B0
:1031C000002CE6D113480088401C1249088009F100
:1031D000010000F0FF090AF11E001FFA80FAB9F1A0
:1031E000080F03DA0B480088B8428EDB1B48816C5D
:1031F0003C3088471948C16D503088471748D0F88F
:103200008410783088471548016A1430884706B022
:10321000BDE8F0875600002052000020B5A5C8A6E2
:10322000B2E2CAD4CAFDBEDD00000000B5A5C8A642
:10323000B2E2CAD4CAFDBEDDCEAABFD5A3A10000AA
:10324000B5DA0000252D336400000000D7E9B2E2B2
:10325000CAD4CAFDBEDDA3BA00000000441B002092
:1032600010B500200F4908704FF4F0734FF4A072AE
:1032700000210846FEF742FB02230BA2DC211420AA
:10328000FEF702FD08230CA2DC21BE20FEF75EFD46
:103290000B48C16888470A48D0F898108C30884796
:1032A00010BD000035000020B4AEBFDACDA8D1B605
:1032B000BCECB2E2D6D000002E2E2E2E2E2E2E00EA
:1032C000441B0020042808D14FF0E021096941F097
:1032D00004014FF0E022116107E04FF0E02109699D
:1032E00021F004014FF0E0221161704710B502F0A7
:1032F0002BF9012801D001F0BFFE10BD10B5134815
:10330000006840F001001149086008464068104913
:1033100008400E494860084600680E4908400B49BD
:1033200008600846006820F480200860084640686D
:1033300020F4FE0048604FF41F008860FFF71CFD7A
:103340004FF000600449086010BD0000001002400A
:103350000000FFF8FFFFF6FE08ED00E0F0B50C46B8
:10336000154600220021068C4FF6FE773E4006846B
:10337000028B018C4FF60C7632407E1C06EA031657
:103380002E433243104EB0420ED0104EB0420BD0FE
:10339000B0F1804F08D00E4EB04205D00D4EB04275
:1033A00002D00D4EB04206D14FF6FD76314044F0CA
:1033B0000106314305E04FF6F576314044F0010651
:1033C000314302830184F0BD002C014000340140F0
:1033D0000004004000080040000C0040F0B50C461E
:1033E0001546002200210026078C4FF6EF7C07EAE5
:1033F0000C070784028B018C4FF6FF7707EA04164F
:1034000040F6FF473A404FF6FF7707EA03373A4363
:103410004FF6FF7707EA05273A43114FB8420ED01F
:10342000104FB8420BD0B0F1804F08D00E4FB842C9
:1034300005D00E4FB84202D00D4FB84206D14FF61C
:10344000DF77394046F01007394305E04FF65F77E4
:10345000394044F01007394302830184F0BD000075
:10346000002C0140003401400004004000080040EE
:10347000000C0040F0B50C46154600220021002645
:10348000078C4FF6FF6C07EA0C070784828B018CD0
:103490004FF6FF7707EA04264FF60C773A404FF6CF
:1034A000FF7707EA03172F433A43114FB8420ED074
:1034B000104FB8420BD0B0F1804F08D00E4FB84239
:1034C00005D00E4FB84202D00D4FB84206D14FF68C
:1034D000FF57394046F48077394305E04FF2FF57F4
:1034E000394044F48077394382830184F0BD000081
:1034F000002C01400034014000040040000800405E
:10350000000C0040F0B50C461546002200210026B4
:10351000078C4EF6FF7C07EA0C070784828B018C30
:103520004FF6FF7707EA043640F6FF473A404FF67A
:10353000FF7707EA05273A434FF6FF7707EA033795
:103540003A43114FB8420ED0104FB8420BD0B0F1F1
:10355000804F08D00E4FB84205D00E4FB84202D06F
:103560000D4FB84206D14DF6FF77394046F48057EB
:10357000394305E047F6FF57394044F48057394353
:1035800082830184F0BD0000002C01400034014022
:103590000004004000080040000C004038B5022143
:1035A000144800F046F920B30221124800F032F925
:1035B00011480078401C104908700020009008460F
:1035C0000078022815D10020087069460B48006871
:1035D00001F0F6FE04464CB1009838B14FF080502F
:1035E00007490860BFF34F8FBFF36F8F0120054974
:1035F000087038BD002C01404A0000201400002053
:1036000004ED00E04700002010B501210B4800F058
:1036100010F988B10121094800F0FCF80848006859
:10362000401C07490860084600684CF25031884247
:1036300002D300200249086010BD000000040040D1
:103640004000002038B50121154800F0F2F828B3F9
:103650000121134800F0DEF812480088401C11498F
:103660000880084600880A2818DB00200090694678
:103670000D48006801F0A4FE04464CB1009838B132
:103680004FF0805009490860BFF34F8FBFF36F8F31
:1036900001200749087000200249088038BD000059
:1036A00000080040440000201800002004ED00E065
:1036B0004600002030B587B005460C460121C802FF
:1036C000FFF7B6F901210420FFF7B2F94FF480703B
:1036D000ADF8000004208DF8030003208DF80200EF
:1036E00069461648FEF708F80020ADF80600ADF868
:1036F0000A00ADF80850ADF804408DF80C0001A99F
:103700000F4800F035F90020ADF810000220ADF8A8
:1037100012000120ADF814000020ADF816000F20B3
:10372000ADF8180004A9064800F094F8FEF7FCFE76
:103730000221034800F06EF807B030BD00080140D8
:10374000002C01407FB505460C4601210220FFF701
:103750005FF90020ADF80600ADF80A00ADF808509A
:10376000ADF8044001A9104800F002F901210E480B
:1037700000F050F8012211460B4800F0C1F800217A
:10378000094800F04AF81D208DF8000002208DF84D
:10379000010000208DF8020001208DF8030068462A
:1037A000FEF780FE7FBD0000000400407FB50546A7
:1037B0000C4601210420FFF72BF90020ADF806008C
:1037C000ADF80A00ADF80850ADF8044001A9104862
:1037D00000F0CEF801210E4800F01CF8012211463D
:1037E0000B4800F08DF80021094800F016F81E2063
:1037F0008DF8000002208DF8010000208DF80200F5
:1038000001208DF803006846FEF74CFE7FBD0000E6
:1038100000080040CA430282704721B1028842F08A
:103820000102028004E002884FF6FE731A40028013
:10383000704730B50246002000230024158A05EAAF
:103840000103958905EA010413B10CB1012000E0E0
:10385000002030BD70B505460C46244885420ED088
:10386000234885420BD0B5F1804F08D021488542CE
:1038700005D02148854202D02048854200D100E091
:1038800000BF208850B92389A28861882846FFF7A5
:1038900065FDE188284600F03EF825E020880428F0
:1038A0000AD12389A28861882846FFF797FDE1881D
:1038B000284600F039F817E0208808280AD1238923
:1038C000A28861882846FFF7D5FDE188284600F0E8
:1038D00038F809E02389A28861882846FFF712FE9C
:1038E000E188284600F036F870BD0000002C014049
:1038F000003401400004004000080040000C00407B
:103900001AB183890B43838102E083898B438381CE
:10391000704781847047028B4FF6F3731A4002831D
:10392000028B0A4302837047028B4FF2FF331A4027
:103930000283028B4FF6FF7303EA01231A430283CB
:103940007047828B4FF6F3731A408283828B0A434F
:1039500082837047828B4FF2FF331A408283828BBF
:103960004FF6FF7303EA01231A4382837047000076
:10397000002202881D4B98420ED01D4B98420BD05E
:10398000B0F1804F08D01B4B984205D01A4B98429B
:1039900002D01A4B984204D14FF68F731A404B88CD
:1039A0001A43174B984207D0164B984204D04FF653
:1039B000FF431A40CB881A4302808B8883850B888B
:1039C00003850A4B98420BD0094B984208D00E4B06
:1039D000984205D00D4B984202D00D4B984201D130
:1039E0000B7A03860123838270470000002C01407C
:1039F000003401400004004000080040000C00407A
:103A0000001000400014004000400140004401400C
:103A1000004801400D490978012909D10C490A885B
:103A20000988491C0A4B19800A4921F812000CE048
:103A300006490978032908D107490A880988491CD9
:103A4000054B1980054921F81200704759000020E4
:103A50003A000020380B00203C00002038130020E2
:103A600010B501210348FFF7D5FE00210148FFF7FB
:103A7000D4FE10BD002C014010B50020054908807F
:103A800000210548FFF745FF01210348FFF7C5FE68
:103A900010BD000044000020002C014010B50121A1
:103AA0000348FFF7B7FE00210148FFF7B6FE10BD3F
:103AB0000004004010B500210348FFF72AFF012150
:103AC0000148FFF7AAFE10BD0004004038B540F2DF
:103AD00025510E4800F073F9B8B140F225510B485A
:103AE00000F052F90020009069460948006801F092
:103AF00067FC04464CB1009838B14FF0805005493E
:103B00000860BFF34F8FBFF36F8F38BD0044004094
:103B10001800002004ED00E08AB0002600BF20213C
:103B200002A8FCF766FBF8E000235A1E19467B4802
:103B3000006801F0DBFA7A4800F0FCF9C5B2794878
:103B4000007803287ED178480078401E76490870B6
:103B500005F00F00082822D105F0F00000EB8000EE
:103B6000724909684418724A127802EB8202D20044
:103B700002F1C801A0B2FFF74DFA6E480088B0F517
:103B80007A7F02DCA0B2FFF745FF8821644800F08D
:103B9000D6F967480078401C6549087014E040F287
:103BA0005644634A127802EB8202D20002F1C80145
:103BB0002046FFF72FFA8821594800F0C0F95C48E9
:103BC0000078401C5A4908705748017858480078D6
:103BD000401C8142A7D1FDF7C3FBFFF75FFF56A250
:103BE00058A102A800F038FA1E23962289218220CB
:103BF000FDF784FEFF201E2396228921009082205B
:103C0000FDF7ECFE022302AA8C218D20FEF73CF882
:103C10004FF4FA6001F0F6F84BA24AA102A800F0B6
:103C20001BFA1E23962289218220FDF767FEFF20C2
:103C30001E239622892100908220FDF7CFFE0223C9
:103C400002AA00E007E08C218D20FEF71DF800207D
:103C50003749087061E03348007802285DD13D485B
:103C60000078012819D1FFF7FBFE33463AA23EA1A6
:103C700002A800F0F1F9022302AA3D4801881420AD
:103C8000FEF702F83A4800882830394908800020B9
:103C900030490870374908703FE036480078C0B9AD
:103CA0000020002839D005F00F06002709E006F1B2
:103CB000B0011B4800F043F9322001F0A3F8781C52
:103CC000C7B20A2FF3DB01202A490870FFF7D4FEA0
:103CD00023E02848007801281FD106F1C000A8423F
:103CE0001BD1FFF7BDFE10480078401C0E4908703C
:103CF000334621A21CA102A800F0AEF9022302AAB9
:103D00001B4801881420FDF7BFFF194800882830A0
:103D10001749088000201749087005E7180000209F
:103D200000440040590000203500002040000020E1
:103D30003F0000203C000020BCC6CAB1BDE1CAF86B
:103D40000000000025730000D7BCB1B8BCC6CAB1E2
:103D50000000000046000020B4D3BBFAC1ACBDD3C4
:103D6000CAA7B0DC3A2000002573256400000000DB
:103D70003800002036000020D2D1C1ACBDD3B4D36E
:103D8000BBFA3A200000000010B50022002340F6E4
:103D90006A14A14200D100BF0A1201249440A3B2C8
:103DA000DC43048010BD21B1828942F4005282813B
:103DB00004E082894DF6FF731A408281704770B526
:103DC0000246002400230025002040F66A16B14276
:103DD00000D100BFC1F3421501F01F03012606FA0E
:103DE00003F3012D02D19689334006E0022D02D162
:103DF000168A334001E0968A33400C12012606FAF7
:103E000004F41688344013B10CB1012000E0002006
:103E100070BDF0B50346002400260025002040F6C2
:103E20006A17B94200D100BF1846C1F3421401F02D
:103E30001F06012707FA06F5012C01D10C3004E01A
:103E4000022C01D1103000E014301AB107682F4362
:103E5000076002E00768AF430760F0BD2DE9F04757
:103E600086B005460E460024A24600BFA1460027A4
:103E7000B08900B100BF2F462C8A4CF6FF70044079
:103E8000F08804432C82AC894EF6F3100440B088CD
:103E900031890843718908430443AC81AC8A4FF6E9
:103EA000FF400440B0890443AC8201A8FEF7D0FD76
:103EB0001F48874202D1DDF810A001E0DDF80CA018
:103EC000A88900F4004040B10AEBCA0000EB0A10D8
:103ED00031684900B0FBF1F807E00AEBCA0000EBDB
:103EE0000A1031688900B0FBF1F86420B8FBF0F0EB
:103EF00004012009642101FB1089A88900F4004015
:103F000040B1322000EBC900B0FBF1F000F0070037
:103F1000044308E0322000EB09106421B0FBF1F00B
:103F200000F00F0004432C8106B0BDE8F0870000CC
:103F30000038014001468888C0F308007047C1F38B
:103F4000080282807047000010B52048007840BB0E
:103F50001F480078401E1E49087008460078012856
:103F600001DA022008701A48007801280CD11E23BB
:103F70001A46B4214620FDF7C1FC022315A28C216C
:103F80004620FDF781FE1FE01E231A468C214620A5
:103F9000FDF7B4FC02230FA2B4214620FDF774FE06
:103FA00012E00A480078042805D10B4801880B4824
:103FB000FEF7F6FB08E005480078052804D108481C
:103FC00001880848FEF7ECFB10BD000059000020F6
:103FD00058000020A1F400003A000020380B002017
:103FE0003C0000203813002000BFFEE710B5104849
:103FF000007801280BD104200D490870FDF7A6F9BF
:1040000000231A4619460B48006801F04DF908488C
:10401000007802280BD1052005490870FDF796F9B4
:1040200000231A4619460348006801F03DF910BD07
:10403000590000201C0000200FB4054B10B503A947
:10404000044A029800F02CF810BC5DF814FB000044
:104050004D440008C40000200FB4084B10B504A95B
:1040600002AA039800F01CF8044602A9002000F000
:10407000B8F9204610BC5DF814FB0000E3430008CB
:1040800002E008C8121F08C1002AFAD17047704721
:10409000002001E001C1121F002AFBD1704700007F
:1040A0002DE9FF4F8BB088460546002606E02528FF
:1040B0000BD0DDE90D1290476D1C761C2878002886
:1040C000F5D10FB03046BDE8F08F0024A146A246DE
:1040D0000122AE4900E0044315F8013F203B02FAFB
:1040E00003F00842F7D128782A2810D06FF02F0269
:1040F0002878A0F13001092915D809EB890102EBD4
:10410000410144F0020400EB01096D1CF0E758F88E
:10411000041B5FEA010903D544F40054C9F1000906
:1041200044F002046D1C28782E2817D115F8010FD1
:1041300044F004042A280ED06FF02F022878A0F152
:10414000300109290AD80AEB8A0102EB410100EB90
:10415000010A6D1CF2E758F804AB6D1C28786C2836
:104160000FD006DC4C2817D068280DD06A2814D14F
:1041700004E0742810D07A280FD10DE044F4001424
:104180000AE044F4801401E044F440146978814268
:1041900002D104F580146D1C6D1C2878692865D047
:1041A00006DC00288DD0632827D0642806D15DE086
:1041B0006E2808D073282AD0752877D0DDE90D1233
:1041C0009047761CE0E0C4F30250022809D003288F
:1041D0000DD0D8F8001004280DD00E6008F10408A6
:1041E000D2E0D8F80010F217C1E90062F6E7D8F87B
:1041F00000100E80F2E70E70F0E718F8041B8DF83F
:10420000001000208DF80100EB46012003E058F873
:1042100004BB4FF0FF3061074FF0000701D40AE004
:104220007F1C57450DDA8742FADB1BF8071000297F
:10423000F6D106E07F1C8742FCDB1BF80710002943
:10424000F8D1DDE90D23A9EB07008146214600F0F6
:10425000B1F83044C61904E0DDE90D121BF8010B7A
:1042600090477F1EF8D22146484688E058F8040B54
:10427000C4F302514FF00A0B032900D100B2042904
:1042800000D140B2002802DA40422D2102E021058F
:1042900005D52B218DF82410012104E006E0E1076B
:1042A00010D02021F6E708AF089113E058F8040B6E
:1042B000C4F302514FF00A0B032900D180B2042944
:1042C00000D1C0B20021EEE75946FBF79DFF303127
:1042D00007F8011D0028F7D1ADEB070000F1200B16
:1042E000600702D524F4803401E04FF0010ADA457A
:1042F00002DDAAEB0B0000E00020824600EB0B0180
:1043000008980144A9EB01000A90E00306D4DDE916
:104310000D2321460A9800F04DF806444FF000099D
:1043200008E009A911F80900DDE90D12904709F12B
:104330000109761C08998945F3DBE0030CD5DDE91A
:104340000D2321460A9800F035F8064404E0DDE923
:104350000D1230209047761CBAF10001AAF1010A33
:10436000F5DC05E0DDE90D1217F8010B9047761C2E
:10437000BBF10001ABF1010BF4DC0A982146DDE949
:104380000D2300F005F806446D1C97E6092801008E
:104390002DE9F041044600251E461746880404D442
:1043A00005E039462020B0476D1C641EF9D528462B
:1043B000BDE8F0812DE9F041044600251E469046F7
:1043C000C80301D5302700E02027880404D505E084
:1043D00041463846B0476D1C641EF9D52846BDE8F5
:1043E000F0810A68531C0B601070704770B503466B
:1043F00000224FF0E02675690D4E367803FB06F477
:104400004FF0E026B16910E04FF0E026B069884235
:104410000BD0884202D20E1A324402E02E1A0E4409
:1044200032440146A24200D300E0EDE700BF70BD78
:104430004C00002030B50446002504E04FF47A70AB
:10444000FFF7D4FF6D1CA542F8D330BD00BF054A6D
:10445000128802F04002002AF9D0C2B2014B1B1DA3
:104460001A807047003801400EB5FCF70DF90EA018
:10447000FFF7E2FD1448154903220023CDE900218E
:104480000290802212A1164801F036F81549086002
:104490000846006810B100F057FD02E012A0FFF7D7
:1044A000CBFD00BFFEE70000B7C9D2EDB3B5B6D370
:1044B000B5E7C6F8D7E9B6A8CAB1C6F7BAAFCAFD1C
:1044C000B5F7CAD4210D0A00800A0020C8060020D2
:1044D0004170705461736B437265617465000000D4
:1044E0003103000820000020B4B4BDA8CAA7B0DC86
:1044F000000000002DE9F04105460E461C48076803
:104500001C480068001D00F0D7FB50B9194800682E
:1045100090F82C10012088401749096881431648FB
:104520000160681C38B936B112480168091D13488A
:1045300000F00CFC1AE07C190E4800684460BC4294
:1045400007D20C480168091D0D48006800F0E4FB23
:104550000CE008480168091D0A48006800F0DCFB0F
:1045600009480068844201D207480460BDE8F08130
:10457000800000206C00002084000020C81E002065
:1045800074000020700000209C00002010B504463C
:1045900000F0E8FB23480068401C224908602248DC
:1045A000006840B9204804600846006801280DD121
:1045B00000F07CF90AE01D48006838B91A48006824
:1045C000C06AE16A884201D8174804601848006848
:1045D000401C1749086094F82C10012088401549A8
:1045E0000968084313490860E16A01EB8101124A36
:1045F00002EB8100211D00F0A9FB00F0C5FB0B4878
:10460000006868B108480068C06AE16A884207D259
:104610004FF0805009490860BFF34F8FBFF36F8F91
:1046200010BD00007C0000206C00002088000020ED
:104630009800002084000020F81B002004ED00E01A
:1046400070B523E000F0C6FC1348006808B90120EB
:1046500000E00020054601F055F8BDB900F082FBEE
:104660000D48C068C468201D00F026FB0B48006898
:10467000401E0A4908600A480068401E0849086050
:1046800000F082FB204600F057F800BF04480068A5
:104690000028D7D170BD0000B41E00207C0000208F
:1046A0007800002070B504460D46206C70B1216C76
:1046B000E0680844E0606168E068884201D32068EF
:1046C000E0602846226CE168FBF77AFD70BD2DE9B9
:1046D000F04104460F4615464FF00008A66B206CCB
:1046E00028B37DB93946226CA068FBF769FD216CBF
:1046F000A0680844A060D4E90110884217D320685C
:10470000A06014E03946226CE068FBF759FD216C8B
:10471000E068401AE0602168E068884203D2216CBA
:104720006068401AE060022D01D106B1761E701C4F
:10473000A0634046BDE8F08110B5044694F85900E6
:1047400030B9206B00F030FB204600F02DFB06E076
:1047500094F85900012802D1204600F025FB10BD35
:1047600030B54FF42053174800F007042CB1C01D9A
:1047700020F00700134C041B1B1B0246124C226046
:104780000024114D6C60D018083820F007000F4C41
:10479000206000240D4D2D686C600C4D2D682C6040
:1047A0001146441A4C60094C24680C60084D4C6852
:1047B0002C60084D4C682C604FF00044064D2C6076
:1047C00030BD0000DC1E0020AC000020B400002042
:1047D000BC000020B8000020C000002000BFFFF790
:1047E0002FFF064800680128F9D94FF0805004498E
:1047F0000860BFF34F8FBFF36F8FF0E7F81B002007
:1048000004ED00E02DE9F04106460D4617469846B6
:10481000069C0DB9246000E02760E6632564012151
:10482000204600F001FDBDE8F0812DE9FF5F8046E4
:104830000E469146DDE90E7A109CA9F10100216B2C
:1048400001EB800B2BF0070B002507E0715D04F1F5
:1048500034004155705D00B902E06D1C202DF5D388
:1048600000BF002153200155202F00D31F27E762EE
:10487000201D00F04EFA04F1180000F04AFA2461FD
:10488000C7F12000A06164620020606584F85800D0
:1048900041465846039A00F059F92060BAF1000FDA
:1048A00001D0CAF80040BDE8FF9F000010B5002409
:1048B00007E004EB84010F4A02EB810000F01CFAD0
:1048C000641C202CF5D30C4800F016FA0B4800F0BD
:1048D00013FA0B4800F010FA0A4800F00DFA0A48E3
:1048E00000F00AFA044809490860044808490860C9
:1048F00010BD0000F81B0020781E00208C1E002038
:10490000A01E0020B41E0020C81E00207000002041
:104910007400002010B50146164800E000680368E6
:104920008B42FBD30246436813448B4204D1436855
:104930004C682344436001460A464B6813440468AC
:10494000A34211D10C4C03682468A34208D04B68E1
:104950000468646823444B6003681B680B6005E0CF
:10496000054B1B680B6001E003680B60884200D0B8
:10497000016010BDAC000020B400002070B50546F9
:1049800000F0F0F9A86B08B9012400E0002400F061
:10499000FBF9204670BD70B5054600F0E3F9A86B41
:1049A000E96B884201D1012400E0002400F0ECF919
:1049B000204670BD0A490968096809B9012100E06B
:1049C000002121B14FF0FF31064A116006E0044991
:1049D0000968C968C868034A4168116070470000E7
:1049E000700000209C00002000BFBF2080F31188D1
:1049F000BFF34F8FBFF36F8F00BF00BFFEE770B5EF
:104A0000044600F0AFF994F9455010E0606A08B927
:104A1000012000E0002038B904F1240000F032FE4B
:104A200018B100F06FFA00E003E0681E45B2002DF7
:104A3000ECDC00BFFF2084F8450000F0A5F900F091
:104A400091F994F9445010E0206908B9012000E080
:104A5000002048B904F1100000F014FE08B100F085
:104A600051FA681E45B200E001E0002DECDC00BF09
:104A7000FF2084F8440000F087F970BD2DE9F04173
:104A800005464FF0000800F0A5FA2B48006808B969
:104A9000FFF766FE294800682840002847D145B145
:104AA000083505F0070020B105F00700C0F1080047
:104AB0000544002D3BD022480068854237D8214E5E
:104AC0003046046801E0264624686068A84202D2A5
:104AD00020680028F7D118480068844227D0306841
:104AE00000F10808206830606068401B102807D972
:104AF00067196068401B786065603846FFF70AFFF9
:104B00000F4960680968081A0D490860084600687E
:104B10000D490968884203D2094800680A490860BB
:104B2000064960680968084360600020206000F062
:104B3000E9FD4046BDE8F081B4000020C00000203F
:104B4000B8000020AC000020BC000020001F4FF087
:104B500080730360001F21F001030360001F034BFB
:104B6000036014380260203870470000E9490008EB
:104B700010B586B00446012144F20400FDF758FF49
:104B80004FF40070ADF8140003208DF816001820C3
:104B90008DF8170005A91D48FCF7AEFD4FF48060A5
:104BA000ADF8140004208DF8170005A91748FCF78C
:104BB000A3FD25208DF8000001208DF801000220C2
:104BC0008DF8020001208DF803006846FDF76AFCAD
:104BD00001940020ADF80800ADF80A00ADF80C0013
:104BE000ADF810000C20ADF80E0001A90848FFF741
:104BF00035F9012240F225510548FFF70AF9012154
:104C00000348FFF7D0F806B010BD000000080140CF
:104C10000038014010B586B0044601214804FDF774
:104C2000F7FE01210420FDF703FF0420ADF8140076
:104C300003208DF8160018208DF8170005A91C48D0
:104C4000FCF75AFD0820ADF8140004208DF8170079
:104C500005A91748FCF750FD26208DF8000002201A
:104C60008DF8010000208DF8020001208DF803006E
:104C70006846FDF717FC01940020ADF80800ADF878
:104C80000A00ADF80C00ADF810000C20ADF80E00D5
:104C900001A90848FFF7E2F8012240F22551054832
:104CA000FFF7B7F800210348FFF77DF806B010BD05
:104CB000000801400044004001460A69D1E9013082
:104CC0009860D1E9010358605068884201D1886832
:104CD0005060002008611068401E10601068704726
:104CE000034B0360034B0B6080231360704700008D
:104CF000C8090020C800002000F1080141604FF001
:104D0000FF31816000F10801C16001610021016093
:104D1000704700210161704710B502460B685C1CAA
:104D20000CB9106907E002F1080000E0406844682F
:104D300024689C42FAD944684C604C68A160886041
:104D400041600A611468641C146010BD42684A60C6
:104D500093688B60936859609160086103685B1C7D
:104D60000360704700BFBF2080F31188BFF34F8FEF
:104D7000BFF36F8F00BF03480068401C0149086003
:104D800070470000A800002006480068401E054942
:104D900008600846006820B9002080F3118800BF31
:104DA00000BF7047A800002070B506463546D6B152
:104DB000083D2C460C4960680968084098B1206895
:104DC00088B90949606809688843606000F002F9A1
:104DD0000649606809680844044908602046FFF7EE
:104DE00099FD00F08FFC70BDC0000020B8000020CD
:104DF00003484FF0E0214861072008617047000038
:104E00003F19010070B50446002544B100F0E2F8F6
:104E100000212046FFF76EFB00F074FC05463DB90B
:104E20004FF0805003490860BFF34F8FBFF36F8F7F
:104E300070BD000004ED00E070B50546FFF792FF7D
:104E400015B92748006800E028460446201DFFF7F2
:104E500033FF78B9E06A00EB8000224951F8200066
:104E600040B994F82C10012088401F4909688143FB
:104E70001D480160A06A18B104F11800FFF71CFF7B
:104E80001A480068401C19490860154800688442A7
:104E900009D1211D1648FFF759FF16480068401C2C
:104EA0001449086009E014480068401E124908606F
:104EB0002046FFF741FCFFF77DFDFFF765FF0F4838
:104EC000006858B106480068844207D14FF080500E
:104ED0000B490860BFF34F8FBFF36F8F70BD0000A9
:104EE0006C000020F81B00208400002098000020A7
:104EF000B41E0020780000207C00002088000020E4
:104F000004ED00E001200149086070479000002096
:104F100070B505460C460548016818312846FFF76C
:104F2000FBFE01212046FFF7E5FA70BD6C00002072
:104F3000034909680160034909684160704700003E
:104F4000940000208000002010B586B0002005905D
:104F5000049003AA04A905A8FFF7C2FE0022DDE918
:104F600004101346CDE90021029013A11448039ABE
:104F700000F0C2FA134908600846006808B101242D
:104F800000E00024012C14D100BFBF2080F3118861
:104F9000BFF34F8FBFF36F8F00BF4FF0FF300A4951
:104FA000086001200949086000200949086000F0F4
:104FB00049F806B010BD000049444C45000000000F
:104FC000DD470008A00000209C0000208800002091
:104FD0008000002002480068401C014908607047BA
:104FE000A40000201248006818B10120114908608F
:104FF0001DE000200F4908600F480068B0FA80F0FB
:10500000C0F11F0101EB81020C4B03EB82004268EF
:105010005268426000F108024368934202D142683C
:10502000526842604268D268054B1A6000BF704700
:10503000A40000209000002084000020F81B002025
:105040006C00002010B50A48006840F47F00084951
:1050500008600846006840F07F400860FFF7C8FE1F
:10506000002004490860FBF75FF8002010BD000035
:1050700020ED00E0A800002010B500BFBF2080F3A5
:105080001188BFF34F8FBFF36F8F00BF00F06CFA32
:1050900018B14FF080500449086000BF002080F331
:1050A000118800BF10BD000004ED00E02DE9F843B9
:1050B00007460D4690460DB9002601E007FB05F6B0
:1050C00006F14800FFF7DAFC04465CB104F1480938
:1050D000002084F8460043464A4629463846009454
:1050E000FFF790FB2046BDE8F88300002DE9FF475D
:1050F00082B0054689461E464FF0000A2C4600BF86
:10510000FFF730FED4F83880B8F1000F36D0E768EA
:1051100049462046FFF7C6FAB6B9A8F10100A063D8
:10512000206908B9012000E0002008BB04F110004C
:1051300000F0A8FAE0B14FF080503A490860BFF3A0
:105140004F8FBFF36F8F13E0E760606A08B90120EB
:1051500000E0002060B904F1240000F093FA38B1B7
:105160004FF080502F490860BFF34F8FBFF36F8F10
:10517000FFF70AFE012006B0BDE8F087049818B9D1
:10518000FFF702FE0020F6E7BAF1000F04D16846EF
:10519000FFF7CEFE4FF0010AFFF7F6FDFFF71AFF0B
:1051A000FFF7E0FD94F94400401C10B9002084F89A
:1051B000440094F94500401C10B9002084F84500D3
:1051C000FFF7E2FD04A9684600F036F9F0B9204681
:1051D000FFF7D4FBA0B104F124000499FFF798FE77
:1051E0002046FFF70CFC00F08DFA002888D14FF024
:1051F00080500C490860BFF34F8FBFF36F8F7FE77C
:105200002046FFF7FCFB00F07DFA79E72046FFF728
:10521000F6FB00F077FA2046FFF7B0FB0028EED04F
:105220000020A8E704ED00E070B505460E462C46C8
:10523000FFF798FDD4E90F12206801FB02006060BF
:105240000020A0632068A060E06B401E226C2168F3
:1052500000FB0210E060FF2084F8440084F8450061
:105260009EB9206908B9012000E00020A8B904F126
:10527000100000F007FA80B14FF080500949086033
:10528000BFF34F8FBFF36F8F07E004F11000FFF7FC
:1052900033FD04F12400FFF72FFDFFF775FD01201A
:1052A00070BD000004ED00E02DE9FF4383B0074628
:1052B00088461D464FF000093C4600BFFFF752FDEF
:1052C000A06BE16B884201D3022D28D12A464146CA
:1052D0002046FFF7FCF90646606A08B9012000E0A5
:1052E000002068B904F1240000F0CCF988B14FF037
:1052F000805032490860BFF34F8FBFF36F8F08E0D3
:105300003EB14FF080502D490860BFF34F8FBFF37F
:105310006F8FFFF739FD012007B0BDE8F0830598D6
:1053200018B9FFF731FD0020F6E7B9F1000F04D1FD
:1053300001A8FFF7FDFD4FF00109FFF725FDFFF77D
:1053400049FEFFF70FFD94F94400401C10B90020FE
:1053500084F8440094F94500401C10B9002084F8FA
:105360004500FFF711FD05A901A800F065F8F0B9A7
:105370002046FFF710FBA0B104F110000599FFF7DC
:10538000C7FD2046FFF73BFB00F0BCF9002895D194
:105390004FF0805009490860BFF34F8FBFF36F8F04
:1053A0008CE72046FFF72BFB00F0ACF986E72046A0
:1053B000FFF725FB00F0A6F90020ADE704ED00E0C3
:1053C0002DE9F04705460E462C4600BFBF21EFF3FE
:1053D000118081F31188BFF34F8FBFF36F8F00BF30
:1053E0008046D4F83890E06B48451DD994F945A023
:1053F00009F10100A0630AF1010070B9606A08B9FF
:10540000012000E0002068B904F1240000F03AF91E
:1054100040B13EB10120306004E00AF1010040B229
:1054200084F84500012700E0002700BF88F31188B9
:1054300000BF3846BDE8F08770B504460D46FFF75B
:1054400091FC124802682868401C08B9002619E03F
:105450000F4920680968884204D06068904201D8EA
:1054600001260FE06068101A2968884209D228686E
:105470006168511A401A28602046FFF759FD00263E
:1054800000E00126FFF780FC304670BD8000002060
:10549000940000202DE9FF4F85B0804689461746CD
:1054A000DDE912ABB800FFF7E9FA064656B15C2019
:1054B000FFF7E4FA04460CB1266304E03046FFF738
:1054C00073FC00E000248CB1002084F85900CDE981
:1054D00000ABCDE902403A4649464046089BFFF7FB
:1054E000A4F92046FFF752F8012501E04FF0FF35FF
:1054F000284609B0BDE8F08F2DE9F04F85B007468A
:10550000884691469A46DDE90EB6109CACB1A6B12C
:1055100025462E63022085F85900002004A9534631
:105520004A46CDE900B1CDE9025041463846FFF781
:105530007CF92846FFF72AF801E00020049004983F
:1055400005B0BDE8F08F00000549096809B90120E0
:1055500005E00449096809B9022000E0002070470D
:1055600088000020A40000202DE9F04100273A48DF
:105570000068002863D139480068451C3748056039
:105580008DB93748D0F80080364800683449086043
:105590003448C0F8008034480068401C3249086034
:1055A000FFF708FA00BF3148006885423BD300BFCF
:1055B0002B480068006808B9012000E0002020B1F5
:1055C0004FF0FF30294908602CE025480068C0688A
:1055D000C4686668B54202D22448066022E0201DF5
:1055E000FFF76AFBA06A18B104F11800FFF764FB2B
:1055F00094F82C10012088401D49096808431C4973
:105600000860E16A01EB81011A4A02EB8100211D69
:10561000FFF79CFB1849E06A0968C96A8842C7D34A
:105620000127C5E700BF14480068C06A00EB80008E
:10563000104951F82000012800D9012704E00F4843
:105640000068401C0D4908600D48006800B1012742
:105650003846BDE8F0810000A40000208000002052
:105660007000002074000020940000209C000020A6
:1056700084000020F81B00206C0000208C0000201B
:105680009000002070B50646F068C46804F1180068
:10569000FFF712FB15480068A8B9201DFFF70CFBA7
:1056A00094F82C10012088401149096808431049DA
:1056B0000860E16A01EB81010E4A02EB8100211DC5
:1056C000FFF744FB04E004F118010B48FFF73EFB31
:1056D0000A49E06A0968C96A884204D9012501209B
:1056E0000749086000E00025284670BDA40000209E
:1056F00084000020F81B0020A01E00206C00002069
:105700009000002070B500240026FFF72BFB2E48E8
:105710000068401E2C4908600846006800284FD1E8
:105720002A48006800284BD024E02948C068C46893
:1057300004F11800FFF7C0FA201DFFF7BDFA94F836
:105740002C1001208840234909680843214908603A
:10575000E16A01EB8101204A02EB8100211DFFF784
:10576000F5FA1E49E06A0968C96A884202D3012035
:105770001B4908601648006808B9012000E00020B5
:105780000028D2D00CB1FFF715F91648056865B1AD
:1057900000BFFFF7E9FE10B10120114908606D1E3E
:1057A000002DF6D100200F4908600D48006838B17F
:1057B000012630070C490860BFF34F8FBFF36F8F8E
:1057C000FFF7E2FA304670BDA40000207C00002004
:1057D000A01E002084000020F81B00206C00002088
:1057E000900000208C00002004ED00E00C58000820
:1057F00000000020C800000080400008D4580008C5
:10580000C8000020184A0000904000080000000076
:105810000102030401020304060708090204060842
:105820000000000000000000000000000000000078
:105830000000000000000000000000000000000068
:105840000000000004010000000000000000000053
:105850000000000000000000000000000100000047
:1058600000000000010000004001E0010000000015
:10587000FFFFFF0000A0000000000000000000008B
:105880000000000000000000000000000000000018
:105890000000000000000000000000000000000008
:1058A00000000000000000000000000000000000F8
:1058B00000000000AAAAAAAA000000000000000040
:1058C00000000000000000000000000000000000D8
:0458D00000000000D4
:04000005080000ED02
:00000001FF
