:020000040800F2
:10000000204D00209D0100087934000825270008B4
:10001000C1320008BD100008D94C000800000000E3
:1000200000000000000000000000000005010008C2
:10003000E9150008000000004901000821430008FC
:10004000B7010008B7010008B7010008B7010008B0
:10005000B7010008B7010008B7010008B7010008A0
:10006000B7010008B7010008B7010008B701000890
:10007000B7010008B7010008B7010008B701000880
:10008000B7010008B7010008B7010008B701000870
:10009000B7010008B7010008B70100081D1A0008E1
:1000A000B701000891430008B7010008B701000834
:1000B0001144000851440008B7010008B7010008C6
:1000C000B7010008B7010008B7010008B701000830
:1000D000B7010008B701000851490008B70100083E
:1000E000B7010008B7010008B7010008DFF810D019
:1000F00000F094FB00480047F9580008AFF3008077
:10010000204D0020224B19680868B0E8F00F80F3FA
:100110000988BFF36F8F4FF0000080F311884EF015
:100120000D0E70470000000006480068006880F36C
:10013000088862B661B6BFF34F8FBFF36F8F00DFE1
:1001400000BF00BF08ED00E0EFF30980BFF36F8F41
:100150000F4B1A6820E9F00F106008B54FF0BF0090
:1001600080F31188BFF34F8FBFF36F8F06F004FA4F
:100170004FF0000080F31188BDE808401968086856
:10018000B0E8F00F80F30988BFF36F8F704700BFAE
:1001900098000020EFF30580704700000648804774
:1001A00006480047FEE7FEE7FEE7FEE7FEE7FEE75C
:1001B000FEE7FEE7FEE7FEE731430008ED0000083A
:1001C00040EA01039B0703D009E008C9121F08C0D9
:1001D000042AFAD203E011F8013B00F8013B521E59
:1001E000F9D27047D2B201E000F8012B491EFBD2D0
:1001F00070470022F6E710B513460A460446194632
:10020000FFF7F0FF204610BD30B480EA010202F093
:10021000004530F0004221F0004013D090B1C30DF2
:10022000D40DC2F31601C0F31600E41A41F4000124
:1002300040F400027D34914201D3641C00E0490087
:10024000002C02DA30BC002070474FF4000000237D
:10025000914201D3891A034340084FEA4101F7D183
:1002600051B1914202D14FF0004105E002D24FF06E
:10027000010101E06FF0010103EBC450284430BCE0
:1002800000F027B92DE9FE4F804681EA0300C00F38
:100290000C46009021F0004123F00045B8EB02002D
:1002A000A94105D24046214690461C460B460246CF
:1002B00023F00040104347D0270DC7F30A00C3F3D3
:1002C0000A510290401A019040286BDAC3F31300E0
:1002D00040F4801B0098924620B10023D2EB030A21
:1002E00063EB0B0B01985946C0F14002504600F0F9
:1002F000CFF806460D4650465946019A00F0D7F809
:1003000010EB08006141002487EA115284EAE77388
:100310001A4340D0009A62B3019A012A4FEA075269
:1003200015DC001B61EB02014FF0004202EA0752AC
:10033000CDE90042001C41F5801132462B4600F009
:100340000EF903B0BDE8F08F40462146F9E7001BE7
:1003500061EB0201001C41F5801300185B4120187D
:10036000A2F5001747EB030140EAD570B6196D41BD
:1003700011E06D084FEA360645EAC0754FEA0752AC
:10038000001B61EB0201001C41F5801149084FEA96
:1003900030000019514132462B4603B0BDE8F04F02
:1003A00000F0CEB80098012240000023D0EB0202FA
:1003B00063EBE073009821464FEAE074B8EB00006D
:1003C00061EB0401E9E783F000435BE781F0004162
:1003D00058E796230022114600F084B800F000424E
:1003E00030F000400AD0C10D01F56071C0F3160075
:1003F00042EA0151C20840071143704700200146FC
:10040000704730B50B46014600202022012409E048
:1004100021FA02F59D4205D303FA02F5491B04FABD
:1004200002F52844151EA2F10102F1DC30BD2DE9D0
:10043000F05F0546002092469B4688460646814668
:1004400040241BE0284641464746224600F0F8F982
:1004500053465A46C01A914110D3114618462246B7
:1004600000F016F82D1A67EB01084F4622460120CE
:10047000002100F00DF817EB00094E41201EA4F1F9
:100480000104DFDC484631462A464346BDE8F09F7A
:10049000202A04DB203A00FA02F100207047914044
:1004A000C2F1200320FA03F3194390407047202A39
:1004B00006DBCB17203A41FA02F043EAE07306E08C
:1004C00041FA02F3D040C2F120029140084319469C
:1004D00070470029A8BF7047401C490008BF20F0A2
:1004E0000100704710B4B0FA80FC00FA0CF050EA3A
:1004F000010404BF10BC704749B1CCF1200421FABB
:1005000004F411FA0CF118BF012121430843A3EBB5
:100510000C01CB1D4FEA00614FEA102042BF0020C2
:1005200010BC704700EBC35010440029A4BF10BC9E
:100530007047401C490008BF20F0010010BC704704
:1005400010B5141E73F1000408DA401C41F10001DB
:1005500092185B411A4301D120F0010010BD2DE932
:10056000F04D92469B4611B1B1FA81F202E0B0FA29
:1005700080F220329046FFF78BFF04460F4640EA98
:100580000A0041EA0B0153465A46084313D011466C
:1005900053EA010019D0C8F14002504600F050F96A
:1005A00005460E46504659464246FFF771FF08433E
:1005B00005D0012004E020463946BDE8F08D00203A
:1005C000054346EAE0762C4337430A986305E40A7C
:1005D000A0EB08000022FD0A44EA47540A3002D585
:1005E00000200146E9E7010510196941DDE90845E8
:1005F00000196941BDE8F04DA2E72DE9FE4F81EAFF
:10060000030404F0004421F0004100944FF0000B7B
:1006100023F0004350EA01045ED052EA03045BD0A9
:10062000C3F30A54C1F30A552C44A4F2F3340194E1
:10063000A0FB0254C1F3130141F48011C3F313036F
:1006400043F4801301FB024400FB034E840A970A23
:1006500044EA815447EA8357A4FB076802958D0A50
:1006600005FB07854FEA932C04FB0C542705029DDC
:100670004FEA065847EA1637B5EB08056EEB070C4C
:10068000870E920E47EA811742EA8312A7FB020106
:10069000B6EB0B0164EB00042B0D43EA0C335E1840
:1006A00044EB1C50DA465146E7FB0201C5F3130444
:1006B0004FEA0B3343EA14534FEA0432019C43EAF6
:1006C0000603A4F10C040294009CCDE900B4FFF7EA
:1006D00046FF03B0BDE8F08F00200146F9E72DE9A1
:1006E000F04D81EA030404F0004B21F0004514466C
:1006F0004FF0000A23F0004150EA050220D054EAEE
:1007000001021DD0C5F30A570246C5F31303C1F316
:100710001300C1F30A5640F4801543F48013A7EB8D
:100720000608101BD64608F2FD3873EB050002D30D
:1007300008F1010801E092185B41B8F1000F03DAFB
:1007400000200146BDE8F08D00204FF480110646E0
:1007500084460EE0171B73EB050705D3121B63EBF2
:10076000050306434CEA010C49084FEA3000921891
:100770005B4150EA0107EDD152EA030012D082EA50
:10078000040083EA0501084305D0101BAB4106D2E3
:100790000122002306E000224FF0004302E06FF048
:1007A000010253101AEB06004CEB085110EB0A0043
:1007B00041EB0B01BDE8F04DFFF7C2BEC1F30A5299
:1007C000C1F3130140F2FF3341F480119A4202DA7F
:1007D00000200146704740F233439A42A2F233426E
:1007E00002DC524200F02CB8FFF752BE30B5041EB6
:1007F00071F1000404DB4FF00044404264EB01015E
:10080000141E73F1000405DB1C464FF000435242F6
:1008100063EB0403994208BF904230BD064C074D7C
:1008200006E0E06840F0010394E8070098471034C0
:10083000AC42F6D3FFF75EFC886F0008A86F000893
:10084000202A04DB203A21FA02F00021704721FA25
:1008500002F3D040C2F1200291400843194670478C
:1008600008B50121092003F0D9F801210B4801F056
:1008700097FE0820ADF8000010208DF8030003203B
:100880008DF802006946064801F0FEFD1020ADF823
:1008900000006946024801F0F7FD08BD0002300083
:1008A000000C014010B5FFF7DBFF0821034801F001
:1008B000C8FE1021014801F0C4FE10BD000C01402B
:1008C0000146202909DB7E2907DCA1F1200000EB8D
:1008D0004000034A02EB001070474FF0FF30FBE787
:1008E00000FF1D000146202907DB7E2905DCA1F160
:1008F0002000034A02EB801070474FF0FF30FBE707
:10090000505A1E000146202909DB7E2907DCA1F18F
:10091000200000EB4000034A02EB800070474FF0DC
:10092000FF30FBE700BE1D000146202907DB7E29C2
:1009300005DCA1F12000034A02EB001070474FF0E4
:10094000FF30FBE780D71D0030B504460B464FF063
:10095000FF35062B06D0072B09D0082B0CD0092B0E
:1009600014D10EE02046FFF7CDFF054611E02046EA
:10097000FFF7DAFF05460CE02046FFF7A1FF05462A
:1009800007E02046FFF7AEFF054602E04FF0FF35D7
:1009900000BF00BF284630BD3EB5012405F092FCE3
:1009A00005F02AFE644908600846006810B163A09B
:1009B00004F0E6FA03220021012005F00DFF68494A
:1009C000086003220021012005F006FF6549086048
:1009D00003220021012005F0FFFE63490860604802
:1009E000006810B161A004F0CBFA5E48006810B155
:1009F00069A004F0C5FA5C48006810B171A004F069
:100A0000BFFA7B487B4908220023CDE900210290F0
:100A1000402279A17C4806F005F97C490860084627
:100A2000006818B17AA004F0ABFA02E07FA004F0ED
:100A3000A7FA8548092100234FF40072CDE9001080
:100A400082A1864806F0BCF80446012C03D184A09C
:100A500004F096FA02E08AA004F092FA90480A2183
:100A600000234FF40072CDE900108EA1914806F0EA
:100A7000A7F80446012C03D18FA004F081FA02E00C
:100A800095A004F07DFA9C480B2100234FF40072DE
:100A9000CDE9001099A19C4806F092F80446012C7B
:100AA00003D19AA004F06CFA02E0A0A004F068FA66
:100AB000A648072100234FF40072CDE90010A4A13D
:100AC000A64806F07DF80446012C03D1A4A004F04A
:100AD00057FA02E0ABA004F053FAB3480D2100230B
:100AE0008022CDE90010B1A1B34806F069F80446B0
:100AF000012C03D1B1A004F043FA02E0B6A004F047
:100B00003FFABC48062100238022CDE90010BAA19B
:100B1000BE4806F055F80446012C03D1BCA004F0F1
:100B20002FFA02E0C3A004F02BFACB48006805F0CE
:100B300033FC05F0D9FB3EBD140000204576656E00
:100B40007447726F757048616E646C657220CAC2BA
:100B5000BCFEB4B4BDA8B3C9B9A6A3A10D0A0000D8
:100B6000180000201C0000202000002042696E6157
:100B7000727953656D315F48616E646C6520B6FEB5
:100B8000D6B5D0C5BAC5C1BFB4B4BDA8B3C9B9A69E
:100B9000A3A10D0A0000000042696E6172795365DD
:100BA0006D325F48616E646C6520B6FED6B5D0C507
:100BB000BAC5C1BFB4B4BDA8B3C9B9A6A3A10D0A33
:100BC0000000000042696E61727953656D335F48C1
:100BD000616E646C6520B6FED6B5D0C5BAC5C1BF1E
:100BE000B4B4BDA8B3C9B9A6A3A10D0A0000000002
:100BF000080B0020F40800204B65795363616E5F99
:100C00005461736B000000006D2F00082800002065
:100C10004B65795363616E5F5461736BC8CECEF1DF
:100C2000B4B4BDA8B3C9B9A6210A00004B65795375
:100C300063616E5F5461736BC8CECEF1B4B4BDA86E
:100C4000CAA7B0DC210A00002C00002045585449F6
:100C5000585F4465616C5461736B0000851A00082D
:100C600045585449585F4465616C5461736BC8CEF4
:100C7000CEF1B4B4BDA8B3C9B9A6210D0A000000D5
:100C800045585449585F4465616C5461736BC8CED4
:100C9000CEF1B4B4BDA8CAA7B0DC210D0A00000093
:100CA000300000205553415254325F4465616C540A
:100CB00061736B004D4700085553415254325F44F5
:100CC00065616C5461736BC8CECEF1B4B4BDA8B38A
:100CD000C9B9A6210D0A00005553415254325F4450
:100CE00065616C5461736BC8CECEF1B4B4BDA8CA53
:100CF000A7B0DC210D0A00003400002046616365C6
:100D00005F5461736B000000C51F00084661636596
:100D10005F5377697463685461736BC8CECEF1B466
:100D2000B4BDA8B3C9B9A6210D0A00004661636528
:100D30005F5377697463685461736BC8CECEF1B446
:100D4000B4BDA8CAA7B0DC210D0A000038000020FD
:100D5000424545505F5461736B0000005D0E000812
:100D6000424545505F436865636B6F7574546173AA
:100D70006BC8CECEF1B4B4BDA8B3C9B9A6210D0AD3
:100D800000000000424545505F436865636B6F7526
:100D9000745461736BC8CECEF1B4B4BDA8CAA7B009
:100DA000DC210D0A000000003C00002049574447A8
:100DB0005F5461736B000000352F000849574447AA
:100DC0005F5461736BC8CECEF1B4B4BDA8B3C9B9DA
:100DD000A6210D0A00000000495744475F54617383
:100DE0006BC8CECEF1B4B4BDA8CAA7B0DC210D0A41
:100DF0000000000044000020454D353832305F507F
:100E000072696E745F5461736B000000B118000862
:100E1000454D353832305F5072696E745F5461737E
:100E20006BC8CECEF1B4B4BDA8B3C9B9A6210D0A22
:100E300000000000454D353832305F5072696E74E5
:100E40005F5461736BC8CECEF1B4B4BDA8CAA7B06D
:100E5000DC210D0A000000002400002008B500BFBE
:100E60004FF0FF300123002219460090124800681D
:100E700005F01AFC044604F001000028F0D04FF4FD
:100E800080710E4801F0D4FB0D49087008460078C7
:100E900040B94FF40041094801F0D5FBC82005F0E6
:100EA00061FADDE74FF40041044801F0CAFB01207C
:100EB00005F058FAD4E700001400002000080140B3
:100EC0005E00002008B50121052002F0A7FD0121E8
:100ED000084801F065FB4FF40040ADF80000102019
:100EE0008DF8030003208DF802006946024801F0E6
:100EF000CBFA08BD000230000008014010B5FFF732
:100F0000E1FF00224FF40041014801F09EFB10BDBB
:100F1000000801401FB54FF4A06002F0E7FA482036
:100F200000F064FB02F032F800F000FAFFF7BAFCC0
:100F3000FFF7E4FF00F0FEFF472140F2F31003F05B
:100F4000A5FA472142F20F7003F0E4FA02F09EFE88
:100F500001F0B6FE4FF4FA7004F0B4FC01F07AFB35
:100F6000642004F0AFFC07214120FFF7EDFC0446AC
:100F700007226946204601F07FFB4FF47A71062074
:100F800003F0ECFF4FF4E13005F05CF84FF4E13092
:100F900005F094F84FF4E13005F0EEF8032307A2D2
:100FA000C821322001F094FD02F0F0FE01F0D0FFE4
:100FB0004FF4FA7004F086FC1FBD0000B7C9D2EDF3
:100FC000B3B5B6D3B5E7C6F8D7E9000010B5002031
:100FD0000449087000231A4619460348006805F0C2
:100FE000F9FC10BD830000202000002010B503F0A4
:100FF00087FB2F48007802280CDC00202C49087061
:1010000000F08AFF00231A4619462A48006805F0B6
:10101000E1FC4CE02648007803280DD10220244949
:10102000087096202449088000231A461946214852
:10103000006805F0CFFC3AE01D48007804280AD18A
:1010400001201B49087000231A46194619480068F8
:1010500005F0C0FC2BE01648007805280AD10320D3
:101060001349087000231A4619461248006805F013
:10107000B1FC1CE00E48007806280AD104200C4977
:10108000087000231A4619460A48006805F0A2FCB9
:101090000DE007480078072809D1052004490870A9
:1010A00000231A4619460348006805F093FC10BD5A
:1010B00083000020200000204C00002000BFFEE73D
:1010C00010B5044660480078A0B9012C04D0022C69
:1010D00006D0032C0CD107E05C49086E804708E07D
:1010E0005A49C86C804704E058490869804700E0C5
:1010F00000BFA8E054480078012814D1012C04D086
:10110000022C06D0032C0CD107E05049886B804795
:1011100008E04E49486F804704E04C49486A8047E0
:1011200000E000BF8FE04848007802280ED114B1DB
:10113000032C09D104E04549D1F89C00804704E024
:1011400042490869804700E000BF7CE03E480078E3
:10115000032814D1012C04D0022C06D0032C0CD16E
:1011600007E03A49886B804708E03849486F804774
:1011700004E03649486A804700E000BF63E0324837
:10118000007804281AD134B1012C09D0022C0BD0DC
:10119000032C11D10CE02D49D1F8880080470CE0D8
:1011A0002A49086E804708E02849C86C804704E057
:1011B0002649486A804700E000BF44E022480078A2
:1011C00005281AD134B1012C09D0022C0BD0032CE4
:1011D00011D10CE01D49D1F8880080470CE01B4973
:1011E000086E804708E01949C86C804704E0174939
:1011F000486A804700E000BF25E0134800780628D1
:101200000ED1022C02D0032C08D103E00F4908694B
:10121000804704E00D49486A804700E000BF12E0C3
:101220000948007807280ED1022C02D0032C08D1DF
:1012300003E006490869804704E00449486A80479A
:1012400000E000BF00BF10BD83000020881B00200D
:101250003EB505462C46002001900290207A0828D1
:1012600035D2DFE800F0040A10161C22282E22A234
:1012700023A101A803F094FE2AE022A220A101A844
:1012800003F08EFE24E021A21DA101A803F088FE38
:101290001EE020A21AA101A803F082FE18E01EA2FF
:1012A00017A101A803F07CFE12E01CA214A101A862
:1012B00003F076FE0CE01BA211A101A803F070FE62
:1012C00006E010A20EA101A803F06AFE00E000BF34
:1012D00000BFFF200090618820881E23322201F089
:1012E000A1FA6288D21C91B22288521C90B20223C9
:1012F00001AA01F0EDFB3EBDC8B7B6A80000000092
:1013000025730000B7B5BBD800000000B2E9BFB438
:1013100000000000A1FC0000A1FD0000D7BCB1B896
:1013200000000000C7E5BFD5000000007748008836
:10133000323877490880774800881E3848807348DB
:101340000088888073480088C8800020087272482E
:10135000C860724808616D480088323888826D48DC
:1013600000881E3881B26A48C1826848018868488E
:1013700001836848018866484183012101776649F5
:1013800001626749416261480088E6386049088522
:10139000604800881E3881B25D4841855B480088FE
:1013A000B43881B25A4881855A4801885848C18565
:1013B000022180F83010584941635A4981635348EB
:1013C00000888C3852498887524800881E3881B27C
:1013D0004F48C1874D4800885A3881B24C48A0F820
:1013E00040104C4801884A48A0F84210032180F878
:1013F0004410494981644C49C16444480088E63836
:101400004349A1F85000434800881E3881B2404843
:10141000A0F852103D480088B43881B23C48A0F88A
:1014200054103C4801883A48A0F85610042180F82E
:1014300058103949C1653D490166344800888C38E7
:101440003349A1F86400334800881E3881B230481F
:10145000A0F866102D4800885A3881B22C48A0F8B0
:1014600068102C4801882A48A0F86A10052180F8E5
:101470006C10294901672E49416724480088A0F56E
:10148000A0702349A1F87800224800881E3881B254
:101490001F48A0F87A101D480088A0F5877081B217
:1014A0001B48A0F87C101B4801881948A0F87E1042
:1014B000062180F880101849C0F884101D49C0F832
:1014C000881012480088A0F5A0701149A1F88C007E
:1014D000104800881E3881B20D48A0F88E100B48C5
:1014E0000088A0F5877081B20948A0F890100948DB
:1014F00001880748A0F89210072180F89410064947
:10150000C0F898100C49C0F89C1070478400002067
:10151000881B0020860000205112000831160008A8
:10152000ED0F0008114F0008154C0008ED170008DA
:10153000313B0008211E0008CD0F000838B52C23D0
:1015400064220A21962001F0FDF802231EA2142134
:10155000084601F0BDFA1F48007830B30024FF2090
:1015600000901C48007800EB80001E2101EB8002F7
:101570002C230A21912001F055F900BF10E01648F4
:1015800010F814003030C0B20090C4EB041101F127
:10159000A00008236A46142101F0FCFA601CC4B2C2
:1015A0000C4800788442EADB0DE0FF202C238C22DB
:1015B0000A210090962001F035F9022307A2142198
:1015C000A02001F085FA38BDB4AEBFDACDA8D1B6FF
:1015D000A3BA000049000020641B0020CEDEB4D373
:1015E000BBFAC1ACBDD300007047000070B5044623
:1015F000042002F081FE0C48047025464FF47A70F6
:1016000045430120094908804FF0E020006940F07F
:1016100002004FF0E021086108464561006940F092
:101620000100086170BD00007600002078000020F5
:1016300010B55A480078002847D159480078012849
:1016400009D15649087000231A46194655480068C2
:1016500005F0C0F9A0E052480078022809D14F49AE
:10166000087000231A4619464E48006805F0B2F982
:1016700092E04B4800780328ECD14B4800780128D1
:1016800012D118234FF4A072DC21502001F05AF837
:10169000022346A2DC21502001F01AFA0020424920
:1016A00008704749087077E001203F490870182307
:1016B0004FF4A072DC21502001F044F8022341A233
:1016C000DC21502001F004FA66E03448007802285A
:1016D00019D14148007801280ADB03202F490870FE
:1016E00000231A4619462F48006805F073F953E0A5
:1016F00000202A49087000231A4619462948006824
:1017000005F068F948E025480078062820D13348DC
:10171000008800280EDD05E0002131482F4A12889C
:1017200020F812102D4801880088401E2B4A108096
:101730000029F1D1042019490870002027490880A8
:1017400000231A4619461748006805F043F923E0BC
:101750001248007807281FD12248008800280EDD93
:1017600005E0002120481F4A128820F812101D4869
:1017700001880088401E1B4A10800029F1D10520F5
:101780000649087000201749088000231A461946A8
:101790000448006805F01EF910BD00008300002019
:1017A000820000202000002054000020A2F3A1A20B
:1017B000C8C8C3F4B4F2D3A1A3BABFAA0000000002
:1017C00055000020A2F3A1A2C8C8C3F4B4F2D3A16B
:1017D000A3BAB9D800000000490000204E00002044
:1017E000640B0020500000206413002010B529482D
:1017F0000078002839D128480078401C2649087014
:1018000008460078032801DD01200870224800788E
:1018100001280CD11E231A46DC21322000F092FF51
:1018200002231EA28C21322001F052F930E01A4826
:10183000007802280CD11E231A468C21322000F099
:1018400081FF022315A2B421322001F041F91FE0EB
:101850001E231A46B421322000F074FF02230FA287
:10186000DC21322001F034F912E00A480078042823
:1018700005D10B4801880B4801F042FE08E00548FD
:101880000078052804D108480188084801F038FE8E
:1018900010BD00008300002082000020A1F40000A1
:1018A0004E000020640B0020500000206413002034
:1018B0009CB0642103A8FEF79CFC00BF4FF0FF30F2
:1018C00001231A46022100903A48006804F0ECFE19
:1018D000044604F002000228F0D1374800780028BE
:1018E000ECD136480088401C3449088034480078E0
:1018F000F8B9012032490870002030490880314889
:101900000078012808D101F023FB2FA002F05AF83B
:10191000012004F08BFBD1E72A4800780328CDD1C1
:1019200001F016FB2CA002F04DF8012004F07EFB24
:10193000C4E72448007801281BD101F009FB2A499B
:101940000868FEF746FD80462849FEF75DFC05461F
:10195000FEF744FDCDE900011848028824A103A840
:1019600003F01EFB03A802F02DF8012004F05EFB3B
:10197000A4E7144800780328A0D101F0E9FA21482F
:101980000068FEF726FD80461849FEF73DFC054637
:10199000FEF724FDCDE90001084802881AA103A83A
:1019A00003F0FEFA03A802F00DF8012004F03EFB5C
:1019B00084E7000014000020540000206000002094
:1019C000550000208300002020B5A5C8A6B2E2CAB9
:1019D000D4CAFDBEDD3A000020C7F8BCE4B2E2CABA
:1019E000D4CAFDBEDD3A00007C1B00200000C842C6
:1019F000312D44617461256420203A2020252E3247
:101A00006673000058000020322D44617461256423
:101A100020203A2020252E326673000038B54FF47E
:101A2000807000F09FF920B34FF4807000F094F9BB
:101A300000F072FA0121880702F0A3FD0D4800783A
:101A4000401C0C4908700020009069460A48006854
:101A500005F04CF804464CB1009838B14FF0805076
:101A600006490860BFF34F8FBFF36F8F0120044911
:101A7000087038BD740000201800002004ED00E05C
:101A80006F00002086B00026142101A8FEF7B1FBEC
:101A900000BF00235A1E19469748006804F0BCFE98
:101AA0000020964908700CE04FF48071944800F0D3
:101AB000BFFD08B9681CC5B2012004F053FC701CBE
:101AC000C6B20A2EF0DB052D7EDD8E480078012897
:101AD0007BD18D48007868BB00208C49087002F0EB
:101AE0001BFE01208849087000208949086089A2EE
:101AF0008AA101A803F054FA1E239622892182208C
:101B000000F020FEFF201E239622892100908220D3
:101B100000F088FE022301AA8C218D2000F0D8FF5E
:101B20007F4800780028B4D102217E48006804F084
:101B300072FDAEE775480078012803D17A48006845
:101B40007949486072480068774908600021774801
:101B500002F03DFD00206E49086075A26FA101A84A
:101B600003F01EFA1E2396228921822000F0EAFD4E
:101B700028235A22C821084600F0E4FDFF201E2336
:101B8000962289210090822000F04CFE022301AAB7
:101B90008C218D2000F09CFF6349098888B2C82100
:101BA00002F052FA02215F48006804F034FD6348F5
:101BB0000088B0F57A7F04DC5B49098888B202F0BE
:101BC0005BFD4FF47A7001E077E038E004F0CAFB87
:101BD0004C4800780128ACD14EA250A101A803F0D6
:101BE000DFF91E2396228921822000F0ABFDFF2021
:101BF0001E23962289210090822000F013FE0223EA
:101C000001AA8C218D2000F063FF40480078012854
:101C10000BD128235A22F021C82000F093FD42491D
:101C2000898888B2F02102F00FFA3848007800283D
:101C3000D1D136480078401C3449087029E7314832
:101C400000780328FAD1002400F066F902F064FD60
:101C500000BF05E000203A4921F81400601CC4B21E
:101C6000384800788442F5DB0020364908700121AD
:101C7000354802F0AFFE27A228A101A803F090F991
:101C80001E2396228921822000F05CFDFF201E2366
:101C9000962289210090822000F0C4FD022301AA2F
:101CA0008C218D2000F014FF1D48007820B90221FE
:101CB0001C48006804F0AFFCEBE624A217A101A8C1
:101CC00003F06EF91E2396228921822000F03AFD4E
:101CD000FF201E23962289210090822000F0A2FD81
:101CE000022301AA8C218D2000F0F2FE4FF47A70BD
:101CF00004F038FBCDE60000180000206F00002043
:101D00000008014083000020480000205D00002002
:101D100068000020BCC6CAB1D6D000002573000000
:101D200055000020140000207C1B0020000400400F
:101D3000BCC6CAB1BDE1CAF8000000004E000020D8
:101D4000701B00205300002000440040BCC6CAB1F4
:101D5000B4EDCEF3000000000149086070470000B8
:101D600014040140014600200022074B1B6803EACF
:101D70000102054B14331B680B4013B10AB101205B
:101D800000E00020704700000004014000212349CA
:101D90008279002A3AD00A46126803689A430B46B1
:101DA0001A600A1D126803689A430B1D1A600279B3
:101DB00011440A6803681A430A60184A0832126814
:101DC00003689A43154B08331A601A1D126803689A
:101DD0009A43124B0C331A604279102A0ED11A1F03
:101DE000126803681A430D4B08331A601A1D1268F3
:101DF00003681A43094B0C331A600DE00749427916
:101E000011440A6803681A430A6005E00279114424
:101E10000A6803689A430A607047000000040140A2
:101E200010B504480078801C0249087000F004F8DE
:101E300010BD00008300002008B54FF4DC734FF4A0
:101E4000A0725021002000F07DFCFF205023C8220A
:101E5000114600903C2000F0E5FC2248007806285E
:101E60000CD1022320A2D221582000F031FE0223FF
:101E700021A2FA21622000F02BFE0FE01948007821
:101E800007280BD102231FA2D221582000F020FEE8
:101E9000022319A2FA21622000F01AFE1D48808F49
:101EA0001C4908800846C08F48800846B0F84000AA
:101EB00088800846B0F84200C8800846C168884754
:101EC0001448016A143088471248808A11490880F2
:101ED0000846C08A48800846008B88800846408BA8
:101EE000C88008BD83000020C8B7B6A8C7E5BFD525
:101EF000B5A5C8A600000000B2E2CAD4CAFDBEDD86
:101F0000A3BF0000C8B7B6A8C7E5BFD5BCD3CBD91F
:101F100000000000881B002010B54FF48070FFF710
:101F20001BFF0348006820F480700149086010BD61
:101F3000000401401FB50121052001F06FFD48207C
:101F40008DF80F004FF48070ADF80C0003A9154810
:101F500000F09AFA0821002000F076FA4FF4807021
:101F6000FFF7FAFE00208DF808000C208DF809001C
:101F700001208DF80A000002019001A8FFF706FF7A
:101F8000FFF7CAFF17208DF8000003208DF801002D
:101F900002208DF8020001208DF80300684601F050
:101FA0006DFA1FBD0008014010B54FF48070FFF7B7
:101FB000D3FE0348006840F480700149086010BDFA
:101FC0000004014000BF5448007820BB534800780B
:101FD000012809D10020514908700023421E1946EA
:101FE0004F48006804F018FC00214E4802F0F2FC53
:101FF00001F0C4F801214C48006804F0EDFA4FF4F8
:1020000000414A4800F01DFB962049490880002005
:102010004849087077E04048007801280CD146A074
:1020200002F0AEFF01F042F801213F48006804F0E1
:10203000F2FAFFF783FA66E037480078022822D1E7
:1020400041A002F09DFF0121364802F0C3FC0024AC
:1020500009E042480178334802F0D7FD052004F03A
:1020600081F9601CC4B20A2CF3DB012240F2255135
:102070002C4802F033FD02F00DF901212A480068D6
:1020800004F0AAFA3FE024480078032810D134A0D5
:1020900002F076FF0021234802F09CFC01F012F9C7
:1020A00001212148006804F0B6FAFFF747FA2AE058
:1020B00019480078042811D1FFF72EFF2E48018817
:1020C0002E4802F009F801211748006804F084FA4C
:1020D0004FF40041154800F0B4FA14E00E480078BF
:1020E000052810D1FFF718FF25480188254801F081
:1020F000D1FE01210C48006804F06EFA4FF4004153
:102100000A4800F09EFA00235A1E19461E4800682D
:1021100004F082FB57E70000830000206F000020DE
:102120001800002000440040140000200008014076
:102130004C00002055000020B5A5C8A6BCC6CAB1F9
:10214000BDE7C3E60A0D0000B4D3BBFACAFDC1BFA8
:10215000BCECB2E2BDE7C3E60A0D00005C00002063
:10216000B6E0B4D3BBFABCD3CBD9B2E2CAD4BDE794
:10217000C3E60A0D000000004E000020640B0020A2
:102180005000002064130020200000200146087841
:10219000A12813DB0878A92810DC4878A1280DDBDA
:1021A0004878A1380A78A13AC2EB021303EB421235
:1021B00000EB420000EB4000C00070470878B028F8
:1021C00015DB0878F72812DC4878A1280FDB48785F
:1021D000A1380A78B03AC2EB021303EB421200EBCB
:1021E000420000F24E3000EB4000C000E5E74FF047
:1021F000FF30E2E701460878A12813DB0878A92818
:1022000010DC4878A1280DDB4878A1380A78A13A7B
:10221000C2EB021303EB421200EB42000F4A02EB47
:10222000401070470878B02815DB0878F72812DCD2
:102230004878A1280FDB4878A1380A78B03AC2EB79
:10224000021303EB421200EB420000F24E30034A4D
:1022500002EB4010E5E74FF0FF30E2E7D0C90200A3
:1022600001460878A12815DB0878A92812DC4878EF
:10227000A1280FDB4878A1380A78A13AC2EB0213F3
:1022800003EB421200EB420000EBC000104A02EBED
:10229000C00070470878B02817DB0878F72814DCEE
:1022A0004878A12811DB4878A1380A78B03AC2EB07
:1022B000021303EB421200EB420000F24E3000EB3F
:1022C000C000034A02EBC000E3E74FF0FF30E0E755
:1022D0009081060001460878A12813DB0878A92818
:1022E00010DC4878A1280DDB4878A1380A78A13A9B
:1022F000C2EB021303EB421200EB42000F4A02EB67
:10230000C01070470878B02815DB0878F72812DC71
:102310004878A1280FDB4878A1380A78B03AC2EB98
:10232000021303EB421200EB420000F24E30034A6C
:1023300002EBC010E5E74FF0FF30E2E700DF0E00F0
:1023400002465078137840EA03214AF6A1208142E0
:102350000CDB4AF6FE20814208DCA1F52A40A138B8
:1023600000EB40000B4B03EB800070474AF6A130B6
:1023700081420CDB4AF6C030814208DCA1F52B40DB
:10238000423800EB4000034B03EB8000EDE74FF0D9
:10239000FF30EAE790D71D0002465078137840EAF4
:1023A00003214AF6A12081420ADB4AF6FE2081423F
:1023B00006DCA1F52A40A1380A4B03EB0010704758
:1023C0004AF6A13081420ADB4AF6C030814206DC7F
:1023D000A1F52B404238034B03EB0010EFE74FF021
:1023E000FF30ECE790D71D0070B505460C464FF066
:1023F000FF36062C22D2DFE804F003080D12171C6A
:102400002846FFF7C3FE06461BE02846FFF7F2FE0C
:10241000064616E02846FFF723FF064611E0284649
:10242000FFF758FF06460CE02846FFF7B5FF0646C3
:1024300007E02846FFF784FF064602E04FF0FF362C
:1024400000BF00BF304670BD30B500228B071C0FA7
:102450000F2303FA04F20B4B8C1053F824309343F0
:10246000084C8D1044F8253023468C1053F8243046
:102470008C07240F00FA04F42343024C8D1044F817
:10248000253030BD080001402DE9F041024600250D
:102490000026002000230024002791F803C00CF040
:1024A0000F0591F803C00CF0100CBCF1000F03D025
:1024B00091F802C04CEA050591F800C0BCF1000F8C
:1024C00031D0146800202BE04FF0010C0CFA00F31F
:1024D000B1F800C00CEA03069E4220D183004FF001
:1024E0000F0C0CFA03F7BC4305FA03FC4CEA040496
:1024F00091F803C0BCF1280F06D14FF0010C0CFA83
:1025000000FCC2F814C00AE091F803C0BCF1480F07
:1025100005D14FF0010C0CFA00FCC2F810C0401CB1
:102520000828D1D31460B1F800C0BCF1FF0F34DD2E
:10253000546800202EE000F1080C4FF0010808FA62
:102540000CF3B1F800C00CEA03069E4221D18300CF
:102550004FF00F0C0CFA03F7BC4305FA03FC4CEAEE
:10256000040491F803C0BCF1280F05D100F1080C58
:1025700008FA0CF8C2F8148091F803C0BCF1480FB7
:1025800007D100F1080C4FF0010808FA0CF8C2F866
:102590001080401C0828CED35460BDE8F0810000B4
:1025A000F0B50A46002300240021002500F0004673
:1025B000B6F1004F02D11D4EF16901E01B4E71686A
:1025C000C0F3034583B200F44016B6F5401F08D1AE
:1025D00021F07061154E766826F07066134F7E60AC
:1025E00012E000F48016B6F5801F06D1032606FA25
:1025F00005F4A14341F0706106E0460D360103FA8F
:1026000006F6B14341F0706122B1460D360103FA7E
:1026100006F6314300F00046B6F1004F02D1034EFA
:10262000F16101E0014E7160F0BD00000000014069
:102630000246002093680B400BB1012000E000200F
:10264000704741617047016170470AB1016100E064
:102650004161704708B510208DF8030003208DF804
:1026600002004020ADF8000069460248FFF70CFF69
:1026700008BD0000000C01402DE9F04104460E4663
:1026800015464FF0000800270A2D24D2DFE805F098
:1026900005080B0E1114171A1D204FF018081BE027
:1026A0004FF0200818E04FF0480815E04FF0800880
:1026B00012E04FF010080FE04FF00C080CE04FF064
:1026C0000C0809E04FF0100806E04FF0300803E076
:1026D0004FF0400800E000BF00BF40211048FFF766
:1026E000B0FF032001F0F6FAC4F3074001F0F2FA5C
:1026F000C4F3072001F0EEFAE0B201F0EBFA06E0D5
:10270000002001F0E7FA39467A1CD7B270544745E9
:10271000F6DB40210248FFF796FFBDE8F08100009C
:10272000000C014002A002F02BFC00BFFEE70000FD
:10273000486172644661756C74206572726F720DC7
:102740000A0000002DE9F0410746884614461D4660
:1027500000262B4622464146384600F08DF82C20B4
:1027600000F088FB00BF04E00548006800F0AAFB09
:10277000761C04FB05F0B042F6D8BDE8F0810000FD
:102780008C0000202DE9F84F04460D4616461F46E2
:102790004FF0000AD046C346A1460095301B00F416
:1027A000004010B14FF0FF3801E04FF00108781BF6
:1027B00000F4004010B14FF0FF3B01E04FF0010B7F
:1027C000B4420AD106E02946204600F089F805EB1C
:1027D0000B0085B2BD42F6D122E0BD420AD106E02F
:1027E0002946204600F07CF804EB080084B2B4428D
:1027F000F6D115E0781B311B90FBF1F00FFA80FA4F
:102800000CE02946204600F06BF804EB080084B287
:10281000A4EB090100980AFB010085B2B442F0D193
:10282000BDE8F88F2DE9F04104460D4616461F46D7
:10283000DDF81880A01982B22B4629462046FFF702
:10284000A1FFE9198BB2A1198AB2A11988B2294650
:10285000FFF798FFEA1993B2EA1991B2A21990B260
:102860002246FFF78FFFE81981B22B462246204609
:10287000FFF788FFBDE8F0812DE9F04704460D46DB
:1028800016461F464FF00008C146A0191FFA80F8EF
:10289000E8191FFA80F92A2000F0ECFA200A00F06B
:1028A000FDFAE0B200F0FAFA4FEA182000F0F6FA6A
:1028B00008F0FF0000F0F2FA2B2000F0DBFA280A03
:1028C00000F0ECFAE8B200F0E9FA4FEA192000F063
:1028D000E5FA09F0FF0000F0E1FABDE8F08700003A
:1028E00070B504460D462A2000F0C4FA200A00F014
:1028F000D5FAE0B200F0D2FA200A00F0CFFAE0B246
:1029000000F0CCFA2B2000F0B5FA280A00F0C6FA45
:10291000E8B200F0C3FA280A00F0C0FAE8B200F00A
:10292000BDFA2C2000F0A6FA0248006800F0CAFAAE
:1029300070BD0000880000202DE9F04FA3B0804654
:10294000894692461C46002022900026002500273A
:1029500083462190802101A8FDF74BFC214650467B
:10296000FFF742FD2290224601A92298FFF784FE3C
:10297000062C22D2DFE804F003080D12171C0C20ED
:1029800021904FF0020B18E0102021904FF0020B25
:1029900013E0182021904FF0030B0EE0202021902F
:1029A0004FF0040B09E0102021904FF0010B04E0E0
:1029B0000C2021904FF0010B00BF00BF00261EE04D
:1029C000002518E0002712E006FB0B5001A9085C67
:1029D000B84000F0800040B109EB060291B208EB6C
:1029E000C5023A4490B2FFF77BFF781CC7B2082FAC
:1029F000EADB681CC5B25D45E4DB701CC6B22198F9
:102A00008642DDDB23B0BDE8F08F2DE9F04F93B0B7
:102A10008046894692461D460020129000260024DA
:102A2000002783461190402101A8FDF7E2FB2946CB
:102A30005046FDF789FF12902A4601A91298FFF728
:102A40001BFE062D06D0072D09D0082D0CD0092D10
:102A500014D10EE00C2011904FF0010B0FE010206C
:102A600011904FF0010B0AE0182011904FF0020B6B
:102A700005E0202011904FF0020B00E000BF00BFE6
:102A800000261EE0002418E0002712E006FB0B40A1
:102A900001A9085CB84000F0800040B109EB0602D3
:102AA00091B208EBC4023A4490B2FFF719FF781CC8
:102AB000C7B2082FEADB601CC4B25C45E4DB701CC3
:102AC000C6B211988642DDDB13B0BDE8F08F00007E
:102AD0002DE9FC5F81468A4614461D460026B34612
:102AE0000020019000904F46D046062D22D2DFE80C
:102AF00005F003080D12171C4FF00C0B0C20019071
:102B000018E04FF0100B1020019013E04FF0180B5D
:102B1000182001900EE04FF0200B2020019009E0DA
:102B20004FF0080B1020019004E04FF0060B0C2032
:102B3000019000BF00BF22E03046711C8EB2205CC5
:102B40008DF800003046711C8EB2205C8DF80100BB
:102B50002B466A4641463846FFF7EEFE07EB0B0070
:102B600087B20A480088874204DB00270198404466
:102B70001FFA80F806480088804500DB02E0A05D6F
:102B80000028D9D100BFBDE8FC9F000084000020D0
:102B9000860000202DE9F84F0746884614469946DE
:102BA0004FF0000AD346002000903D464646B9F15A
:102BB000060F09D0B9F1070F0BD0B9F1080F0DD0EE
:102BC000B9F1090F14D10EE00C2000904FF0060B64
:102BD0000FE0102000904FF0080B0AE01820009042
:102BE0004FF00C0B05E0202000904FF0100B00E0A0
:102BF00000BF00BF19E05046411C1FFA81FA225C59
:102C00004B4631462846FFF700FF05EB0B0085B227
:102C100009480088854203DB00250098304486B2CD
:102C200006480088864200DB03E014F80A0000280A
:102C3000E1D100BFBDE8F88F8400002086000020AD
:102C400008B50121042000F0E9FE10208DF80300F2
:102C500003208DF802000820ADF8000069461748EF
:102C6000FFF712FC0220ADF8000069461348FFF799
:102C70000BFC1020ADF8000069461048FFF704FC7B
:102C80000120ADF8000069460C48FFF7FDFB082164
:102C90000A48FFF7D8FC01210848FFF7D4FC32208E
:102CA00002F010FE01210548FFF7CBFC322002F0B4
:102CB00009FE01210148FFF7C6FC08BD00080140DC
:102CC00010B5FFF7BDFF112000F0D4F83C2002F052
:102CD000F9FDF22000F0CEF8182000F0DFF8A32074
:102CE00000F0DCF8122000F0D9F8022000F0D6F84D
:102CF000B22000F0D3F8122000F0D0F8FF2000F04E
:102D0000CDF8102000F0CAF8002000F0C7F8F82035
:102D100000F0C4F8212000F0C1F8042000F0BEF853
:102D2000132000F0A7F8362000F0A4F8082000F0E7
:102D3000B5F8B42000F09EF8022000F0AFF8B620FD
:102D400000F098F8022000F0A9F8222000F0A6F880
:102D5000C12000F08FF8412000F0A0F8C52000F05D
:102D600089F8002000F09AF8182000F097F83A202F
:102D700000F080F8662000F091F8322002F0A2FD09
:102D8000E02000F077F80F2000F088F81F2000F016
:102D900085F81C2000F082F80C2000F07FF80F204E
:102DA00000F07CF8082000F079F8482000F076F870
:102DB000982000F073F8372000F070F80A2000F037
:102DC0006DF8132000F06AF8042000F067F8112075
:102DD00000F064F80D2000F061F8002000F05EF8CB
:102DE000E12000F047F80F2000F058F8322000F002
:102DF00055F82E2000F052F80B2000F04FF80D206F
:102E000000F04CF8052000F049F8472000F046F8A3
:102E1000752000F043F8372000F040F8062000F05D
:102E20003DF8102000F03AF8032000F037F8242095
:102E300000F034F8202000F031F8002000F02EF8E7
:102E4000112000F017F8782002F03CFD292000F056
:102E500011F82C2000F00EF804480388044802887A
:102E600000210846FFF76EFC10BD00008600002020
:102E70008400002010B5044602210748FFF7E1FB5B
:102E800010210548FFF7DDFB204600F023FF02215B
:102E90000148FFF7D8FB10BD0008014010B50446FB
:102EA00002210748FFF7CDFB10210548FFF7CBFBB8
:102EB000204600F00FFF02210148FFF7C4FB10BDC0
:102EC0000008014010B5044602210B48FFF7B9FB8A
:102ED00010210948FFF7B7FBC4F3074000F0FAFEE2
:102EE000C4F3072000F0F6FEE0B200F0F3FE02218A
:102EF0000148FFF7A8FB10BD000801404CF6CC408C
:102F00000149086070470000003000404AF6AA20DE
:102F100001490860704700000030004001494860E6
:102F20007047000000300040014988607047000091
:102F30000030004000BFFFF7E9FF4FF4FA7003F0E4
:102F400011FAF8E7014908607047000000300040BE
:102F500000B51B2001F0ECFB402001F0E9FB012053
:102F60000149087000BD00009400002000BFFF244C
:102F7000002000F035F80446FF2C02D02046FEF772
:102F80009FF8322003F0EEF9F1E7000008B50121C7
:102F9000082000F043FD48208DF803000120ADF823
:102FA000000069460D48FFF76FFA0220ADF80000F7
:102FB00069460A48FFF768FA4FF48070ADF80000E0
:102FC00069460648FFF760FA4FF40070ADF800005C
:102FD00069460248FFF758FA08BD0000000C01409E
:102FE00010B50446012C01D12E4908702D480078F7
:102FF00001283AD101212C48FFF71AFB88B10221A0
:103000002948FFF715FB60B14FF480712648FFF7A0
:103010000FFB30B14FF400712348FFF709FB002884
:103020003DD10A2003F09EF900201E4908700121BD
:103030001D48FFF7FDFA08B9002010BD02211A480B
:10304000FFF7F6FA08B90120F7E74FF48071164848
:10305000FFF7EEFA08B90220EFE74FF400711248CB
:10306000FFF7E6FAD8B90320E7E701210E48FFF79A
:10307000DFFA012813D102210B48FFF7D9FA012802
:103080000DD101020848FFF7D3FA012807D1410208
:103090000548FFF7CDFA012801D102490870FF2049
:1030A000CBE700007A000020000C014008B54FF487
:1030B000F0734FF4A07250210020FFF743FB03236D
:1030C0001DA250216420FFF703FD02231DA28C21C5
:1030D0001420FFF7FDFC02231DA28C218D20FFF799
:1030E000F7FCFF201E239622892100908220FFF703
:1030F00099FBFF2064234FF48C72B42100901420BC
:10310000FFF790FB022314A2C8211E20FFF7E0FC6A
:10311000022315A2F0211E20FFF7DAFC1648416BAE
:10312000283088471448016F643088471248016A84
:103130001430884708BD0000B5A5C8A6B2E2CAD4BD
:1031400000000000D7B4CCACBFF2A3BA000000006E
:10315000BFD5CFD000000000B1BEB4CEB2E2CAD419
:10316000CAFDBEDDA3BA0000C9CFB4CEB2E2CAD454
:10317000CAFDBEDDA3BA0000881B002010B54FF4C5
:10318000EB734FF4A0720A210020FFF7DBFA6420F2
:1031900003F0E8F8032330A250213820FFF798FC11
:1031A000092330A25021D820FFF7F4FC02232EA2DD
:1031B0008C215020FFF78CFC02232FA2B421502039
:1031C000FFF786FC3048007868B918234FF4A072E6
:1031D000DC215020FFF7B6FA02232CA2DC2150207C
:1031E000FFF776FC0CE018234FF4A072DC2150208E
:1031F000FFF7A8FA02232AA2DC215020FFF768FC7F
:103200002C480078012806D102232BA28C213220E1
:10321000FFF75EFC14E027480078022806D102235D
:1032200025A2B4213220FFF753FC09E021480078A1
:10323000032805D1022320A2DC213220FFF748FC1D
:103240001E48816C3C3088471C48C16D503088470F
:103250001A48C168884710BDBCA4B9E2BCC6CAB14F
:10326000C6F70000312E3000A2F1A1A2B5A5C8A674
:10327000B2E2CAD400000000A2F2A1A2B6E0B4D328
:10328000BBFAB2E2CAD4000054000020A2F3A1A20B
:10329000C8C8C3F4B4F2D3A1A3BABFAA0000000007
:1032A000A2F3A1A2C8C8C3F4B4F2D3A1A3BAB9D8F7
:1032B0000000000082000020A1F40000881B002014
:1032C00000BFFEE738B5BE25FEF726FE01F018FA6E
:1032D0004FF4F0734FF4A07250210020FFF732FA40
:1032E000FF201E239622892100908220FFF79AFA60
:1032F00003233FA250216420FFF7EAFB02233FA2F1
:103300008C211420FFF7E4FB02233FA28C218D20A7
:10331000FFF7DEFBFF2000903D48007800EB8000C7
:10332000C3004FF48C72B4211420FFF77BFA002401
:103330004DE054B904EB840005EBC00081B20223D8
:1033400034A21920FFF7C4FB3FE0012C0AD104EBA3
:10335000840005EBC00081B2022332A21920FFF7DE
:10336000B7FB32E0022C0AD104EB840005EBC0006D
:1033700081B202232FA21920FFF7AAFB25E0032C1C
:103380000AD104EB840005EBC00081B202232DA218
:103390001920FFF79DFB18E0042C0AD104EB8400F0
:1033A00005EBC00081B202232AA21920FFF790FB8F
:1033B0000BE0052C09D104EB840005EBC00081B2C1
:1033C000022328A21920FFF783FB601CC4B2104817
:1033D00000788442ADDB2748416B28308847254878
:1033E000016F643088472348016A1430884738BD2C
:1033F000B6E0B4D3BBFAB2E2CAD40000D7B4CCACC6
:10340000BFF2A3BA00000000BFD5CFD0000000007B
:1034100049000020B2E2CAD4CAFDBEDDD2BBA3BAC5
:1034200000000000B2E2CAD4CAFDBEDDB6FEA3BAF7
:1034300000000000B2E2CAD4CAFDBEDDC8FDA3BAD6
:1034400000000000B2E2CAD4CAFDBEDDCBC4A3BAFC
:1034500000000000B2E2CAD4CAFDBEDDCEE5A3BAC8
:1034600000000000B2E2CAD4CAFDBEDDC1F9A3BAB1
:1034700000000000881B00207047000070B500218C
:1034800000230F22C47804B3154C246804F4E064CC
:10349000C4F5E064210AC1F10403CA40447804FA87
:1034A00003F184781440214309010E4C0678A1559C
:1034B000047804F01F050124AC4005786D11AD00BF
:1034C00005F1E025C5F8004109E0047804F01F0586
:1034D0000124AC40044D0678761145F8264070BDB5
:1034E0000CED00E000E400E080E100E0024901436F
:1034F000024A1160704700000000FA050CED00E080
:103500002DE9FF470746884687480088404503DA8B
:1035100086480088404501DBBDE8FF874FF4A07373
:103520001A4678210020FFF70DF94FF0000900241A
:103530004FF0780AC8250020029003900090019077
:103540007B480078052875D177480088794908803C
:1035500067E0022378A251461420FFF7EDF9724884
:103560000288521C75A1684601F01AFD08236A46BC
:1035700051462C20FFF70EFB022372A25146502029
:10358000FFF7A6FA6848008837F8106000240FE0BB
:103590000A2096FBF0F100FB11603030C2B22046E9
:1035A000611CCCB202A90A540A2096FBF0F086B244
:1035B000002EEDD1D2255C48008837F81000642831
:1035C00008DA0823302251462846FFF71EFA05F193
:1035D0000C0085B216E0601EC4B2012C08D108238D
:1035E0002E2251462846FFF710FA05F10C0085B24D
:1035F00002A8025D082351462846FFF706FA05F1A6
:103600000C0085B2002CE6D147480088401C464992
:10361000088009F1010000F0FF090AF11E001FFAFD
:1036200080FAB9F1080F7DDA3F480088404590DB09
:1036300078E0FFE73E480078042873D13B480088D3
:103640003C49088067E002233BA251461420FFF763
:1036500073F936480288521C38A1684601F0A0FC74
:1036600008236A4651462C20FFF794FA022335A21C
:1036700051465020FFF72CFA2C48008837F810608C
:1036800000240FE00A2096FBF0F100FB11603030BF
:10369000C2B22046611CCCB202A90A540A2096FB91
:1036A000F0F086B2002EEDD1D2252048008837F800
:1036B0001000642808DA0823302251462846FFF714
:1036C000A4F905F10C0085B216E0601EC4B2012C0D
:1036D00008D108232E2251462846FFF796F905F116
:1036E0000C0085B202A8025D082351462846FFF768
:1036F0008CF905F10C0085B2002CE6D10B4800884E
:10370000401C0A49088009F1010000F0FF090AF194
:103710001E001FFA80FAB9F1080F03DA0348008887
:10372000404590DB00BFF7E67E00002080000020CF
:10373000830000207C000020B5DA0000252D3364D2
:1037400000000000D7E9B2E2CAD4CAFDBEDDA3BAC8
:10375000000000002DE9FF4707468A464FF00008A9
:1037600000244FF07809C8250020029003900090B3
:1037700001908948008808B9BDE8FF874FF4A0731D
:103780001A4678210020FEF7DDFF844800780528DE
:103790007ED181480088082805DD7F4800880938E7
:1037A0007D49088002E000207B4908807A48008833
:1037B0007B49088067E002237AA249461420FFF77C
:1037C000BBF877480288521C77A1684601F0E8FBF5
:1037D00008236A4649462C20FFF7DCF9022374A22D
:1037E00049465020FFF774F96D48008837F810609B
:1037F00000240FE00A2096FBF0F100FB116030304E
:10380000C2B22046611CCCB202A90A540A2096FB1F
:10381000F0F086B2002EEDD1D2256148008837F84D
:103820001000642808DA0823302249462846FFF7AA
:10383000ECF805F10C0085B216E0601EC4B2012C54
:1038400008D108232E2249462846FFF7DEF805F165
:103850000C0085B202A8025D082349462846FFF7FE
:10386000D4F805F10C0085B2002CE6D14C48008854
:10387000401C4B49088008F1010000F0FF0809F1E5
:103880001E001FFA80F9B8F1080F94DB81E0FFE712
:103890004248007804287CD13F480088082805DD8C
:1038A0003D48008809383C49088002E000203A4938
:1038B0000880394800884249088067E0022339A21D
:1038C00049461420FFF738F83D480288521C36A1BB
:1038D000684601F065FB08236A4649462C20FFF73D
:1038E00059F9022332A249465020FFF7F1F8344833
:1038F000008837F8106000240FE00A2096FBF0F1F2
:1039000000FB11603030C2B22046611CCCB202A96B
:103910000A540A2096FBF0F086B2002EEDD1D22593
:103920002748008837F81000642808DA0823302276
:1039300049462846FFF769F805F10C0085B216E004
:10394000601EC4B2012C08D108232E224946284605
:10395000FFF75BF805F10C0085B202A8025D0823B1
:1039600049462846FFF751F805F10C0085B2002CB6
:10397000E6D113480088401C1149088008F1010075
:1039800000F0FF0809F11E001FFA80F9B8F1080FD6
:1039900094DB00BFF0E600007C00002083000020E4
:1039A0007E000020B5DA0000252D33640000000001
:1039B000D7E9B2E2CAD4CAFDBEDDA3BA0000000056
:1039C0008000002000B5024603E012F8010B00F071
:1039D000AFFE10780028F8D100BD000029B1064ADA
:1039E000D2690243044BDA6104E0034AD26982439C
:1039F000014BDA61704700000010024029B1064A0D
:103A000012690243044B1A6104E0034A12698243BB
:103A1000014B1A61704700000010024029B1064AAC
:103A200092690243044B9A6104E0034A926982431B
:103A3000014B9A61704700000010024029B1064A0C
:103A4000D2680243044BDA6004E0034AD26882433E
:103A5000014BDA60704700000010024030B50021D1
:103A60000022002400232D4D6D6805F00C0121B1CA
:103A7000042905D0082923D105E0294D056022E05D
:103A8000274D05601FE0254D6D6805F47012234D2C
:103A90006D6805F48034022505EB92421CB9214D76
:103AA000554305600BE01D4D6D6805F400351DB1F3
:103AB0001C4D5543056002E0194D5543056002E079
:103AC000174D056000BF00BF144D6D6805F0F00193
:103AD0000909154D6B5C0568DD4045600F4D6D684B
:103AE00005F4E061090A104D6B5C4568DD408560B6
:103AF0000A4D6D6805F46051C90A0B4D6B5C456851
:103B0000DD40C560054D6D6805F44041890B074DEA
:103B10006B5CC568B5FBF3F5056130BD0010024074
:103B200000127A0000093D00000000201000002073
:103B300000B587B0142102A8FCF75BFB00F0E0FDA4
:103B40000020104908601049087010A212A102A8B4
:103B500001F026FA1E23962289218220FEF7F2FD2B
:103B6000FF201E239622892100908220FEF75AFE14
:103B7000022302AA8C218D20FEF7AAFFFEF714FA79
:103B800007B000BD6800002048000020D7BCB1B8D5
:103B9000BCC6CAB1000000002573000021B1028834
:103BA00042F04002028004E002884FF6BF731A40E0
:103BB0000280704700B585B00020ADF80C000120F0
:103BC000ADF808000220ADF806000020ADF81000A6
:103BD000ADF80400ADF80000ADF80E004FF48270AF
:103BE000ADF802004FF40070ADF80A0069460448D1
:103BF00000F052F801210248FFF7D0FF05B000BDE8
:103C00000030014008B501211420FFF707FF012112
:103C10000803FFF703FF18208DF803002020ADF8FC
:103C2000000003208DF8020069461048FEF72CFCC6
:103C30008020ADF8000069460C48FEF725FC042002
:103C40008DF803004020ADF8000069460748FEF7F4
:103C50001BFC1020ADF800008DF8030003208DF848
:103C6000020069460148FEF70FFC08BD000801404C
:103C70000246002013890B400BB1012000E0002018
:103C800070470146888970478181704710B5FFF7FA
:103C9000B9FFFFF78FFF10BD10B50022028802F4B4
:103CA00041520B884C8823438C882343CC88234380
:103CB0000C8923434C8923438C892343CC89234398
:103CC0001A430280838B4FF2FF74234083830B8A55
:103CD000038210BD10B504464FF4805019490860A6
:103CE0000AE018490868411E164A116020B90020F0
:103CF00000F02CF8C0B210BD02211348FFF7B8FF46
:103D00000028EED021461048FFF7BEFF4FF4805048
:103D10000C4908600AE00B490868411E094A116015
:103D200020B9012000F012F8C0B2E4E701210648F2
:103D3000FFF79EFF0028EED00348FFF7A2FFC0B2B6
:103D4000D9E70000900000200030014010B5044683
:103D5000214602A001F014F9002010BD3C3C2D4684
:103D60004C4153482D4552524F522D3E3E20535008
:103D70004920B5C8B4FDB3ACCAB121206572726FD9
:103D800072436F6465203D2025640A0000B5064833
:103D9000007800B900BD1C2000F0CAFC262000F00D
:103DA000C7FC00BFF6E700009400002010B500F04B
:103DB00001F810BD0CB50020019000903348006858
:103DC00040F480303149086000BF3048006800F49A
:103DD000003000900198401C0190009818B901989B
:103DE000B0F5A06FF1D12948006800F4003010B19F
:103DF0000120009001E0002000900098012843D1AC
:103E00002348006840F01000214908600846006817
:103E100020F0030008600846006840F002000860D7
:103E20001A48406819494860084640684860084692
:103E3000406840F4806048600846406820F47C1088
:103E400048600846406840F4E8104860084600684A
:103E500040F08070086000BF0C48006800F00070FF
:103E60000028F9D00948406820F00300074948605D
:103E70000846406840F00200486000BF03484068C0
:103E800000F00C000828F9D10CBD00000010024021
:103E9000002002402DE9F04385B006460F464FF45E
:103EA000F0734FF4A07250210020FEF74BFC002469
:103EB0004FF07809C82500200390049001900290EB
:103EC0004E4908804E49088002234EA250216E20A0
:103ED000FEF7FEFD77B9FF203223F022C8210090C3
:103EE0003C20FEF79FFC02234AA2D2214C20FEF781
:103EF000EFFD6EE065E002234BA249461420FEF779
:103F00001BFD3E480288521C48A101A801F048F858
:103F1000082301AA49462C20FEF73CFE022345A2B5
:103F200049465020FEF7D4FD3448008836F810800A
:103F3000002410E00A2098FBF0F100FB11803030E3
:103F4000C2B22046611CCCB203A90A540A2098FBD5
:103F5000F0F01FFA80F8B8F1000FEBD1D225274816
:103F6000008836F81000642808DA08233022494611
:103F70002846FEF74AFD05F10C0085B216E0601EEA
:103F8000C4B2012C08D108232E2249462846FEF748
:103F90003CFD05F10C0085B203A8025D08234946EB
:103FA0002846FEF732FD05F10C0085B2002CE6D163
:103FB00012480088401C1149088009F11E001FFAB0
:103FC00080F90E480088082803DA0C480088B842B7
:103FD00091DB1C48816C3C3088471A48C16D5030D9
:103FE00088471848D0F88410783088471548016A07
:103FF0001430884705B0BDE8F08300007E00002043
:104000007C000020BCD3CBD9B2E2CAD4CAFDBEDD4D
:1040100000000000BCD3CBD9B2E2CAD4CAFDBEDDD9
:10402000CEAABFD5A3A10000B5DA0000252D3364C8
:1040300000000000D7E9B2E2CAD4CAFDBEDDA3BACF
:1040400000000000881B00202DE9F04186B00646E4
:1040500088463746142101A8FCF7CBF800240FE06E
:104060000A2097FBF0F100FB11703030C2B22046FD
:10407000611CCCB201A90A540A2097FBF0F087B268
:10408000002FEDD1D225642E08DA082330224146D4
:104090002846FEF7BAFC05F10C0085B216E0601E5A
:1040A000C4B2012C08D108232E2241462846FEF72F
:1040B000ACFC05F10C0085B201A8025D0823414665
:1040C0002846FEF7A2FC05F10C0085B2002CE6D1D3
:1040D00006B0BDE8F08100002DE9F04786B0064645
:1040E0000F464FF0000900244FF0780AC825002041
:1040F00004900590029003904FF4F0734FF4A07277
:104100005021FEF71FFB00204F4908804F490880CF
:1041100002234FA250216E20FEF7DAFC77B9FF2070
:104120003223F022C82100903C20FEF77BFB0223C3
:104130004BA2D2214C20FEF7CBFC71E069E00223B8
:104140004CA251461420FEF7F7FB3F480288521C50
:1041500049A102A800F024FF082302AA51462C20FE
:10416000FEF718FD022346A251465020FEF7B0FC90
:104170003548008836F81080002410E00A2098FBAB
:10418000F0F100FB11803030C2B22046611CCCB28D
:1041900004A90A540A2098FBF0F01FFA80F8B8F13D
:1041A000000FEBD1D2252848008836F8100064288B
:1041B00008DA0823302251462846FEF726FC05F18E
:1041C0000C0085B216E0601EC4B2012C08D1082391
:1041D0002E2251462846FEF718FC05F10C0085B248
:1041E00004A8025D082351462846FEF70EFC05F19F
:1041F0000C0085B2002CE6D113480088401C1249FF
:10420000088009F1010000F0FF090AF11E001FFA01
:1042100080FAB9F1080F03DA0B480088B8428EDB48
:104220001B48816C3C3088471948C16D5030884725
:104230001748D0F88410783088471548016A143040
:10424000884706B0BDE8F087800000207C00002091
:10425000B5A5C8A6B2E2CAD4CAFDBEDD0000000002
:10426000B5A5C8A6B2E2CAD4CAFDBEDDCEAABFD5E6
:10427000A3A10000B5DA0000252D33640000000082
:10428000D7E9B2E2CAD4CAFDBEDDA3BA000000007D
:10429000881B002010B500200F4908704FF4F07300
:1042A0004FF4A07200210846FEF74CFA02230BA23D
:1042B00064211420FEF70CFC08230CA26421BE200C
:1042C000FEF768FC0B48C16888470A48D0F8981088
:1042D0008C30884710BD000049000020B4AEBFDA22
:1042E000CDA8D1B6BCECB2E2D6D000002E2E2E2E38
:1042F0002E2E2E00881B0020042808D14FF0E0212C
:10430000096941F004014FF0E022116107E04FF02C
:10431000E021096921F004014FF0E02211617047AA
:1043200010B502F0A7FC012801D002F03BFA10BD45
:1043300010B51348006840F00100114908600846B4
:104340004068104908400E494860084600680E4918
:1043500008400B4908600846006820F48020086087
:104360000846406820F4FE0048604FF41F00886053
:10437000FFF71CFD4FF000600449086010BD00000D
:10438000001002400000FFF8FFFFF6FE08ED00E01D
:1043900038B50121174800F000F950B30121154844
:1043A00000F0ECF814480088401C134908800846C7
:1043B000008844F6206188421BDB10A000F0E0FD7D
:1043C0000020009069460F48006802F08FFB044609
:1043D0004CB1009838B14FF080500B490860BFF3E2
:1043E0004F8FBFF36F8F01200849087000200249EA
:1043F000088038BD002C01406C00002074696D31CC
:104400000D0A00001C00002004ED00E06E000020FA
:1044100010B50121880700F0C0F8B0B1012188076C
:1044200000F0ACF809480078401C084908700846BC
:104430000078052809DBFDF7B7FD00214FF080402B
:1044400000F09FF800200149087010BD75000020A1
:1044500010B501210B4800F0A0F888B101210948EE
:1044600000F08CF808480068401C074908600846BE
:1044700000684CF25031884202D3002002490860A3
:1044800010BD0000000400406800002030B585B079
:1044900005460C460121C802FFF7C0FA4FF48070B0
:1044A000ADF8000004208DF8030003208DF8020011
:1044B00069461648FDF7E8FF0020ADF80A00ADF8A0
:1044C0000E00ADF80C50ADF808408DF8100002A9B0
:1044D0000F4800F07FF819208DF8040003208DF8B4
:1044E000050000208DF8060001208DF8070001A8C6
:1044F000FEF7C4FF01221146054800F05FF80021D5
:10450000034800F03EF805B030BD0000000801404F
:10451000002C01407FB505460C4601210220FFF723
:104520005DFA0020ADF80600ADF80A00ADF80850BD
:10453000ADF8044001A9104800F04CF801210E48E4
:1045400000F01CF8012211460B4800F037F800215A
:10455000094800F016F81D208DF8000002208DF8A3
:10456000010000208DF8020001208DF8030068464C
:10457000FEF784FF7FBD000000040040CA430282B2
:10458000704721B1028842F00102028004E00288F3
:104590004FF6FE731A400280704730B50246002085
:1045A00000230024158A05EA0103958905EA010420
:1045B00013B10CB1012000E0002030BD1AB1838995
:1045C0000B43838102E083898B438381704781841D
:1045D00070470000002202881D4B98420ED01D4BF0
:1045E00098420BD0B0F1804F08D01B4B984205D0B9
:1045F0001A4B984202D01A4B984204D14FF68F734F
:104600001A404B881A43174B984207D0164B9842D2
:1046100004D04FF6FF431A40CB881A4302808B88A0
:1046200083850B8803850A4B98420BD0094B98422F
:1046300008D00E4B984205D00D4B984202D00D4B3E
:10464000984201D10B7A03860123838270470000D0
:10465000002C0140003401400004004000080040EC
:10466000000C0040001000400014004000400140D9
:1046700000440140004801400D490978012909D151
:104680000C490A880988491C0A4B19800A4921F8F3
:1046900012000CE006490978032908D107490A8865
:1046A0000988491C054B1980054921F812007047FB
:1046B000830000204E000020640B002050000020EA
:1046C0006413002010B501210348FFF757FF0021B4
:1046D0000148FFF756FF10BD002C014010B5002027
:1046E0000549088000210548FFF771FF01210348B3
:1046F000FFF747FF10BD00006C000020002C0140B8
:1047000010B501210348FFF739FF00210148FFF7E9
:1047100038FF10BD0004004010B500210348FFF72A
:1047200056FF01210148FFF72CFF10BD0004004097
:1047300000BF0549098801F040010029F9D002496C
:10474000091D0880704700000048004008B500249B
:1047500000BF00235A1E19466348006802F05CF847
:10476000624800F04DFAC4B261480078032803D1D2
:10477000204600F0B3FAECE75D48007802286ED1DD
:104780005C48007806286ADC5B480078012828D15C
:104790000020009059A000F0F3FB04F00F005B49EB
:1047A0000870FFF78FFF022359A25D48018814208B
:1047B000FEF78EF9554800783030C0B200900823DB
:1047C0006A4657480188B420FEF7E4F95448008847
:1047D0002830534908800020474908705149087023
:1047E00071E050480078E8B904F0F000A0286AD1E0
:1047F00004F00F004549087000250BE0434800789D
:1048000000F1B001394800F000FA322001F0AAFDB1
:10481000681CC5B20A2DF1DB012042490870FFF780
:104820005DFF50E03F48007801284CD137480078C0
:10483000C030A04247D1002600200090FFF742FF81
:104840002C480078002812DD00250BE0364830F8AF
:1048500015002E490978884202D1012606E037E08A
:10486000681CC5B2234800788542EFDB00BF36BB29
:10487000204807780078401C1E49087023480278B9
:104880003846791ECFB2284921F81020022327A2EA
:10489000234801881420FEF71BF91C4800783030AB
:1048A000C0B2009008236A461D480188A020FEF788
:1048B00071F91B48008828301949088000BF002082
:1048C0001849087000BF0121084800F083F840E74C
:1048D000084800780628FADD022318A2104801884B
:1048E0001420FEF7F5F834E71C00002000440040D7
:1048F00083000020490000206E000020B4D3BBFAE2
:10490000C1ACBDD3B3ACCAB10D0A00005200002047
:10491000B4D3BBFAC1ACBDD3CAA7B0DC0000000061
:104920004C0000204A000020641B0020D2D1C1AC02
:10493000BDD3B4D3BBFAA3BA00000000B4D3BBFA12
:10494000C1ACBDD3CAFDC1BFD2D1C2FA00000000C4
:1049500038B540F22551104800F096F8D8B140F231
:1049600025510D4800F027F800210B4800F032F8DF
:104970000020009069460948006802F0B7F8044634
:104980004CB1009838B14FF0805005490860BFF332
:104990004F8FBFF36F8F38BD004400401C000020D4
:1049A00004ED00E001F40072B2F5007F00D100BF19
:1049B000CA430280704710B50022002340F66A14F3
:1049C000A14200D100BF0A1201249440A3B2DC43EB
:1049D000048010BD21B1828942F40052828104E03A
:1049E00082894DF6FF731A408281704710B50446E4
:1049F0002048844209D101218803FFF71FF80021D4
:104A00004FF48040FFF71AF832E01B48844209D186
:104A100001214804FEF7F2FF00214FF40030FEF7B9
:104A2000EDFF25E01548844209D101218804FEF7F5
:104A3000E5FF00214FF48020FEF7E0FF18E010486A
:104A4000844209D10121C804FEF7D8FF00214FF4A8
:104A50000020FEF7D3FF0BE00A48844208D1012171
:104A60000805FEF7CBFF00214FF48010FEF7C6FFCC
:104A700010BD0000003801400044004000480040E4
:104A8000004C00400050004070B502460024002356
:104A90000025002040F66A16B14200D100BFC1F3E4
:104AA000421501F01F03012606FA03F3012D02D17E
:104AB0009689334006E0022D02D1168A334001E088
:104AC000968A33400C12012606FA04F41688344004
:104AD00013B10CB1012000E0002070BDF0B5034619
:104AE000002400260025002040F66A17B94200D1B4
:104AF00000BF1846C1F3421401F01F06012707FA50
:104B000006F5012C01D10C3004E0022C01D110304B
:104B100000E014301AB107682F43076002E007680D
:104B2000AF430760F0BD00002DE9F04786B00546B1
:104B30000E460024A24600BFA1460027B08900B15E
:104B400000BF2F462C8A4CF6FF700440F0880443C7
:104B50002C82AC894EF6F3100440B08831890843AA
:104B6000718908430443AC81AC8A4FF6FF4004408E
:104B7000B0890443AC8201A8FEF770FF1F4887424A
:104B800002D1DDF810A001E0DDF80CA0A88900F446
:104B9000004040B10AEBCA0000EB0A10316849003E
:104BA000B0FBF1F807E00AEBCA0000EB0A1031682D
:104BB0008900B0FBF1F86420B8FBF0F00401200993
:104BC000642101FB1089A88900F4004040B1322023
:104BD00000EBC900B0FBF1F000F00700044308E06F
:104BE000322000EB09106421B0FBF1F000F00F005F
:104BF00004432C8106B0BDE8F08700000038014076
:104C000001468888C0F308007047C1F3080282801B
:104C10007047000010B529480078002839D128488D
:104C20000078401E2649087008460078012801DAFD
:104C3000032008702248007801280CD11E231A4650
:104C4000B4213220FDF77EFD02231EA28C213220EA
:104C5000FDF73EFF30E01A48007802280CD11E23F1
:104C60001A46DC213220FDF76DFD022315A2B42186
:104C70003220FDF72DFF1FE01E231A468C21322023
:104C8000FDF760FD02230FA2DC213220FDF720FF9B
:104C900012E00A480078042805D10B4801880B4827
:104CA000FEF758FD08E005480078052804D10848BB
:104CB00001880848FEF74EFD10BD0000830000206B
:104CC00082000020A1F400004E000020640B0020B0
:104CD000500000206413002000BFFEE7F8B5044632
:104CE00000250526002704F00F0000287EDD04F0D3
:104CF0000F0006287FDC00BF0AE004F00F006F49B8
:104D000031F81510884201D1012705E0681CC5B2B1
:104D10006B4800788542F0DB00BF002F61D104F0C2
:104D2000F00000EB800067490968081A4EF6602120
:104D3000884208D8200900EB800062490968081AF7
:104D4000614908600AE0200900EB80025D480168C3
:104D50005EA000F015F900205B4908605848007813
:104D600000EB8000C00000F1BE011E235A22C820C3
:104D7000FDF7E8FC524A127802EB8202D20002F1FF
:104D8000BE01514A128890B2FFF75EF902215648DF
:104D9000006801F040FC55480088B0F57A7F04DCDB
:104DA0004949098888B2FFF767FC04F00F004349BE
:104DB000434A127821F8120009E004F00F0000F1D4
:104DC000F0014B48FFF721FF012001F0CBFA301E24
:104DD000A6F10101CEB2F0D139480078401C384923
:104DE0000870642001F0BEFA012100E003E04048B1
:104DF000FFF7F0FD14E040F2564033490860304AB6
:104E0000127802EB8202D20002F1BE012E4A128811
:104E100090B2FFF719F92A480078401C2849087019
:104E20002748007833490978884245DB002130481B
:104E3000FFF7D0FDFDF7B8F8FFF762FC002021492D
:104E400008601E23962289218220FDF77BFCFF202B
:104E50001E239622892100908220FDF7E3FC022385
:104E600025A28C218D20FDF733FE4FF47A7001F0DE
:104E700079FA1E23962289218220FDF763FCFF2008
:104E80001E239622892100908220FDF7CBFC02236D
:104E90001CA28C218D20FDF71BFE002505E00020C3
:104EA000064921F81500681CC5B2054800788542FE
:104EB000F5DB002002490870F8BD0000701B0020DF
:104EC00053000020680000205800002054696D65E0
:104ED0003376616C7565203D2025642C7264203D1D
:104EE0002025640D0A00000014000020500000205E
:104EF0000044004049000020BCC6CAB1BDE1CAF868
:104F000000000000D7BCB1B8BCC6CAB100000000A8
:104F100010B51048007801280BD104200D49087005
:104F2000FCF7FAFF00231A4619460B48006801F007
:104F300051FD0848007803280BD105200549087069
:104F4000FCF7EAFF00231A4619460348006801F0FF
:104F500041FD10BD830000202000002070B50546F3
:104F60000C4645F25550FDF7EDFF2846FDF7D6FFFC
:104F70002046FDF7D9FFFDF7C9FFFDF7BFFF70BD64
:104F80000FB4054B10B503A9044A029800F0EEF8DF
:104F900010BC5DF814FB0000DD580008F000002094
:104FA0000FB4084B10B504A902AA039800F0DEF86C
:104FB000044602A9002000F05CFC204610BC5DF80D
:104FC00014FB00007358000802E008C8121F08C153
:104FD000002AFAD170477047002001E001C1121F7A
:104FE000002AFBD1704700002DE9FF5F82B000214D
:104FF000DDE90430020DDDF840B0034318D044F67B
:105000001050A2F2FF3242431514119801281FD00C
:10501000A5EB0B00401C5FEA000A4FF000064E4F64
:10502000DFF83891B046504615D5CAF1000413E0B8
:10503000119801244AA3012801D16FEA0B010298BB
:10504000119AC0E90031C0E9024206B0BDE8F09F04
:10505000CBF10000DFE704460021404A491842EB4B
:105060000450CDE9001012E0E00707D032463B467D
:1050700040464946FBF7C1FA8046894632463B46E0
:1050800010461946FBF7B9FA06460F466410002C85
:10509000EAD1DDE90401DDE90023BAF1000F06DA07
:1050A000FBF7ABFA42464B46FBF7A7FA05E0FBF7E6
:1050B00016FB42464B46FBF712FB04460E46002207
:1050C000284BFBF793FB03D84FF0FF30014607E076
:1050D0000022254B20463146FBF7D4F8FBF76EFB48
:1050E000102409E0002C0ADB0A220023FBF79FF9B9
:1050F000039B30321A55641E50EA0102F2D1641C3F
:10510000039AC4F111031444119A012A03D0012215
:1051100008430DD10AE0084304D000204FF0110BE2
:10512000119072E7A3EB0B056D1E0DE05B4504DDEE
:105130004FF0000205F1010504E003DA4FF0000230
:10514000A5F10105002AECD002981199C0E90231BD
:10515000C0E9004579E70000000014400000F03F7E
:10516000300000000000F0430000E03F2DE9FF4F59
:1051700095B09A46884606460025EEE1252877D167
:1051800000242746F94A0121039400E0044316F85D
:10519000013F203B01FA03F01042F7D130782A2872
:1051A00011D06FF02F033078A0F13002092A16D801
:1051B000039A44F0020402EB820203EB4202104421
:1051C000761C0390EFE758F8042B0392002A03DAC9
:1051D000504244F40054039044F00204761C3078AA
:1051E0002E2816D116F8010F44F004042A280DD0F9
:1051F0006FF02F023078A0F13003092B09D807EBAC
:10520000870302EB4303C718761CF3E758F8047BC7
:10521000761C30786C280FD006DC4C2817D0682814
:105220000DD06A2814D104E0742810D07A280FD148
:105230000DE044F400140AE044F4801401E044F466
:1052400040147278824202D104F58014761C761CD8
:10525000307866280BD013DC582877D009DC00287A
:1052600075D04528F6D04628F4D047281AD193E1C6
:1052700018E0632835D0642879D0652812D18BE1F5
:10528000702873D008DC6728F1D069286FD06E28A9
:105290000DD06F2806D1ACE073282CD0752874D0BF
:1052A000782853D05246179990476D1C54E1C4F3A7
:1052B0000250022809D003280DD0D8F80010042885
:1052C0000DD00D6008F1040846E1D8F80010EA1787
:1052D000C1E90052F6E7D8F800100D80F2E70D7032
:1052E000F0E718F8041B8DF8001000208DF801007D
:1052F000EB46012003E058F804BB4FF0FF30610794
:105300004FF0000102D40DE009F101018946B942D4
:105310000FDA8145F8DB1BF809100029F4D108E009
:1053200009F1010189468142FADB1BF809100029C5
:10533000F6D103985346A0EB090721463846179A41
:1053400000F080FA284400EB090507E044E008E19A
:105350000DE01BF8010B524617999047B9F101096E
:10536000F7D2534621463846179AF2E039E00A212F
:10537000C4F302524FF0000B0091022A06D058F8F5
:10538000040BC117032A09D00AE023E008F1070043
:1053900020F00702F2E80201904605E000B2C117D2
:1053A000042A01D140B2C117002906DA0A460021B9
:1053B000404261EB02012D2202E0220504D52B229E
:1053C0008DF80420012203E0E20701D02022F7E754
:1053D000914657E00A2100E010214FF0000B0091A8
:1053E0000BE010214FF0000B44F00404082700915B
:1053F00003E008204FF0000B0090C4F30252022A91
:1054000005D058F8040B0021032A08D008E008F161
:10541000070020F00702F2E80201904603E080B2A4
:10542000042A00D1C0B24FF0000922072AD53278F1
:10543000702A07D0DDF800C08CF0100C5CEA0B0C71
:1054400005D00EE040228DF80420012208E050EA49
:10545000010306D030238DF804308DF80520022298
:105460009146009B83F0080353EA0B030AD150EAEC
:10547000010201D1620705D530228DF804204FF0DA
:1054800001097F1E3278582A04D039A20C920CAA46
:1054900002920BE03BA2F9E75B46009AFAF7C7FFDE
:1054A0000C9B9B5C029A521E0292137050EA0102FE
:1054B000F2D1029804A9081A00F1200B600702D566
:1054C00024F4803400E001275F4502DDA7EB0B00E8
:1054D00000E0002000EB0B01009003984944401AC3
:1054E0000390E00306D453462146179A039800F030
:1054F000A9F90544002706E001A85246C05D1799A6
:1055000090476D1C7F1C4F45F6DBE0030CD55346DE
:105510002146179A039800F095F9054404E03020DD
:105520005246179990476D1C0099481E009000291B
:10553000F5DC08E00298029952460078491C029175
:10554000179990476D1CBBF10001ABF1010BF1DC29
:105550005BE100F065F90544761C307800287FF4A3
:105560000DAE19B02846BDE8F08F000009280100F3
:1055700030313233343536373839616263646566C9
:10558000000000003031323334353637383941428B
:105590004344454600000000600700D4062708F198
:1055A000070020F00700F0E80223804603F0004CDB
:1055B0005FEA0C0001D097A009E0200501D596A074
:1055C00005E0E00701D095A001E0AFF24C00139098
:1055D000307823F0004365280CD006DC452809D03C
:1055E00046281DD047287FD13BE0662818D0672881
:1055F0007AD136E00021112F01DB112000E0781C68
:10560000CDE9000104A90CA8FFF7EEFCDDE90D01CE
:105610000C9A4FF0000B07F10109109200914EE037
:105620004FF000400097CDE9011004A90CA8FFF746
:10563000DBFCDDE90D020C9B0F994FF0000B91464E
:105640001093009211B9791C00EB0109B7EB090026
:1056500003D4C0F1FF3B07F10109A9EB070001905A
:1056600042E0012F00DA01270021112F01DD112076
:1056700000E03846CDE9000104A90CA8FFF7B4FC0E
:10568000DDE90D010C9A00914FF0000BB946109224
:1056900021070FD4009A4A4503DA914601E0A9F1A7
:1056A0000109B9F1010F05DD109AA9F10101515C61
:1056B0003029F4D0B84202DA10F1040F03DA0121E4
:1056C000CDE9011010E0002803DC8344A9EB0001C0
:1056D00002E0411C494500DD8946A0EB0B00401C5F
:1056E00001904FF000400290200705D401984845F2
:1056F00002DB4FF0FF30019000208DF84B00029844
:105700000DF14B07B0F1004F25D002200C902B205B
:105710000D90029800280CDA404202902D200D9046
:1057200007E00A210298FAF76CFE3031029007F880
:10573000011D0C99481E0C900029F2DC02980028EB
:10574000EFD1791E0D980870307800F0200040F0FD
:10575000450007F8020D11A8C01BC01D0290139848
:10576000007800B1012000EB0901019801EBE07124
:10577000029801440398401A401E0390E00306D4A7
:1057800053462146179A039800F05CF80544139895
:10579000007818B15246179990476D1CE00323D545
:1057A00053462146179A039800F04CF805441BE035
:1057B000BBF1000F07DB0098584504DD10981799DE
:1057C00010F80B0001E017993020524690470198DD
:1057D0000BF1010B401E05F10105019004D12E20B3
:1057E0005246179990476D1CB9F10001A9F10109C2
:1057F000DEDC05E017F8010B5246179990476D1C47
:105800000299481E02900029F4DC53462146179A5B
:1058100003989EE62D0000002B00000020000000F1
:105820002DE9F041044600251E461746880404D49D
:1058300005E039462020B0476D1C641EF9D5284686
:10584000BDE8F0812DE9F041044600251E46904652
:10585000C80301D5302700E02027880404D505E0DF
:1058600041463846B0476D1C641EF9D52846BDE850
:10587000F0810A68531C0B601070704770B50346C6
:1058800000224FF0E02675690D4E367803FB06F4D2
:105890004FF0E026B16910E04FF0E026B069884291
:1058A0000BD0884202D20E1A324402E02E1A0E4465
:1058B00032440146A24200D300E0EDE700BF70BDD4
:1058C0007600002030B50446002504E04FF47A70DD
:1058D000FFF7D4FF6D1CA542F8D330BD00BF054AC9
:1058E000128802F04002002AF9D0C2B2014B1B1DFF
:1058F0001A807047003801400EB5FBF70BFB0EA075
:10590000FFF73EFB1448154903220023CDE900218F
:105910000290802212A1164801F084F9154908600E
:105920000846006810B100F0D5FD02E012A0FFF7B4
:1059300027FB00BFFEE70000B7C9D2EDB3B5B6D371
:10594000B5E7C6F8D7E9B6A8CAB1C6F7BAAFCAFD77
:10595000B5F7CAD4210D0A00AC0A0020F4060020D5
:105960004170705461736B4372656174650000002F
:105970009909000824000020B4B4BDA8CAA7B0DC6F
:105980000000000000B50A20FEF7D2FE00BD0000B6
:105990002DE9F04105460E461C4807681C48006882
:1059A000001D00F02BFC50B91948006890F82C102D
:1059B0000120884017490968814316480160681C26
:1059C00038B936B112480168091D134800F06EFC61
:1059D0001AE07C190E4800684460BC4207D20C48AB
:1059E0000168091D0D48006800F046FC0CE00848FD
:1059F0000168091D0A48006800F03EFC094800687B
:105A0000844201D207480460BDE8F081AC00002068
:105A100098000020B00000200C1F0020A0000020F3
:105A20009C000020C800002010B5044600F04AFC8D
:105A300023480068401C224908602248006840B999
:105A4000204804600846006801280DD100F07CF968
:105A50000AE01D48006838B91A480068C06AE16A5F
:105A6000884201D81748046018480068401C17494C
:105A7000086094F82C1001208840154909680843F3
:105A800013490860E16A01EB8101124A02EB8100CF
:105A9000211D00F00BFC00F027FC0B48006868B1EA
:105AA00008480068C06AE16A884207D24FF0805017
:105AB00009490860BFF34F8FBFF36F8F10BD00001F
:105AC000A800002098000020B4000020C40000209E
:105AD000B00000203C1C002004ED00E070B523E085
